{"contracts/KRWN.sol":{"KRWN":{"abi":[{"inputs":[{"internalType":"string","name":"_initBaseURI","type":"string"}],"stateMutability":"nonpayable","type":"constructor"},{"inputs":[],"name":"AccountBalanceOverflow","type":"error"},{"inputs":[],"name":"BalanceQueryForZeroAddress","type":"error"},{"inputs":[],"name":"ContractsCannotMint","type":"error"},{"inputs":[],"name":"MustMintAtLeastOneToken","type":"error"},{"inputs":[],"name":"NotEnoughAvailableTokens","type":"error"},{"inputs":[],"name":"NotOwnerNorApproved","type":"error"},{"inputs":[],"name":"TokenAlreadyExists","type":"error"},{"inputs":[],"name":"TokenDoesNotExist","type":"error"},{"inputs":[],"name":"TransferFromIncorrectOwner","type":"error"},{"inputs":[],"name":"TransferToNonERC721ReceiverImplementer","type":"error"},{"inputs":[],"name":"TransferToZeroAddress","type":"error"},{"anonymous":false,"inputs":[{"indexed":true,"internalType":"address","name":"owner","type":"address"},{"indexed":true,"internalType":"address","name":"account","type":"address"},{"indexed":true,"internalType":"uint256","name":"id","type":"uint256"}],"name":"Approval","type":"event"},{"anonymous":false,"inputs":[{"indexed":true,"internalType":"address","name":"owner","type":"address"},{"indexed":true,"internalType":"address","name":"operator","type":"address"},{"indexed":false,"internalType":"bool","name":"isApproved","type":"bool"}],"name":"ApprovalForAll","type":"event"},{"anonymous":false,"inputs":[{"indexed":true,"internalType":"address","name":"previousOwner","type":"address"},{"indexed":true,"internalType":"address","name":"newOwner","type":"address"}],"name":"OwnershipTransferred","type":"event"},{"anonymous":false,"inputs":[{"indexed":true,"internalType":"address","name":"from","type":"address"},{"indexed":true,"internalType":"address","name":"to","type":"address"},{"indexed":true,"internalType":"uint256","name":"id","type":"uint256"}],"name":"Transfer","type":"event"},{"inputs":[{"internalType":"address","name":"account","type":"address"},{"internalType":"uint256","name":"id","type":"uint256"}],"name":"approve","outputs":[],"stateMutability":"payable","type":"function"},{"inputs":[{"internalType":"address","name":"owner","type":"address"}],"name":"balanceOf","outputs":[{"internalType":"uint256","name":"result","type":"uint256"}],"stateMutability":"view","type":"function"},{"inputs":[],"name":"baseExtension","outputs":[{"internalType":"string","name":"","type":"string"}],"stateMutability":"view","type":"function"},{"inputs":[],"name":"baseURI","outputs":[{"internalType":"string","name":"","type":"string"}],"stateMutability":"view","type":"function"},{"inputs":[{"internalType":"uint256","name":"tokenId","type":"uint256"}],"name":"burnNFT","outputs":[],"stateMutability":"nonpayable","type":"function"},{"inputs":[],"name":"contractURI","outputs":[{"internalType":"string","name":"","type":"string"}],"stateMutability":"pure","type":"function"},{"inputs":[{"internalType":"uint256","name":"tokenId","type":"uint256"}],"name":"exists","outputs":[{"internalType":"bool","name":"","type":"bool"}],"stateMutability":"view","type":"function"},{"inputs":[],"name":"fee","outputs":[{"internalType":"uint96","name":"","type":"uint96"}],"stateMutability":"view","type":"function"},{"inputs":[{"internalType":"uint256","name":"id","type":"uint256"}],"name":"getApproved","outputs":[{"internalType":"address","name":"result","type":"address"}],"stateMutability":"view","type":"function"},{"inputs":[],"name":"getTokenPrice","outputs":[{"internalType":"uint256","name":"","type":"uint256"}],"stateMutability":"view","type":"function"},{"inputs":[{"internalType":"address","name":"owner","type":"address"},{"internalType":"address","name":"operator","type":"address"}],"name":"isApprovedForAll","outputs":[{"internalType":"bool","name":"result","type":"bool"}],"stateMutability":"view","type":"function"},{"inputs":[],"name":"maxSupply","outputs":[{"internalType":"uint256","name":"","type":"uint256"}],"stateMutability":"view","type":"function"},{"inputs":[{"internalType":"uint256","name":"tokenNum","type":"uint256"}],"name":"mint","outputs":[],"stateMutability":"payable","type":"function"},{"inputs":[],"name":"name","outputs":[{"internalType":"string","name":"","type":"string"}],"stateMutability":"view","type":"function"},{"inputs":[{"internalType":"address","name":"minter","type":"address"}],"name":"numberMinted","outputs":[{"internalType":"uint32","name":"","type":"uint32"}],"stateMutability":"view","type":"function"},{"inputs":[],"name":"owner","outputs":[{"internalType":"address","name":"","type":"address"}],"stateMutability":"view","type":"function"},{"inputs":[{"internalType":"uint256","name":"id","type":"uint256"}],"name":"ownerOf","outputs":[{"internalType":"address","name":"result","type":"address"}],"stateMutability":"view","type":"function"},{"inputs":[{"internalType":"bool","name":"_state","type":"bool"}],"name":"pause","outputs":[],"stateMutability":"nonpayable","type":"function"},{"inputs":[],"name":"paused","outputs":[{"internalType":"bool","name":"","type":"bool"}],"stateMutability":"view","type":"function"},{"inputs":[],"name":"price","outputs":[{"internalType":"uint256","name":"","type":"uint256"}],"stateMutability":"view","type":"function"},{"inputs":[],"name":"remainingSupply","outputs":[{"internalType":"uint256","name":"","type":"uint256"}],"stateMutability":"view","type":"function"},{"inputs":[],"name":"renounceOwnership","outputs":[],"stateMutability":"nonpayable","type":"function"},{"inputs":[{"internalType":"uint256","name":"tokenId","type":"uint256"},{"internalType":"uint256","name":"salePrice","type":"uint256"}],"name":"royaltyInfo","outputs":[{"internalType":"address","name":"","type":"address"},{"internalType":"uint256","name":"","type":"uint256"}],"stateMutability":"view","type":"function"},{"inputs":[],"name":"royaltyReceiver","outputs":[{"internalType":"address","name":"","type":"address"}],"stateMutability":"view","type":"function"},{"inputs":[{"internalType":"address","name":"from","type":"address"},{"internalType":"address","name":"to","type":"address"},{"internalType":"uint256","name":"id","type":"uint256"}],"name":"safeTransferFrom","outputs":[],"stateMutability":"payable","type":"function"},{"inputs":[{"internalType":"address","name":"from","type":"address"},{"internalType":"address","name":"to","type":"address"},{"internalType":"uint256","name":"id","type":"uint256"},{"internalType":"bytes","name":"data","type":"bytes"}],"name":"safeTransferFrom","outputs":[],"stateMutability":"payable","type":"function"},{"inputs":[{"internalType":"address","name":"_to","type":"address"},{"internalType":"uint256","name":"_tokenId","type":"uint256"}],"name":"sendUpgradedToken","outputs":[],"stateMutability":"nonpayable","type":"function"},{"inputs":[{"internalType":"address","name":"operator","type":"address"},{"internalType":"bool","name":"isApproved","type":"bool"}],"name":"setApprovalForAll","outputs":[],"stateMutability":"nonpayable","type":"function"},{"inputs":[{"internalType":"string","name":"_newBaseExtension","type":"string"}],"name":"setBaseExtension","outputs":[],"stateMutability":"nonpayable","type":"function"},{"inputs":[{"internalType":"string","name":"_newBaseURI","type":"string"}],"name":"setBaseURI","outputs":[],"stateMutability":"nonpayable","type":"function"},{"inputs":[{"internalType":"uint256","name":"_price","type":"uint256"}],"name":"setTokenPrice","outputs":[],"stateMutability":"nonpayable","type":"function"},{"inputs":[{"internalType":"bytes4","name":"interfaceId","type":"bytes4"}],"name":"supportsInterface","outputs":[{"internalType":"bool","name":"","type":"bool"}],"stateMutability":"view","type":"function"},{"inputs":[],"name":"symbol","outputs":[{"internalType":"string","name":"","type":"string"}],"stateMutability":"view","type":"function"},{"inputs":[{"internalType":"uint256","name":"index","type":"uint256"}],"name":"tokenByIndex","outputs":[{"internalType":"uint256","name":"","type":"uint256"}],"stateMutability":"view","type":"function"},{"inputs":[{"internalType":"address","name":"owner","type":"address"},{"internalType":"uint256","name":"index","type":"uint256"}],"name":"tokenOfOwnerByIndex","outputs":[{"internalType":"uint256","name":"","type":"uint256"}],"stateMutability":"view","type":"function"},{"inputs":[{"internalType":"uint256","name":"tokenId","type":"uint256"}],"name":"tokenURI","outputs":[{"internalType":"string","name":"","type":"string"}],"stateMutability":"view","type":"function"},{"inputs":[],"name":"totalSupply","outputs":[{"internalType":"uint256","name":"","type":"uint256"}],"stateMutability":"view","type":"function"},{"inputs":[{"internalType":"address","name":"from","type":"address"},{"internalType":"address","name":"to","type":"address"},{"internalType":"uint256","name":"id","type":"uint256"}],"name":"transferFrom","outputs":[],"stateMutability":"payable","type":"function"},{"inputs":[{"internalType":"address","name":"newOwner","type":"address"}],"name":"transferOwnership","outputs":[],"stateMutability":"nonpayable","type":"function"},{"inputs":[],"name":"upgradeDiamondBundle","outputs":[],"stateMutability":"nonpayable","type":"function"},{"inputs":[],"name":"upgradePlatinumBundle","outputs":[],"stateMutability":"nonpayable","type":"function"},{"inputs":[{"internalType":"address","name":"_owner","type":"address"}],"name":"walletOfOwner","outputs":[{"internalType":"uint256[]","name":"","type":"uint256[]"}],"stateMutability":"view","type":"function"},{"inputs":[],"name":"withdrawAddress","outputs":[{"internalType":"address","name":"","type":"address"}],"stateMutability":"view","type":"function"}],"evm":{"bytecode":{"linkReferences":{},"object":"7501f48624523c8ae280ebdf7f720332cda62620fe1dad60085560e0604052600560a090815264173539b7b760d91b60c052600e906200004090826200029d565b5066470de4df820000600f5560006010819055601155601280546001600160a81b031916743b715d4f5219510c7f77db4388ebc0a1436b8430001790553480156200008a57600080fd5b5060405162002b9b38038062002b9b833981016040819052620000ad9162000369565b60408051808201825260048082526325a92ba760e11b6020808401829052845180860190955291845290830152906122bb6006620000ec84826200029d565b506007620000fb83826200029d565b506080819052600a55506200011290503362000129565b6001600c5562000122816200017b565b506200043e565b600b80546001600160a01b038381166001600160a01b0319831681179093556040519116919082907f8be0079c531659141344cd1fd0a4f28419497f9722a3daafe3b4186f6b6457e090600090a35050565b6200018562000197565b600d6200019382826200029d565b5050565b600b546001600160a01b03163314620001f65760405162461bcd60e51b815260206004820181905260248201527f4f776e61626c653a2063616c6c6572206973206e6f7420746865206f776e6572604482015260640160405180910390fd5b565b634e487b7160e01b600052604160045260246000fd5b600181811c908216806200022357607f821691505b6020821081036200024457634e487b7160e01b600052602260045260246000fd5b50919050565b601f8211156200029857600081815260208120601f850160051c81016020861015620002735750805b601f850160051c820191505b8181101562000294578281556001016200027f565b5050505b505050565b81516001600160401b03811115620002b957620002b9620001f8565b620002d181620002ca84546200020e565b846200024a565b602080601f831160018114620003095760008415620002f05750858301515b600019600386901b1c1916600185901b17855562000294565b600085815260208120601f198616915b828110156200033a5788860151825594840194600190910190840162000319565b5085821015620003595787850151600019600388901b60f8161c191681555b5050505050600190811b01905550565b600060208083850312156200037d57600080fd5b82516001600160401b03808211156200039557600080fd5b818501915085601f830112620003aa57600080fd5b815181811115620003bf57620003bf620001f8565b604051601f8201601f19908116603f01168101908382118183101715620003ea57620003ea620001f8565b8160405282815288868487010111156200040357600080fd5b600093505b8284101562000427578484018601518185018701529285019262000408565b600086848301015280965050505050505092915050565b6080516127336200046860003960008181610698015281816108e601526110bc01526127336000f3fe60806040526004361061025c5760003560e01c80636352211e11610144578063b88d4fde116100b6578063da3ef23f1161007a578063da3ef23f146106d0578063dc33e681146106f0578063ddca3f4314610725578063e8a3d48514610764578063e985e9c514610779578063f2fde38b146107af57600080fd5b8063b88d4fde1461063e578063c668286214610651578063c87b56dd14610666578063d5abeb0114610686578063da0239a6146106ba57600080fd5b80638da5cb5b116101085780638da5cb5b146105a257806395d89b41146105c05780639fbc8713146105d5578063a035b1fe146105f5578063a0712d681461060b578063a22cb4651461061e57600080fd5b80636352211e146105185780636a61e5fc146105385780636c0360eb1461055857806370a082311461056d578063715018a61461058d57600080fd5b80632f745c59116101dd5780634f558e79116101a15780634f558e79146104695780634f6ccce71461048957806355f804b3146104a9578063599ebacf146104c95780635c975abb146104e95780636237023e1461050357600080fd5b80632f745c59146103df57806334784a51146103ff57806342842e0e14610414578063438b6300146104275780634b94f50e1461045457600080fd5b80631581b600116102245780631581b6001461032557806318160ddd1461034a57806323b872dd1461036d5780632890e0d7146103805780632a55205a146103a057600080fd5b806301ffc9a71461026157806302329a291461029657806306fdde03146102b8578063081812fc146102da578063095ea7b314610312575b600080fd5b34801561026d57600080fd5b5061028161027c366004612030565b6107cf565b60405190151581526020015b60405180910390f35b3480156102a257600080fd5b506102b66102b136600461206a565b6107e0565b005b3480156102c457600080fd5b506102cd6107fb565b60405161028d91906120a9565b3480156102e657600080fd5b506102fa6102f53660046120dc565b61088d565b6040516001600160a01b03909116815260200161028d565b6102b661032036600461210c565b6108d0565b34801561033157600080fd5b506012546102fa9061010090046001600160a01b031681565b34801561035657600080fd5b5061035f6108df565b60405190815260200161028d565b6102b661037b366004612136565b610914565b34801561038c57600080fd5b506102b661039b3660046120dc565b610a38565b3480156103ac57600080fd5b506103c06103bb366004612172565b610a4c565b604080516001600160a01b03909316835260208301919091520161028d565b3480156103eb57600080fd5b5061035f6103fa36600461210c565b610af8565b34801561040b57600080fd5b506102b6610b91565b6102b6610422366004612136565b610cb2565b34801561043357600080fd5b50610447610442366004612194565b610cdf565b60405161028d91906121af565b34801561046057600080fd5b50600f5461035f565b34801561047557600080fd5b506102816104843660046120dc565b610d81565b34801561049557600080fd5b5061035f6104a43660046120dc565b610da6565b3480156104b557600080fd5b506102b66104c4366004612209565b610e39565b3480156104d557600080fd5b506102b66104e436600461210c565b610e4d565b3480156104f557600080fd5b506012546102819060ff1681565b34801561050f57600080fd5b506102b6610e5f565b34801561052457600080fd5b506102fa6105333660046120dc565b610f60565b34801561054457600080fd5b506102b66105533660046120dc565b610f9e565b34801561056457600080fd5b506102cd610fab565b34801561057957600080fd5b5061035f610588366004612194565b611039565b34801561059957600080fd5b506102b6611074565b3480156105ae57600080fd5b50600b546001600160a01b03166102fa565b3480156105cc57600080fd5b506102cd611086565b3480156105e157600080fd5b506008546102fa906001600160a01b031681565b34801561060157600080fd5b5061035f600f5481565b6102b66106193660046120dc565b611095565b34801561062a57600080fd5b506102b66106393660046122ba565b61119a565b6102b661064c3660046122ed565b6111f0565b34801561065d57600080fd5b506102cd61124b565b34801561067257600080fd5b506102cd6106813660046120dc565b611258565b34801561069257600080fd5b5061035f7f000000000000000000000000000000000000000000000000000000000000000081565b3480156106c657600080fd5b5061035f600a5481565b3480156106dc57600080fd5b506102b66106eb366004612209565b611343565b3480156106fc57600080fd5b5061071061070b366004612194565b611357565b60405163ffffffff909116815260200161028d565b34801561073157600080fd5b5060085461074c90600160a01b90046001600160601b031681565b6040516001600160601b03909116815260200161028d565b34801561077057600080fd5b506102cd611391565b34801561078557600080fd5b50610281610794366004612388565b601c52670a5a2e7a000000006008526000526030600c205490565b3480156107bb57600080fd5b506102b66107ca366004612194565b6113b1565b60006107da82611427565b92915050565b6107e861145c565b6012805460ff1916911515919091179055565b60606006805461080a906123b2565b80601f0160208091040260200160405190810160405280929190818152602001828054610836906123b2565b80156108835780601f1061085857610100808354040283529160200191610883565b820191906000526020600020905b81548152906001019060200180831161086657829003601f168201915b5050505050905090565b6000818152673ec412a9852d173d60c11b601c52602081208201820180546001600160a01b03166108c65763ceea21b66000526004601cfd5b6001015492915050565b6108db3383836114b6565b5050565b6000600a547f000000000000000000000000000000000000000000000000000000000000000061090f9190612402565b905090565b6109218383836001611557565b6000818152673ec412a9852d173d60c11b3317601c52602090208101810180546001600160a01b03948516949384169381169190828614830261097f57826109715763ceea21b66000526004601cfd5b63a11481006000526004601cfd5b846109925763ea553b346000526004601cfd5b8560005281600101549250823314863314176109c0576030600c20546109c057634b6e7f186000526004601cfd5b82156109ce57600082600101555b85851818905550601c600c8181208054600019019055600084905220805460010163ffffffff8116610a08576301336cea6000526004601cfd5b90558082847fddf252ad1be2c89b69c2b068fc378daa952ba7f163c4a11628f55a4df523b3ef600080a45b505050565b610a4061145c565b610a4981611684565b50565b60008281526005602090815260408083208151808301909252546001600160a01b038116808352600160a01b9091046001600160601b0316928201929092528291610ac15750604080518082019091526004546001600160a01b0381168252600160a01b90046001600160601b031660208201525b602081015160009061271090610ae0906001600160601b031687612415565b610aea919061242c565b915196919550909350505050565b6000610b0383611039565b8210610b6a5760405162461bcd60e51b815260206004820152602b60248201527f455243373231456e756d657261626c653a206f776e657220696e646578206f7560448201526a74206f6620626f756e647360a81b60648201526084015b60405180910390fd5b506001600160a01b0391909116600090815260208181526040808320938352929052205490565b610b9961169e565b6000610ba433611039565b9050601e811015610bf75760405162461bcd60e51b815260206004820152601c60248201527f4e6f7420656e6f75676820746f6b656e7320746f2075706772616465000000006044820152606401610b61565b600a6011541115610c3f5760405162461bcd60e51b815260206004820152601260248201527120b6361039b637ba399030b9329037bb32b960711b6044820152606401610b61565b6000610c4a33610cdf565b905060005b601e811015610c8e57610c7c3330848481518110610c6f57610c6f61244e565b6020026020010151610914565b80610c8681612464565b915050610c4f565b5060118054906000610c9f83612464565b91905055505050610cb06001600c55565b565b610cbd838383610914565b813b15610a3357610a33838383604051806020016040528060008152506116f7565b60606000610cec83611039565b905060008167ffffffffffffffff811115610d0957610d096121f3565b604051908082528060200260200182016040528015610d32578160200160208202803683370190505b50905060005b82811015610d7957610d4a8582610af8565b828281518110610d5c57610d5c61244e565b602090810291909101015280610d7181612464565b915050610d38565b509392505050565b6000818152673ec412a9852d173d60c11b601c5260208120820182015460601b6107da565b6000610db160025490565b8210610e145760405162461bcd60e51b815260206004820152602c60248201527f455243373231456e756d657261626c653a20676c6f62616c20696e646578206f60448201526b7574206f6620626f756e647360a01b6064820152608401610b61565b60028281548110610e2757610e2761244e565b90600052602060002001549050919050565b610e4161145c565b600d6108db82826124c3565b610e5561145c565b6108db8282611789565b610e6761169e565b6000610e7233611039565b9050600a811015610ec55760405162461bcd60e51b815260206004820152601c60248201527f4e6f7420656e6f75676820746f6b656e7320746f2075706772616465000000006044820152606401610b61565b60146010541115610f0d5760405162461bcd60e51b815260206004820152601260248201527120b6361039b637ba399030b9329037bb32b960711b6044820152606401610b61565b6000610f1833610cdf565b905060005b600a811015610f4f57610f3d3330848481518110610c6f57610c6f61244e565b80610f4781612464565b915050610f1d565b5060108054906000610c9f83612464565b6000818152673ec412a9852d173d60c11b601c526020902081018101546001600160a01b031680610f995763ceea21b66000526004601cfd5b919050565b610fa661145c565b600f55565b600d8054610fb8906123b2565b80601f0160208091040260200160405190810160405280929190818152602001828054610fe4906123b2565b80156110315780601f1061100657610100808354040283529160200191611031565b820191906000526020600020905b81548152906001019060200180831161101457829003601f168201915b505050505081565b60008161104e57638f4eb6046000526004601cfd5b673ec412a9852d173d60c11b601c528160005263ffffffff601c600c2054169050919050565b61107c61145c565b610cb06000611845565b60606007805461080a906123b2565b61109d61169e565b60006110a76108df565b60125490915060ff16156110ba57600080fd5b7f00000000000000000000000000000000000000000000000000000000000000006110e6826001612583565b111561112c5760405162461bcd60e51b8152602060048201526015602482015274105b1b081d1bdad95b9cc8185c99481b5a5b9d1959605a1b6044820152606401610b61565b3482600f5461113b9190612415565b1461117d5760405162461bcd60e51b8152602060048201526012602482015271496e73756666696369656e742066756e647360701b6044820152606401610b61565b6111873383611897565b61118f6119b8565b50610a496001600c55565b801515905081601c52670a5a2e7a0000000060085233600052806030600c2055806000528160601b60601c337f17307eab39ab6107e8899845ad3d59bd9653f200f220920489ca2b5937696c3160206000a35050565b6111fb858585610914565b833b156112445761124485858585858080601f0160208091040260200160405190810160405280939291908181526020018383808284376000920191909152506116f792505050565b5050505050565b600e8054610fb8906123b2565b6060611280826000818152673ec412a9852d173d60c11b601c52602090208101015460601b90565b6112e45760405162461bcd60e51b815260206004820152602f60248201527f4552433732314d657461646174613a2055524920717565727920666f72206e6f60448201526e3732bc34b9ba32b73a103a37b5b2b760891b6064820152608401610b61565b60006112ee611a1d565b9050600081511161130e576040518060200160405280600081525061133c565b8061131884611a2c565b600e60405160200161132c93929190612596565b6040516020818303038152906040525b9392505050565b61134b61145c565b600e6108db82826124c3565b600060c061138083673ec412a9852d173d60c11b601c908152600091909152600c205460201c90565b6001600160e01b0316901c92915050565b60606040518060800160405280605981526020016126a560599139905090565b6113b961145c565b6001600160a01b03811661141e5760405162461bcd60e51b815260206004820152602660248201527f4f776e61626c653a206e6577206f776e657220697320746865207a65726f206160448201526564647265737360d01b6064820152608401610b61565b610a4981611845565b60006001600160e01b0319821663152a902d60e11b14806107da57506301ffc9a760e01b6001600160e01b03198316146107da565b600b546001600160a01b03163314610cb05760405162461bcd60e51b815260206004820181905260248201527f4f776e61626c653a2063616c6c6572206973206e6f7420746865206f776e65726044820152606401610b61565b60001960601c828116925083811693508160005283673ec412a9852d173d60c11b17601c52602060002082018201805482169150816114fd5763ceea21b66000526004601cfd5b81851485151761152357816000526030600c205461152357634b6e7f186000526004601cfd5b6001018390558183827f8c5be1e5ebec7d5bd14f71427d1e84f3dd0314c0f7b2291e5b200ac8c7c3b925600080a450505050565b60018111156115c65760405162461bcd60e51b815260206004820152603560248201527f455243373231456e756d657261626c653a20636f6e7365637574697665207472604482015274185b9cd9995c9cc81b9bdd081cdd5c1c1bdc9d1959605a1b6064820152608401610b61565b816001600160a01b0385166116225761161d81600280546000838152600360205260408120829055600182018355919091527f405787fa12a823e0f2b7631cc41b3ba8828b3321ca811111fa75cd3aa3bb5ace0155565b611645565b836001600160a01b0316856001600160a01b031614611645576116458582611abf565b6001600160a01b0384166116615761165c81611b59565b611244565b846001600160a01b0316846001600160a01b031614611244576112448482611c08565b61168d81611c4a565b600090815260056020526040812055565b6002600c54036116f05760405162461bcd60e51b815260206004820152601f60248201527f5265656e7472616e637947756172643a207265656e7472616e742063616c6c006044820152606401610b61565b6002600c55565b60405163150b7a028082523360208301528560601b60601c604083015283606083015260808083015282518060a0840152801561173e578060c08401826020870160045afa505b60208360a48301601c860160008a5af1611767573d15611762573d6000803e3d6000fd5b600083525b508060e01b8251146117815763d1a57ed66000526004601cfd5b505050505050565b611797600083836001611557565b6001600160a01b0390911690816117b65763ea553b346000526004601cfd5b80600052673ec412a9852d173d60c11b601c5260206000208101810180548060601b156117eb5763c991cbb16000526004601cfd5b831790556000829052601c600c20805460010163ffffffff8116611817576301336cea6000526004601cfd5b9055808260007fddf252ad1be2c89b69c2b068fc378daa952ba7f163c4a11628f55a4df523b3ef8180a45050565b600b80546001600160a01b038381166001600160a01b0319831681179093556040519116919082907f8be0079c531659141344cd1fd0a4f28419497f9722a3daafe3b4186f6b6457e090600090a35050565b3332146118b75760405163d9d552c960e01b815260040160405180910390fd5b806000036118d857604051634600cfe960e01b815260040160405180910390fd5b80600a5410156118fb57604051637775abdd60e01b815260040160405180910390fd5b6040805160208082018352428284015244606080840191909152835180840390910181526080830190935282519201919091208152600a5460005b838110156119a557600061194a8484611c55565b905060006119588285611c73565b90506119648782611789565b60085461198d9084906001600160a01b03811690600160a01b90046001600160601b0316611cf4565b61199684612653565b93508260010192505050611936565b506119b08484611e02565b600a55505050565b60125460405160009161010090046001600160a01b03169047908381818185875af1925050503d8060008114611a0a576040519150601f19603f3d011682016040523d82523d6000602084013e611a0f565b606091505b5050905080610a4957600080fd5b6060600d805461080a906123b2565b60606000611a3983611e7c565b600101905060008167ffffffffffffffff811115611a5957611a596121f3565b6040519080825280601f01601f191660200182016040528015611a83576020820181803683370190505b5090508181016020015b600019016f181899199a1a9b1b9c1cb0b131b232b360811b600a86061a8153600a8504945084611a8d57509392505050565b60006001611acc84611039565b611ad69190612402565b600083815260016020526040902054909150808214611b27576001600160a01b0384166000908152602081815260408083208584528252808320548484528184208190558352600190915290208190555b5060009182526001602090815260408084208490556001600160a01b0390941683528281528383209183525290812055565b600254600090611b6b90600190612402565b60008381526003602052604081205460028054939450909284908110611b9357611b9361244e565b906000526020600020015490508060028381548110611bb457611bb461244e565b6000918252602080832090910192909255828152600390915260408082208490558582528120556002805480611bec57611bec61266a565b6001900381819060005260206000200160009055905550505050565b6000611c1383611039565b6001600160a01b03909316600090815260208181526040808320868452825280832085905593825260019052919091209190915550565b610a49600082611f54565b60005b6020832090508083528182600003068110611c585706919050565b60008281526009602052604081205481611c8e600185612402565b6000818152600960205260409020549091508215611cac5782611cae565b855b9350818614611cd5578015611cc35780611cc5565b815b6000878152600960205260409020555b8015611ceb576000828152600960205260408120555b50505092915050565b6127106001600160601b0382161115611d625760405162461bcd60e51b815260206004820152602a60248201527f455243323938313a20726f79616c7479206665652077696c6c206578636565646044820152692073616c65507269636560b01b6064820152608401610b61565b6001600160a01b038216611db85760405162461bcd60e51b815260206004820152601b60248201527f455243323938313a20496e76616c696420706172616d657465727300000000006044820152606401610b61565b6040805180820182526001600160a01b0393841681526001600160601b0392831660208083019182526000968752600590529190942093519051909116600160a01b029116179055565b6000611e0d83611357565b90506000611e1b8383612680565b90506000611e4485673ec412a9852d173d60c11b601c908152600091909152600c205460201c90565b673ec412a9852d173d60c11b601c9081526000879052600c208054602081811c67ffffffffffffffff851618901b1890559050611244565b60008072184f03e93ff9f4daa797ed6e38ed64bf6a1f0160401b8310611ebb5772184f03e93ff9f4daa797ed6e38ed64bf6a1f0160401b830492506040015b6d04ee2d6d415b85acef81000000008310611ee7576d04ee2d6d415b85acef8100000000830492506020015b662386f26fc100008310611f0557662386f26fc10000830492506010015b6305f5e1008310611f1d576305f5e100830492506008015b6127108310611f3157612710830492506004015b60648310611f43576064830492506002015b600a83106107da5760010192915050565b6000611f5f82610f60565b9050611f6f816000846001611557565b5060008181526001600160a01b03928316673ec412a9852d173d60c11b8117601c526020909120820182018054919382169182611fb45763ceea21b66000526004601cfd5b82600052816001015480861484871417861517611fe3576030600c2054611fe357634b6e7f186000526004601cfd5b8015611ff157600083600101555b5082189055601c600c208054600019019055816000827fddf252ad1be2c89b69c2b068fc378daa952ba7f163c4a11628f55a4df523b3ef8280a4505050565b60006020828403121561204257600080fd5b81356001600160e01b03198116811461133c57600080fd5b80358015158114610f9957600080fd5b60006020828403121561207c57600080fd5b61133c8261205a565b60005b838110156120a0578181015183820152602001612088565b50506000910152565b60208152600082518060208401526120c8816040850160208701612085565b601f01601f19169190910160400192915050565b6000602082840312156120ee57600080fd5b5035919050565b80356001600160a01b0381168114610f9957600080fd5b6000806040838503121561211f57600080fd5b612128836120f5565b946020939093013593505050565b60008060006060848603121561214b57600080fd5b612154846120f5565b9250612162602085016120f5565b9150604084013590509250925092565b6000806040838503121561218557600080fd5b50508035926020909101359150565b6000602082840312156121a657600080fd5b61133c826120f5565b6020808252825182820181905260009190848201906040850190845b818110156121e7578351835292840192918401916001016121cb565b50909695505050505050565b634e487b7160e01b600052604160045260246000fd5b60006020828403121561221b57600080fd5b813567ffffffffffffffff8082111561223357600080fd5b818401915084601f83011261224757600080fd5b813581811115612259576122596121f3565b604051601f8201601f19908116603f01168101908382118183101715612281576122816121f3565b8160405282815287602084870101111561229a57600080fd5b826020860160208301376000928101602001929092525095945050505050565b600080604083850312156122cd57600080fd5b6122d6836120f5565b91506122e46020840161205a565b90509250929050565b60008060008060006080868803121561230557600080fd5b61230e866120f5565b945061231c602087016120f5565b935060408601359250606086013567ffffffffffffffff8082111561234057600080fd5b818801915088601f83011261235457600080fd5b81358181111561236357600080fd5b89602082850101111561237557600080fd5b9699959850939650602001949392505050565b6000806040838503121561239b57600080fd5b6123a4836120f5565b91506122e4602084016120f5565b600181811c908216806123c657607f821691505b6020821081036123e657634e487b7160e01b600052602260045260246000fd5b50919050565b634e487b7160e01b600052601160045260246000fd5b818103818111156107da576107da6123ec565b80820281158282048414176107da576107da6123ec565b60008261244957634e487b7160e01b600052601260045260246000fd5b500490565b634e487b7160e01b600052603260045260246000fd5b600060018201612476576124766123ec565b5060010190565b601f821115610a3357600081815260208120601f850160051c810160208610156124a45750805b601f850160051c820191505b81811015611781578281556001016124b0565b815167ffffffffffffffff8111156124dd576124dd6121f3565b6124f1816124eb84546123b2565b8461247d565b602080601f831160018114612526576000841561250e5750858301515b600019600386901b1c1916600185901b178555611781565b600085815260208120601f198616915b8281101561255557888601518255948401946001909101908401612536565b50858210156125735787850151600019600388901b60f8161c191681555b5050505050600190811b01905550565b808201808211156107da576107da6123ec565b6000845160206125a98285838a01612085565b8184019150680486f6f6469652532360bc1b8252600986516125d081838601858b01612085565b86549301926000906125e1816123b2565b600182811680156125f9576001811461261257612642565b60ff198416888701528215158302880186019450612642565b8a6000528660002060005b848110156126385781548a820189015290830190880161261d565b5050858389010194505b50929b9a5050505050505050505050565b600081612662576126626123ec565b506000190190565b634e487b7160e01b600052603160045260246000fd5b63ffffffff81811683821601908082111561269d5761269d6123ec565b509291505056fe68747470733a2f2f6261666b726569676864716374676f626f7434776468726e72767164767633617868766669736c6c63357235356d32616a7777677667766e3773712e697066732e6e667473746f726167652e6c696e6b2fa2646970667358221220d0db30eef3e35550a8fe3281bb0b80d35ed342691fa144132f096ecfdb86326f64736f6c63430008120033","opcodes":"PUSH22 0x1F48624523C8AE280EBDF7F720332CDA62620FE1DAD PUSH1 0x8 SSTORE PUSH1 0xE0 PUSH1 0x40 MSTORE PUSH1 0x5 PUSH1 0xA0 SWAP1 DUP2 MSTORE PUSH5 0x173539B7B7 PUSH1 0xD9 SHL PUSH1 0xC0 MSTORE PUSH1 0xE SWAP1 PUSH3 0x40 SWAP1 DUP3 PUSH3 0x29D JUMP JUMPDEST POP PUSH7 0x470DE4DF820000 PUSH1 0xF SSTORE PUSH1 0x0 PUSH1 0x10 DUP2 SWAP1 SSTORE PUSH1 0x11 SSTORE PUSH1 0x12 DUP1 SLOAD PUSH1 0x1 PUSH1 0x1 PUSH1 0xA8 SHL SUB NOT AND PUSH21 0x3B715D4F5219510C7F77DB4388EBC0A1436B843000 OR SWAP1 SSTORE CALLVALUE DUP1 ISZERO PUSH3 0x8A JUMPI PUSH1 0x0 DUP1 REVERT JUMPDEST POP PUSH1 0x40 MLOAD PUSH3 0x2B9B CODESIZE SUB DUP1 PUSH3 0x2B9B DUP4 CODECOPY DUP2 ADD PUSH1 0x40 DUP2 SWAP1 MSTORE PUSH3 0xAD SWAP2 PUSH3 0x369 JUMP JUMPDEST PUSH1 0x40 DUP1 MLOAD DUP1 DUP3 ADD DUP3 MSTORE PUSH1 0x4 DUP1 DUP3 MSTORE PUSH4 0x25A92BA7 PUSH1 0xE1 SHL PUSH1 0x20 DUP1 DUP5 ADD DUP3 SWAP1 MSTORE DUP5 MLOAD DUP1 DUP7 ADD SWAP1 SWAP6 MSTORE SWAP2 DUP5 MSTORE SWAP1 DUP4 ADD MSTORE SWAP1 PUSH2 0x22BB PUSH1 0x6 PUSH3 0xEC DUP5 DUP3 PUSH3 0x29D JUMP JUMPDEST POP PUSH1 0x7 PUSH3 0xFB DUP4 DUP3 PUSH3 0x29D JUMP JUMPDEST POP PUSH1 0x80 DUP2 SWAP1 MSTORE PUSH1 0xA SSTORE POP PUSH3 0x112 SWAP1 POP CALLER PUSH3 0x129 JUMP JUMPDEST PUSH1 0x1 PUSH1 0xC SSTORE PUSH3 0x122 DUP2 PUSH3 0x17B JUMP JUMPDEST POP PUSH3 0x43E JUMP JUMPDEST PUSH1 0xB DUP1 SLOAD PUSH1 0x1 PUSH1 0x1 PUSH1 0xA0 SHL SUB DUP4 DUP2 AND PUSH1 0x1 PUSH1 0x1 PUSH1 0xA0 SHL SUB NOT DUP4 AND DUP2 OR SWAP1 SWAP4 SSTORE PUSH1 0x40 MLOAD SWAP2 AND SWAP2 SWAP1 DUP3 SWAP1 PUSH32 0x8BE0079C531659141344CD1FD0A4F28419497F9722A3DAAFE3B4186F6B6457E0 SWAP1 PUSH1 0x0 SWAP1 LOG3 POP POP JUMP JUMPDEST PUSH3 0x185 PUSH3 0x197 JUMP JUMPDEST PUSH1 0xD PUSH3 0x193 DUP3 DUP3 PUSH3 0x29D JUMP JUMPDEST POP POP JUMP JUMPDEST PUSH1 0xB SLOAD PUSH1 0x1 PUSH1 0x1 PUSH1 0xA0 SHL SUB AND CALLER EQ PUSH3 0x1F6 JUMPI PUSH1 0x40 MLOAD PUSH3 0x461BCD PUSH1 0xE5 SHL DUP2 MSTORE PUSH1 0x20 PUSH1 0x4 DUP3 ADD DUP2 SWAP1 MSTORE PUSH1 0x24 DUP3 ADD MSTORE PUSH32 0x4F776E61626C653A2063616C6C6572206973206E6F7420746865206F776E6572 PUSH1 0x44 DUP3 ADD MSTORE PUSH1 0x64 ADD PUSH1 0x40 MLOAD DUP1 SWAP2 SUB SWAP1 REVERT JUMPDEST JUMP JUMPDEST PUSH4 0x4E487B71 PUSH1 0xE0 SHL PUSH1 0x0 MSTORE PUSH1 0x41 PUSH1 0x4 MSTORE PUSH1 0x24 PUSH1 0x0 REVERT JUMPDEST PUSH1 0x1 DUP2 DUP2 SHR SWAP1 DUP3 AND DUP1 PUSH3 0x223 JUMPI PUSH1 0x7F DUP3 AND SWAP2 POP JUMPDEST PUSH1 0x20 DUP3 LT DUP2 SUB PUSH3 0x244 JUMPI PUSH4 0x4E487B71 PUSH1 0xE0 SHL PUSH1 0x0 MSTORE PUSH1 0x22 PUSH1 0x4 MSTORE PUSH1 0x24 PUSH1 0x0 REVERT JUMPDEST POP SWAP2 SWAP1 POP JUMP JUMPDEST PUSH1 0x1F DUP3 GT ISZERO PUSH3 0x298 JUMPI PUSH1 0x0 DUP2 DUP2 MSTORE PUSH1 0x20 DUP2 KECCAK256 PUSH1 0x1F DUP6 ADD PUSH1 0x5 SHR DUP2 ADD PUSH1 0x20 DUP7 LT ISZERO PUSH3 0x273 JUMPI POP DUP1 JUMPDEST PUSH1 0x1F DUP6 ADD PUSH1 0x5 SHR DUP3 ADD SWAP2 POP JUMPDEST DUP2 DUP2 LT ISZERO PUSH3 0x294 JUMPI DUP3 DUP2 SSTORE PUSH1 0x1 ADD PUSH3 0x27F JUMP JUMPDEST POP POP POP JUMPDEST POP POP POP JUMP JUMPDEST DUP2 MLOAD PUSH1 0x1 PUSH1 0x1 PUSH1 0x40 SHL SUB DUP2 GT ISZERO PUSH3 0x2B9 JUMPI PUSH3 0x2B9 PUSH3 0x1F8 JUMP JUMPDEST PUSH3 0x2D1 DUP2 PUSH3 0x2CA DUP5 SLOAD PUSH3 0x20E JUMP JUMPDEST DUP5 PUSH3 0x24A JUMP JUMPDEST PUSH1 0x20 DUP1 PUSH1 0x1F DUP4 GT PUSH1 0x1 DUP2 EQ PUSH3 0x309 JUMPI PUSH1 0x0 DUP5 ISZERO PUSH3 0x2F0 JUMPI POP DUP6 DUP4 ADD MLOAD JUMPDEST PUSH1 0x0 NOT PUSH1 0x3 DUP7 SWAP1 SHL SHR NOT AND PUSH1 0x1 DUP6 SWAP1 SHL OR DUP6 SSTORE PUSH3 0x294 JUMP JUMPDEST PUSH1 0x0 DUP6 DUP2 MSTORE PUSH1 0x20 DUP2 KECCAK256 PUSH1 0x1F NOT DUP7 AND SWAP2 JUMPDEST DUP3 DUP2 LT ISZERO PUSH3 0x33A JUMPI DUP9 DUP7 ADD MLOAD DUP3 SSTORE SWAP5 DUP5 ADD SWAP5 PUSH1 0x1 SWAP1 SWAP2 ADD SWAP1 DUP5 ADD PUSH3 0x319 JUMP JUMPDEST POP DUP6 DUP3 LT ISZERO PUSH3 0x359 JUMPI DUP8 DUP6 ADD MLOAD PUSH1 0x0 NOT PUSH1 0x3 DUP9 SWAP1 SHL PUSH1 0xF8 AND SHR NOT AND DUP2 SSTORE JUMPDEST POP POP POP POP POP PUSH1 0x1 SWAP1 DUP2 SHL ADD SWAP1 SSTORE POP JUMP JUMPDEST PUSH1 0x0 PUSH1 0x20 DUP1 DUP4 DUP6 SUB SLT ISZERO PUSH3 0x37D JUMPI PUSH1 0x0 DUP1 REVERT JUMPDEST DUP3 MLOAD PUSH1 0x1 PUSH1 0x1 PUSH1 0x40 SHL SUB DUP1 DUP3 GT ISZERO PUSH3 0x395 JUMPI PUSH1 0x0 DUP1 REVERT JUMPDEST DUP2 DUP6 ADD SWAP2 POP DUP6 PUSH1 0x1F DUP4 ADD SLT PUSH3 0x3AA JUMPI PUSH1 0x0 DUP1 REVERT JUMPDEST DUP2 MLOAD DUP2 DUP2 GT ISZERO PUSH3 0x3BF JUMPI PUSH3 0x3BF PUSH3 0x1F8 JUMP JUMPDEST PUSH1 0x40 MLOAD PUSH1 0x1F DUP3 ADD PUSH1 0x1F NOT SWAP1 DUP2 AND PUSH1 0x3F ADD AND DUP2 ADD SWAP1 DUP4 DUP3 GT DUP2 DUP4 LT OR ISZERO PUSH3 0x3EA JUMPI PUSH3 0x3EA PUSH3 0x1F8 JUMP JUMPDEST DUP2 PUSH1 0x40 MSTORE DUP3 DUP2 MSTORE DUP9 DUP7 DUP5 DUP8 ADD ADD GT ISZERO PUSH3 0x403 JUMPI PUSH1 0x0 DUP1 REVERT JUMPDEST PUSH1 0x0 SWAP4 POP JUMPDEST DUP3 DUP5 LT ISZERO PUSH3 0x427 JUMPI DUP5 DUP5 ADD DUP7 ADD MLOAD DUP2 DUP6 ADD DUP8 ADD MSTORE SWAP3 DUP6 ADD SWAP3 PUSH3 0x408 JUMP JUMPDEST PUSH1 0x0 DUP7 DUP5 DUP4 ADD ADD MSTORE DUP1 SWAP7 POP POP POP POP POP POP POP SWAP3 SWAP2 POP POP JUMP JUMPDEST PUSH1 0x80 MLOAD PUSH2 0x2733 PUSH3 0x468 PUSH1 0x0 CODECOPY PUSH1 0x0 DUP2 DUP2 PUSH2 0x698 ADD MSTORE DUP2 DUP2 PUSH2 0x8E6 ADD MSTORE PUSH2 0x10BC ADD MSTORE PUSH2 0x2733 PUSH1 0x0 RETURN INVALID PUSH1 0x80 PUSH1 0x40 MSTORE PUSH1 0x4 CALLDATASIZE LT PUSH2 0x25C JUMPI PUSH1 0x0 CALLDATALOAD PUSH1 0xE0 SHR DUP1 PUSH4 0x6352211E GT PUSH2 0x144 JUMPI DUP1 PUSH4 0xB88D4FDE GT PUSH2 0xB6 JUMPI DUP1 PUSH4 0xDA3EF23F GT PUSH2 0x7A JUMPI DUP1 PUSH4 0xDA3EF23F EQ PUSH2 0x6D0 JUMPI DUP1 PUSH4 0xDC33E681 EQ PUSH2 0x6F0 JUMPI DUP1 PUSH4 0xDDCA3F43 EQ PUSH2 0x725 JUMPI DUP1 PUSH4 0xE8A3D485 EQ PUSH2 0x764 JUMPI DUP1 PUSH4 0xE985E9C5 EQ PUSH2 0x779 JUMPI DUP1 PUSH4 0xF2FDE38B EQ PUSH2 0x7AF JUMPI PUSH1 0x0 DUP1 REVERT JUMPDEST DUP1 PUSH4 0xB88D4FDE EQ PUSH2 0x63E JUMPI DUP1 PUSH4 0xC6682862 EQ PUSH2 0x651 JUMPI DUP1 PUSH4 0xC87B56DD EQ PUSH2 0x666 JUMPI DUP1 PUSH4 0xD5ABEB01 EQ PUSH2 0x686 JUMPI DUP1 PUSH4 0xDA0239A6 EQ PUSH2 0x6BA JUMPI PUSH1 0x0 DUP1 REVERT JUMPDEST DUP1 PUSH4 0x8DA5CB5B GT PUSH2 0x108 JUMPI DUP1 PUSH4 0x8DA5CB5B EQ PUSH2 0x5A2 JUMPI DUP1 PUSH4 0x95D89B41 EQ PUSH2 0x5C0 JUMPI DUP1 PUSH4 0x9FBC8713 EQ PUSH2 0x5D5 JUMPI DUP1 PUSH4 0xA035B1FE EQ PUSH2 0x5F5 JUMPI DUP1 PUSH4 0xA0712D68 EQ PUSH2 0x60B JUMPI DUP1 PUSH4 0xA22CB465 EQ PUSH2 0x61E JUMPI PUSH1 0x0 DUP1 REVERT JUMPDEST DUP1 PUSH4 0x6352211E EQ PUSH2 0x518 JUMPI DUP1 PUSH4 0x6A61E5FC EQ PUSH2 0x538 JUMPI DUP1 PUSH4 0x6C0360EB EQ PUSH2 0x558 JUMPI DUP1 PUSH4 0x70A08231 EQ PUSH2 0x56D JUMPI DUP1 PUSH4 0x715018A6 EQ PUSH2 0x58D JUMPI PUSH1 0x0 DUP1 REVERT JUMPDEST DUP1 PUSH4 0x2F745C59 GT PUSH2 0x1DD JUMPI DUP1 PUSH4 0x4F558E79 GT PUSH2 0x1A1 JUMPI DUP1 PUSH4 0x4F558E79 EQ PUSH2 0x469 JUMPI DUP1 PUSH4 0x4F6CCCE7 EQ PUSH2 0x489 JUMPI DUP1 PUSH4 0x55F804B3 EQ PUSH2 0x4A9 JUMPI DUP1 PUSH4 0x599EBACF EQ PUSH2 0x4C9 JUMPI DUP1 PUSH4 0x5C975ABB EQ PUSH2 0x4E9 JUMPI DUP1 PUSH4 0x6237023E EQ PUSH2 0x503 JUMPI PUSH1 0x0 DUP1 REVERT JUMPDEST DUP1 PUSH4 0x2F745C59 EQ PUSH2 0x3DF JUMPI DUP1 PUSH4 0x34784A51 EQ PUSH2 0x3FF JUMPI DUP1 PUSH4 0x42842E0E EQ PUSH2 0x414 JUMPI DUP1 PUSH4 0x438B6300 EQ PUSH2 0x427 JUMPI DUP1 PUSH4 0x4B94F50E EQ PUSH2 0x454 JUMPI PUSH1 0x0 DUP1 REVERT JUMPDEST DUP1 PUSH4 0x1581B600 GT PUSH2 0x224 JUMPI DUP1 PUSH4 0x1581B600 EQ PUSH2 0x325 JUMPI DUP1 PUSH4 0x18160DDD EQ PUSH2 0x34A JUMPI DUP1 PUSH4 0x23B872DD EQ PUSH2 0x36D JUMPI DUP1 PUSH4 0x2890E0D7 EQ PUSH2 0x380 JUMPI DUP1 PUSH4 0x2A55205A EQ PUSH2 0x3A0 JUMPI PUSH1 0x0 DUP1 REVERT JUMPDEST DUP1 PUSH4 0x1FFC9A7 EQ PUSH2 0x261 JUMPI DUP1 PUSH4 0x2329A29 EQ PUSH2 0x296 JUMPI DUP1 PUSH4 0x6FDDE03 EQ PUSH2 0x2B8 JUMPI DUP1 PUSH4 0x81812FC EQ PUSH2 0x2DA JUMPI DUP1 PUSH4 0x95EA7B3 EQ PUSH2 0x312 JUMPI JUMPDEST PUSH1 0x0 DUP1 REVERT JUMPDEST CALLVALUE DUP1 ISZERO PUSH2 0x26D JUMPI PUSH1 0x0 DUP1 REVERT JUMPDEST POP PUSH2 0x281 PUSH2 0x27C CALLDATASIZE PUSH1 0x4 PUSH2 0x2030 JUMP JUMPDEST PUSH2 0x7CF JUMP JUMPDEST PUSH1 0x40 MLOAD SWAP1 ISZERO ISZERO DUP2 MSTORE PUSH1 0x20 ADD JUMPDEST PUSH1 0x40 MLOAD DUP1 SWAP2 SUB SWAP1 RETURN JUMPDEST CALLVALUE DUP1 ISZERO PUSH2 0x2A2 JUMPI PUSH1 0x0 DUP1 REVERT JUMPDEST POP PUSH2 0x2B6 PUSH2 0x2B1 CALLDATASIZE PUSH1 0x4 PUSH2 0x206A JUMP JUMPDEST PUSH2 0x7E0 JUMP JUMPDEST STOP JUMPDEST CALLVALUE DUP1 ISZERO PUSH2 0x2C4 JUMPI PUSH1 0x0 DUP1 REVERT JUMPDEST POP PUSH2 0x2CD PUSH2 0x7FB JUMP JUMPDEST PUSH1 0x40 MLOAD PUSH2 0x28D SWAP2 SWAP1 PUSH2 0x20A9 JUMP JUMPDEST CALLVALUE DUP1 ISZERO PUSH2 0x2E6 JUMPI PUSH1 0x0 DUP1 REVERT JUMPDEST POP PUSH2 0x2FA PUSH2 0x2F5 CALLDATASIZE PUSH1 0x4 PUSH2 0x20DC JUMP JUMPDEST PUSH2 0x88D JUMP JUMPDEST PUSH1 0x40 MLOAD PUSH1 0x1 PUSH1 0x1 PUSH1 0xA0 SHL SUB SWAP1 SWAP2 AND DUP2 MSTORE PUSH1 0x20 ADD PUSH2 0x28D JUMP JUMPDEST PUSH2 0x2B6 PUSH2 0x320 CALLDATASIZE PUSH1 0x4 PUSH2 0x210C JUMP JUMPDEST PUSH2 0x8D0 JUMP JUMPDEST CALLVALUE DUP1 ISZERO PUSH2 0x331 JUMPI PUSH1 0x0 DUP1 REVERT JUMPDEST POP PUSH1 0x12 SLOAD PUSH2 0x2FA SWAP1 PUSH2 0x100 SWAP1 DIV PUSH1 0x1 PUSH1 0x1 PUSH1 0xA0 SHL SUB AND DUP2 JUMP JUMPDEST CALLVALUE DUP1 ISZERO PUSH2 0x356 JUMPI PUSH1 0x0 DUP1 REVERT JUMPDEST POP PUSH2 0x35F PUSH2 0x8DF JUMP JUMPDEST PUSH1 0x40 MLOAD SWAP1 DUP2 MSTORE PUSH1 0x20 ADD PUSH2 0x28D JUMP JUMPDEST PUSH2 0x2B6 PUSH2 0x37B CALLDATASIZE PUSH1 0x4 PUSH2 0x2136 JUMP JUMPDEST PUSH2 0x914 JUMP JUMPDEST CALLVALUE DUP1 ISZERO PUSH2 0x38C JUMPI PUSH1 0x0 DUP1 REVERT JUMPDEST POP PUSH2 0x2B6 PUSH2 0x39B CALLDATASIZE PUSH1 0x4 PUSH2 0x20DC JUMP JUMPDEST PUSH2 0xA38 JUMP JUMPDEST CALLVALUE DUP1 ISZERO PUSH2 0x3AC JUMPI PUSH1 0x0 DUP1 REVERT JUMPDEST POP PUSH2 0x3C0 PUSH2 0x3BB CALLDATASIZE PUSH1 0x4 PUSH2 0x2172 JUMP JUMPDEST PUSH2 0xA4C JUMP JUMPDEST PUSH1 0x40 DUP1 MLOAD PUSH1 0x1 PUSH1 0x1 PUSH1 0xA0 SHL SUB SWAP1 SWAP4 AND DUP4 MSTORE PUSH1 0x20 DUP4 ADD SWAP2 SWAP1 SWAP2 MSTORE ADD PUSH2 0x28D JUMP JUMPDEST CALLVALUE DUP1 ISZERO PUSH2 0x3EB JUMPI PUSH1 0x0 DUP1 REVERT JUMPDEST POP PUSH2 0x35F PUSH2 0x3FA CALLDATASIZE PUSH1 0x4 PUSH2 0x210C JUMP JUMPDEST PUSH2 0xAF8 JUMP JUMPDEST CALLVALUE DUP1 ISZERO PUSH2 0x40B JUMPI PUSH1 0x0 DUP1 REVERT JUMPDEST POP PUSH2 0x2B6 PUSH2 0xB91 JUMP JUMPDEST PUSH2 0x2B6 PUSH2 0x422 CALLDATASIZE PUSH1 0x4 PUSH2 0x2136 JUMP JUMPDEST PUSH2 0xCB2 JUMP JUMPDEST CALLVALUE DUP1 ISZERO PUSH2 0x433 JUMPI PUSH1 0x0 DUP1 REVERT JUMPDEST POP PUSH2 0x447 PUSH2 0x442 CALLDATASIZE PUSH1 0x4 PUSH2 0x2194 JUMP JUMPDEST PUSH2 0xCDF JUMP JUMPDEST PUSH1 0x40 MLOAD PUSH2 0x28D SWAP2 SWAP1 PUSH2 0x21AF JUMP JUMPDEST CALLVALUE DUP1 ISZERO PUSH2 0x460 JUMPI PUSH1 0x0 DUP1 REVERT JUMPDEST POP PUSH1 0xF SLOAD PUSH2 0x35F JUMP JUMPDEST CALLVALUE DUP1 ISZERO PUSH2 0x475 JUMPI PUSH1 0x0 DUP1 REVERT JUMPDEST POP PUSH2 0x281 PUSH2 0x484 CALLDATASIZE PUSH1 0x4 PUSH2 0x20DC JUMP JUMPDEST PUSH2 0xD81 JUMP JUMPDEST CALLVALUE DUP1 ISZERO PUSH2 0x495 JUMPI PUSH1 0x0 DUP1 REVERT JUMPDEST POP PUSH2 0x35F PUSH2 0x4A4 CALLDATASIZE PUSH1 0x4 PUSH2 0x20DC JUMP JUMPDEST PUSH2 0xDA6 JUMP JUMPDEST CALLVALUE DUP1 ISZERO PUSH2 0x4B5 JUMPI PUSH1 0x0 DUP1 REVERT JUMPDEST POP PUSH2 0x2B6 PUSH2 0x4C4 CALLDATASIZE PUSH1 0x4 PUSH2 0x2209 JUMP JUMPDEST PUSH2 0xE39 JUMP JUMPDEST CALLVALUE DUP1 ISZERO PUSH2 0x4D5 JUMPI PUSH1 0x0 DUP1 REVERT JUMPDEST POP PUSH2 0x2B6 PUSH2 0x4E4 CALLDATASIZE PUSH1 0x4 PUSH2 0x210C JUMP JUMPDEST PUSH2 0xE4D JUMP JUMPDEST CALLVALUE DUP1 ISZERO PUSH2 0x4F5 JUMPI PUSH1 0x0 DUP1 REVERT JUMPDEST POP PUSH1 0x12 SLOAD PUSH2 0x281 SWAP1 PUSH1 0xFF AND DUP2 JUMP JUMPDEST CALLVALUE DUP1 ISZERO PUSH2 0x50F JUMPI PUSH1 0x0 DUP1 REVERT JUMPDEST POP PUSH2 0x2B6 PUSH2 0xE5F JUMP JUMPDEST CALLVALUE DUP1 ISZERO PUSH2 0x524 JUMPI PUSH1 0x0 DUP1 REVERT JUMPDEST POP PUSH2 0x2FA PUSH2 0x533 CALLDATASIZE PUSH1 0x4 PUSH2 0x20DC JUMP JUMPDEST PUSH2 0xF60 JUMP JUMPDEST CALLVALUE DUP1 ISZERO PUSH2 0x544 JUMPI PUSH1 0x0 DUP1 REVERT JUMPDEST POP PUSH2 0x2B6 PUSH2 0x553 CALLDATASIZE PUSH1 0x4 PUSH2 0x20DC JUMP JUMPDEST PUSH2 0xF9E JUMP JUMPDEST CALLVALUE DUP1 ISZERO PUSH2 0x564 JUMPI PUSH1 0x0 DUP1 REVERT JUMPDEST POP PUSH2 0x2CD PUSH2 0xFAB JUMP JUMPDEST CALLVALUE DUP1 ISZERO PUSH2 0x579 JUMPI PUSH1 0x0 DUP1 REVERT JUMPDEST POP PUSH2 0x35F PUSH2 0x588 CALLDATASIZE PUSH1 0x4 PUSH2 0x2194 JUMP JUMPDEST PUSH2 0x1039 JUMP JUMPDEST CALLVALUE DUP1 ISZERO PUSH2 0x599 JUMPI PUSH1 0x0 DUP1 REVERT JUMPDEST POP PUSH2 0x2B6 PUSH2 0x1074 JUMP JUMPDEST CALLVALUE DUP1 ISZERO PUSH2 0x5AE JUMPI PUSH1 0x0 DUP1 REVERT JUMPDEST POP PUSH1 0xB SLOAD PUSH1 0x1 PUSH1 0x1 PUSH1 0xA0 SHL SUB AND PUSH2 0x2FA JUMP JUMPDEST CALLVALUE DUP1 ISZERO PUSH2 0x5CC JUMPI PUSH1 0x0 DUP1 REVERT JUMPDEST POP PUSH2 0x2CD PUSH2 0x1086 JUMP JUMPDEST CALLVALUE DUP1 ISZERO PUSH2 0x5E1 JUMPI PUSH1 0x0 DUP1 REVERT JUMPDEST POP PUSH1 0x8 SLOAD PUSH2 0x2FA SWAP1 PUSH1 0x1 PUSH1 0x1 PUSH1 0xA0 SHL SUB AND DUP2 JUMP JUMPDEST CALLVALUE DUP1 ISZERO PUSH2 0x601 JUMPI PUSH1 0x0 DUP1 REVERT JUMPDEST POP PUSH2 0x35F PUSH1 0xF SLOAD DUP2 JUMP JUMPDEST PUSH2 0x2B6 PUSH2 0x619 CALLDATASIZE PUSH1 0x4 PUSH2 0x20DC JUMP JUMPDEST PUSH2 0x1095 JUMP JUMPDEST CALLVALUE DUP1 ISZERO PUSH2 0x62A JUMPI PUSH1 0x0 DUP1 REVERT JUMPDEST POP PUSH2 0x2B6 PUSH2 0x639 CALLDATASIZE PUSH1 0x4 PUSH2 0x22BA JUMP JUMPDEST PUSH2 0x119A JUMP JUMPDEST PUSH2 0x2B6 PUSH2 0x64C CALLDATASIZE PUSH1 0x4 PUSH2 0x22ED JUMP JUMPDEST PUSH2 0x11F0 JUMP JUMPDEST CALLVALUE DUP1 ISZERO PUSH2 0x65D JUMPI PUSH1 0x0 DUP1 REVERT JUMPDEST POP PUSH2 0x2CD PUSH2 0x124B JUMP JUMPDEST CALLVALUE DUP1 ISZERO PUSH2 0x672 JUMPI PUSH1 0x0 DUP1 REVERT JUMPDEST POP PUSH2 0x2CD PUSH2 0x681 CALLDATASIZE PUSH1 0x4 PUSH2 0x20DC JUMP JUMPDEST PUSH2 0x1258 JUMP JUMPDEST CALLVALUE DUP1 ISZERO PUSH2 0x692 JUMPI PUSH1 0x0 DUP1 REVERT JUMPDEST POP PUSH2 0x35F PUSH32 0x0 DUP2 JUMP JUMPDEST CALLVALUE DUP1 ISZERO PUSH2 0x6C6 JUMPI PUSH1 0x0 DUP1 REVERT JUMPDEST POP PUSH2 0x35F PUSH1 0xA SLOAD DUP2 JUMP JUMPDEST CALLVALUE DUP1 ISZERO PUSH2 0x6DC JUMPI PUSH1 0x0 DUP1 REVERT JUMPDEST POP PUSH2 0x2B6 PUSH2 0x6EB CALLDATASIZE PUSH1 0x4 PUSH2 0x2209 JUMP JUMPDEST PUSH2 0x1343 JUMP JUMPDEST CALLVALUE DUP1 ISZERO PUSH2 0x6FC JUMPI PUSH1 0x0 DUP1 REVERT JUMPDEST POP PUSH2 0x710 PUSH2 0x70B CALLDATASIZE PUSH1 0x4 PUSH2 0x2194 JUMP JUMPDEST PUSH2 0x1357 JUMP JUMPDEST PUSH1 0x40 MLOAD PUSH4 0xFFFFFFFF SWAP1 SWAP2 AND DUP2 MSTORE PUSH1 0x20 ADD PUSH2 0x28D JUMP JUMPDEST CALLVALUE DUP1 ISZERO PUSH2 0x731 JUMPI PUSH1 0x0 DUP1 REVERT JUMPDEST POP PUSH1 0x8 SLOAD PUSH2 0x74C SWAP1 PUSH1 0x1 PUSH1 0xA0 SHL SWAP1 DIV PUSH1 0x1 PUSH1 0x1 PUSH1 0x60 SHL SUB AND DUP2 JUMP JUMPDEST PUSH1 0x40 MLOAD PUSH1 0x1 PUSH1 0x1 PUSH1 0x60 SHL SUB SWAP1 SWAP2 AND DUP2 MSTORE PUSH1 0x20 ADD PUSH2 0x28D JUMP JUMPDEST CALLVALUE DUP1 ISZERO PUSH2 0x770 JUMPI PUSH1 0x0 DUP1 REVERT JUMPDEST POP PUSH2 0x2CD PUSH2 0x1391 JUMP JUMPDEST CALLVALUE DUP1 ISZERO PUSH2 0x785 JUMPI PUSH1 0x0 DUP1 REVERT JUMPDEST POP PUSH2 0x281 PUSH2 0x794 CALLDATASIZE PUSH1 0x4 PUSH2 0x2388 JUMP JUMPDEST PUSH1 0x1C MSTORE PUSH8 0xA5A2E7A00000000 PUSH1 0x8 MSTORE PUSH1 0x0 MSTORE PUSH1 0x30 PUSH1 0xC KECCAK256 SLOAD SWAP1 JUMP JUMPDEST CALLVALUE DUP1 ISZERO PUSH2 0x7BB JUMPI PUSH1 0x0 DUP1 REVERT JUMPDEST POP PUSH2 0x2B6 PUSH2 0x7CA CALLDATASIZE PUSH1 0x4 PUSH2 0x2194 JUMP JUMPDEST PUSH2 0x13B1 JUMP JUMPDEST PUSH1 0x0 PUSH2 0x7DA DUP3 PUSH2 0x1427 JUMP JUMPDEST SWAP3 SWAP2 POP POP JUMP JUMPDEST PUSH2 0x7E8 PUSH2 0x145C JUMP JUMPDEST PUSH1 0x12 DUP1 SLOAD PUSH1 0xFF NOT AND SWAP2 ISZERO ISZERO SWAP2 SWAP1 SWAP2 OR SWAP1 SSTORE JUMP JUMPDEST PUSH1 0x60 PUSH1 0x6 DUP1 SLOAD PUSH2 0x80A SWAP1 PUSH2 0x23B2 JUMP JUMPDEST DUP1 PUSH1 0x1F ADD PUSH1 0x20 DUP1 SWAP2 DIV MUL PUSH1 0x20 ADD PUSH1 0x40 MLOAD SWAP1 DUP2 ADD PUSH1 0x40 MSTORE DUP1 SWAP3 SWAP2 SWAP1 DUP2 DUP2 MSTORE PUSH1 0x20 ADD DUP3 DUP1 SLOAD PUSH2 0x836 SWAP1 PUSH2 0x23B2 JUMP JUMPDEST DUP1 ISZERO PUSH2 0x883 JUMPI DUP1 PUSH1 0x1F LT PUSH2 0x858 JUMPI PUSH2 0x100 DUP1 DUP4 SLOAD DIV MUL DUP4 MSTORE SWAP2 PUSH1 0x20 ADD SWAP2 PUSH2 0x883 JUMP JUMPDEST DUP3 ADD SWAP2 SWAP1 PUSH1 0x0 MSTORE PUSH1 0x20 PUSH1 0x0 KECCAK256 SWAP1 JUMPDEST DUP2 SLOAD DUP2 MSTORE SWAP1 PUSH1 0x1 ADD SWAP1 PUSH1 0x20 ADD DUP1 DUP4 GT PUSH2 0x866 JUMPI DUP3 SWAP1 SUB PUSH1 0x1F AND DUP3 ADD SWAP2 JUMPDEST POP POP POP POP POP SWAP1 POP SWAP1 JUMP JUMPDEST PUSH1 0x0 DUP2 DUP2 MSTORE PUSH8 0x3EC412A9852D173D PUSH1 0xC1 SHL PUSH1 0x1C MSTORE PUSH1 0x20 DUP2 KECCAK256 DUP3 ADD DUP3 ADD DUP1 SLOAD PUSH1 0x1 PUSH1 0x1 PUSH1 0xA0 SHL SUB AND PUSH2 0x8C6 JUMPI PUSH4 0xCEEA21B6 PUSH1 0x0 MSTORE PUSH1 0x4 PUSH1 0x1C REVERT JUMPDEST PUSH1 0x1 ADD SLOAD SWAP3 SWAP2 POP POP JUMP JUMPDEST PUSH2 0x8DB CALLER DUP4 DUP4 PUSH2 0x14B6 JUMP JUMPDEST POP POP JUMP JUMPDEST PUSH1 0x0 PUSH1 0xA SLOAD PUSH32 0x0 PUSH2 0x90F SWAP2 SWAP1 PUSH2 0x2402 JUMP JUMPDEST SWAP1 POP SWAP1 JUMP JUMPDEST PUSH2 0x921 DUP4 DUP4 DUP4 PUSH1 0x1 PUSH2 0x1557 JUMP JUMPDEST PUSH1 0x0 DUP2 DUP2 MSTORE PUSH8 0x3EC412A9852D173D PUSH1 0xC1 SHL CALLER OR PUSH1 0x1C MSTORE PUSH1 0x20 SWAP1 KECCAK256 DUP2 ADD DUP2 ADD DUP1 SLOAD PUSH1 0x1 PUSH1 0x1 PUSH1 0xA0 SHL SUB SWAP5 DUP6 AND SWAP5 SWAP4 DUP5 AND SWAP4 DUP2 AND SWAP2 SWAP1 DUP3 DUP7 EQ DUP4 MUL PUSH2 0x97F JUMPI DUP3 PUSH2 0x971 JUMPI PUSH4 0xCEEA21B6 PUSH1 0x0 MSTORE PUSH1 0x4 PUSH1 0x1C REVERT JUMPDEST PUSH4 0xA1148100 PUSH1 0x0 MSTORE PUSH1 0x4 PUSH1 0x1C REVERT JUMPDEST DUP5 PUSH2 0x992 JUMPI PUSH4 0xEA553B34 PUSH1 0x0 MSTORE PUSH1 0x4 PUSH1 0x1C REVERT JUMPDEST DUP6 PUSH1 0x0 MSTORE DUP2 PUSH1 0x1 ADD SLOAD SWAP3 POP DUP3 CALLER EQ DUP7 CALLER EQ OR PUSH2 0x9C0 JUMPI PUSH1 0x30 PUSH1 0xC KECCAK256 SLOAD PUSH2 0x9C0 JUMPI PUSH4 0x4B6E7F18 PUSH1 0x0 MSTORE PUSH1 0x4 PUSH1 0x1C REVERT JUMPDEST DUP3 ISZERO PUSH2 0x9CE JUMPI PUSH1 0x0 DUP3 PUSH1 0x1 ADD SSTORE JUMPDEST DUP6 DUP6 XOR XOR SWAP1 SSTORE POP PUSH1 0x1C PUSH1 0xC DUP2 DUP2 KECCAK256 DUP1 SLOAD PUSH1 0x0 NOT ADD SWAP1 SSTORE PUSH1 0x0 DUP5 SWAP1 MSTORE KECCAK256 DUP1 SLOAD PUSH1 0x1 ADD PUSH4 0xFFFFFFFF DUP2 AND PUSH2 0xA08 JUMPI PUSH4 0x1336CEA PUSH1 0x0 MSTORE PUSH1 0x4 PUSH1 0x1C REVERT JUMPDEST SWAP1 SSTORE DUP1 DUP3 DUP5 PUSH32 0xDDF252AD1BE2C89B69C2B068FC378DAA952BA7F163C4A11628F55A4DF523B3EF PUSH1 0x0 DUP1 LOG4 JUMPDEST POP POP POP JUMP JUMPDEST PUSH2 0xA40 PUSH2 0x145C JUMP JUMPDEST PUSH2 0xA49 DUP2 PUSH2 0x1684 JUMP JUMPDEST POP JUMP JUMPDEST PUSH1 0x0 DUP3 DUP2 MSTORE PUSH1 0x5 PUSH1 0x20 SWAP1 DUP2 MSTORE PUSH1 0x40 DUP1 DUP4 KECCAK256 DUP2 MLOAD DUP1 DUP4 ADD SWAP1 SWAP3 MSTORE SLOAD PUSH1 0x1 PUSH1 0x1 PUSH1 0xA0 SHL SUB DUP2 AND DUP1 DUP4 MSTORE PUSH1 0x1 PUSH1 0xA0 SHL SWAP1 SWAP2 DIV PUSH1 0x1 PUSH1 0x1 PUSH1 0x60 SHL SUB AND SWAP3 DUP3 ADD SWAP3 SWAP1 SWAP3 MSTORE DUP3 SWAP2 PUSH2 0xAC1 JUMPI POP PUSH1 0x40 DUP1 MLOAD DUP1 DUP3 ADD SWAP1 SWAP2 MSTORE PUSH1 0x4 SLOAD PUSH1 0x1 PUSH1 0x1 PUSH1 0xA0 SHL SUB DUP2 AND DUP3 MSTORE PUSH1 0x1 PUSH1 0xA0 SHL SWAP1 DIV PUSH1 0x1 PUSH1 0x1 PUSH1 0x60 SHL SUB AND PUSH1 0x20 DUP3 ADD MSTORE JUMPDEST PUSH1 0x20 DUP2 ADD MLOAD PUSH1 0x0 SWAP1 PUSH2 0x2710 SWAP1 PUSH2 0xAE0 SWAP1 PUSH1 0x1 PUSH1 0x1 PUSH1 0x60 SHL SUB AND DUP8 PUSH2 0x2415 JUMP JUMPDEST PUSH2 0xAEA SWAP2 SWAP1 PUSH2 0x242C JUMP JUMPDEST SWAP2 MLOAD SWAP7 SWAP2 SWAP6 POP SWAP1 SWAP4 POP POP POP POP JUMP JUMPDEST PUSH1 0x0 PUSH2 0xB03 DUP4 PUSH2 0x1039 JUMP JUMPDEST DUP3 LT PUSH2 0xB6A JUMPI PUSH1 0x40 MLOAD PUSH3 0x461BCD PUSH1 0xE5 SHL DUP2 MSTORE PUSH1 0x20 PUSH1 0x4 DUP3 ADD MSTORE PUSH1 0x2B PUSH1 0x24 DUP3 ADD MSTORE PUSH32 0x455243373231456E756D657261626C653A206F776E657220696E646578206F75 PUSH1 0x44 DUP3 ADD MSTORE PUSH11 0x74206F6620626F756E6473 PUSH1 0xA8 SHL PUSH1 0x64 DUP3 ADD MSTORE PUSH1 0x84 ADD JUMPDEST PUSH1 0x40 MLOAD DUP1 SWAP2 SUB SWAP1 REVERT JUMPDEST POP PUSH1 0x1 PUSH1 0x1 PUSH1 0xA0 SHL SUB SWAP2 SWAP1 SWAP2 AND PUSH1 0x0 SWAP1 DUP2 MSTORE PUSH1 0x20 DUP2 DUP2 MSTORE PUSH1 0x40 DUP1 DUP4 KECCAK256 SWAP4 DUP4 MSTORE SWAP3 SWAP1 MSTORE KECCAK256 SLOAD SWAP1 JUMP JUMPDEST PUSH2 0xB99 PUSH2 0x169E JUMP JUMPDEST PUSH1 0x0 PUSH2 0xBA4 CALLER PUSH2 0x1039 JUMP JUMPDEST SWAP1 POP PUSH1 0x1E DUP2 LT ISZERO PUSH2 0xBF7 JUMPI PUSH1 0x40 MLOAD PUSH3 0x461BCD PUSH1 0xE5 SHL DUP2 MSTORE PUSH1 0x20 PUSH1 0x4 DUP3 ADD MSTORE PUSH1 0x1C PUSH1 0x24 DUP3 ADD MSTORE PUSH32 0x4E6F7420656E6F75676820746F6B656E7320746F207570677261646500000000 PUSH1 0x44 DUP3 ADD MSTORE PUSH1 0x64 ADD PUSH2 0xB61 JUMP JUMPDEST PUSH1 0xA PUSH1 0x11 SLOAD GT ISZERO PUSH2 0xC3F JUMPI PUSH1 0x40 MLOAD PUSH3 0x461BCD PUSH1 0xE5 SHL DUP2 MSTORE PUSH1 0x20 PUSH1 0x4 DUP3 ADD MSTORE PUSH1 0x12 PUSH1 0x24 DUP3 ADD MSTORE PUSH18 0x20B6361039B637BA399030B9329037BB32B9 PUSH1 0x71 SHL PUSH1 0x44 DUP3 ADD MSTORE PUSH1 0x64 ADD PUSH2 0xB61 JUMP JUMPDEST PUSH1 0x0 PUSH2 0xC4A CALLER PUSH2 0xCDF JUMP JUMPDEST SWAP1 POP PUSH1 0x0 JUMPDEST PUSH1 0x1E DUP2 LT ISZERO PUSH2 0xC8E JUMPI PUSH2 0xC7C CALLER ADDRESS DUP5 DUP5 DUP2 MLOAD DUP2 LT PUSH2 0xC6F JUMPI PUSH2 0xC6F PUSH2 0x244E JUMP JUMPDEST PUSH1 0x20 MUL PUSH1 0x20 ADD ADD MLOAD PUSH2 0x914 JUMP JUMPDEST DUP1 PUSH2 0xC86 DUP2 PUSH2 0x2464 JUMP JUMPDEST SWAP2 POP POP PUSH2 0xC4F JUMP JUMPDEST POP PUSH1 0x11 DUP1 SLOAD SWAP1 PUSH1 0x0 PUSH2 0xC9F DUP4 PUSH2 0x2464 JUMP JUMPDEST SWAP2 SWAP1 POP SSTORE POP POP POP PUSH2 0xCB0 PUSH1 0x1 PUSH1 0xC SSTORE JUMP JUMPDEST JUMP JUMPDEST PUSH2 0xCBD DUP4 DUP4 DUP4 PUSH2 0x914 JUMP JUMPDEST DUP2 EXTCODESIZE ISZERO PUSH2 0xA33 JUMPI PUSH2 0xA33 DUP4 DUP4 DUP4 PUSH1 0x40 MLOAD DUP1 PUSH1 0x20 ADD PUSH1 0x40 MSTORE DUP1 PUSH1 0x0 DUP2 MSTORE POP PUSH2 0x16F7 JUMP JUMPDEST PUSH1 0x60 PUSH1 0x0 PUSH2 0xCEC DUP4 PUSH2 0x1039 JUMP JUMPDEST SWAP1 POP PUSH1 0x0 DUP2 PUSH8 0xFFFFFFFFFFFFFFFF DUP2 GT ISZERO PUSH2 0xD09 JUMPI PUSH2 0xD09 PUSH2 0x21F3 JUMP JUMPDEST PUSH1 0x40 MLOAD SWAP1 DUP1 DUP3 MSTORE DUP1 PUSH1 0x20 MUL PUSH1 0x20 ADD DUP3 ADD PUSH1 0x40 MSTORE DUP1 ISZERO PUSH2 0xD32 JUMPI DUP2 PUSH1 0x20 ADD PUSH1 0x20 DUP3 MUL DUP1 CALLDATASIZE DUP4 CALLDATACOPY ADD SWAP1 POP JUMPDEST POP SWAP1 POP PUSH1 0x0 JUMPDEST DUP3 DUP2 LT ISZERO PUSH2 0xD79 JUMPI PUSH2 0xD4A DUP6 DUP3 PUSH2 0xAF8 JUMP JUMPDEST DUP3 DUP3 DUP2 MLOAD DUP2 LT PUSH2 0xD5C JUMPI PUSH2 0xD5C PUSH2 0x244E JUMP JUMPDEST PUSH1 0x20 SWAP1 DUP2 MUL SWAP2 SWAP1 SWAP2 ADD ADD MSTORE DUP1 PUSH2 0xD71 DUP2 PUSH2 0x2464 JUMP JUMPDEST SWAP2 POP POP PUSH2 0xD38 JUMP JUMPDEST POP SWAP4 SWAP3 POP POP POP JUMP JUMPDEST PUSH1 0x0 DUP2 DUP2 MSTORE PUSH8 0x3EC412A9852D173D PUSH1 0xC1 SHL PUSH1 0x1C MSTORE PUSH1 0x20 DUP2 KECCAK256 DUP3 ADD DUP3 ADD SLOAD PUSH1 0x60 SHL PUSH2 0x7DA JUMP JUMPDEST PUSH1 0x0 PUSH2 0xDB1 PUSH1 0x2 SLOAD SWAP1 JUMP JUMPDEST DUP3 LT PUSH2 0xE14 JUMPI PUSH1 0x40 MLOAD PUSH3 0x461BCD PUSH1 0xE5 SHL DUP2 MSTORE PUSH1 0x20 PUSH1 0x4 DUP3 ADD MSTORE PUSH1 0x2C PUSH1 0x24 DUP3 ADD MSTORE PUSH32 0x455243373231456E756D657261626C653A20676C6F62616C20696E646578206F PUSH1 0x44 DUP3 ADD MSTORE PUSH12 0x7574206F6620626F756E6473 PUSH1 0xA0 SHL PUSH1 0x64 DUP3 ADD MSTORE PUSH1 0x84 ADD PUSH2 0xB61 JUMP JUMPDEST PUSH1 0x2 DUP3 DUP2 SLOAD DUP2 LT PUSH2 0xE27 JUMPI PUSH2 0xE27 PUSH2 0x244E JUMP JUMPDEST SWAP1 PUSH1 0x0 MSTORE PUSH1 0x20 PUSH1 0x0 KECCAK256 ADD SLOAD SWAP1 POP SWAP2 SWAP1 POP JUMP JUMPDEST PUSH2 0xE41 PUSH2 0x145C JUMP JUMPDEST PUSH1 0xD PUSH2 0x8DB DUP3 DUP3 PUSH2 0x24C3 JUMP JUMPDEST PUSH2 0xE55 PUSH2 0x145C JUMP JUMPDEST PUSH2 0x8DB DUP3 DUP3 PUSH2 0x1789 JUMP JUMPDEST PUSH2 0xE67 PUSH2 0x169E JUMP JUMPDEST PUSH1 0x0 PUSH2 0xE72 CALLER PUSH2 0x1039 JUMP JUMPDEST SWAP1 POP PUSH1 0xA DUP2 LT ISZERO PUSH2 0xEC5 JUMPI PUSH1 0x40 MLOAD PUSH3 0x461BCD PUSH1 0xE5 SHL DUP2 MSTORE PUSH1 0x20 PUSH1 0x4 DUP3 ADD MSTORE PUSH1 0x1C PUSH1 0x24 DUP3 ADD MSTORE PUSH32 0x4E6F7420656E6F75676820746F6B656E7320746F207570677261646500000000 PUSH1 0x44 DUP3 ADD MSTORE PUSH1 0x64 ADD PUSH2 0xB61 JUMP JUMPDEST PUSH1 0x14 PUSH1 0x10 SLOAD GT ISZERO PUSH2 0xF0D JUMPI PUSH1 0x40 MLOAD PUSH3 0x461BCD PUSH1 0xE5 SHL DUP2 MSTORE PUSH1 0x20 PUSH1 0x4 DUP3 ADD MSTORE PUSH1 0x12 PUSH1 0x24 DUP3 ADD MSTORE PUSH18 0x20B6361039B637BA399030B9329037BB32B9 PUSH1 0x71 SHL PUSH1 0x44 DUP3 ADD MSTORE PUSH1 0x64 ADD PUSH2 0xB61 JUMP JUMPDEST PUSH1 0x0 PUSH2 0xF18 CALLER PUSH2 0xCDF JUMP JUMPDEST SWAP1 POP PUSH1 0x0 JUMPDEST PUSH1 0xA DUP2 LT ISZERO PUSH2 0xF4F JUMPI PUSH2 0xF3D CALLER ADDRESS DUP5 DUP5 DUP2 MLOAD DUP2 LT PUSH2 0xC6F JUMPI PUSH2 0xC6F PUSH2 0x244E JUMP JUMPDEST DUP1 PUSH2 0xF47 DUP2 PUSH2 0x2464 JUMP JUMPDEST SWAP2 POP POP PUSH2 0xF1D JUMP JUMPDEST POP PUSH1 0x10 DUP1 SLOAD SWAP1 PUSH1 0x0 PUSH2 0xC9F DUP4 PUSH2 0x2464 JUMP JUMPDEST PUSH1 0x0 DUP2 DUP2 MSTORE PUSH8 0x3EC412A9852D173D PUSH1 0xC1 SHL PUSH1 0x1C MSTORE PUSH1 0x20 SWAP1 KECCAK256 DUP2 ADD DUP2 ADD SLOAD PUSH1 0x1 PUSH1 0x1 PUSH1 0xA0 SHL SUB AND DUP1 PUSH2 0xF99 JUMPI PUSH4 0xCEEA21B6 PUSH1 0x0 MSTORE PUSH1 0x4 PUSH1 0x1C REVERT JUMPDEST SWAP2 SWAP1 POP JUMP JUMPDEST PUSH2 0xFA6 PUSH2 0x145C JUMP JUMPDEST PUSH1 0xF SSTORE JUMP JUMPDEST PUSH1 0xD DUP1 SLOAD PUSH2 0xFB8 SWAP1 PUSH2 0x23B2 JUMP JUMPDEST DUP1 PUSH1 0x1F ADD PUSH1 0x20 DUP1 SWAP2 DIV MUL PUSH1 0x20 ADD PUSH1 0x40 MLOAD SWAP1 DUP2 ADD PUSH1 0x40 MSTORE DUP1 SWAP3 SWAP2 SWAP1 DUP2 DUP2 MSTORE PUSH1 0x20 ADD DUP3 DUP1 SLOAD PUSH2 0xFE4 SWAP1 PUSH2 0x23B2 JUMP JUMPDEST DUP1 ISZERO PUSH2 0x1031 JUMPI DUP1 PUSH1 0x1F LT PUSH2 0x1006 JUMPI PUSH2 0x100 DUP1 DUP4 SLOAD DIV MUL DUP4 MSTORE SWAP2 PUSH1 0x20 ADD SWAP2 PUSH2 0x1031 JUMP JUMPDEST DUP3 ADD SWAP2 SWAP1 PUSH1 0x0 MSTORE PUSH1 0x20 PUSH1 0x0 KECCAK256 SWAP1 JUMPDEST DUP2 SLOAD DUP2 MSTORE SWAP1 PUSH1 0x1 ADD SWAP1 PUSH1 0x20 ADD DUP1 DUP4 GT PUSH2 0x1014 JUMPI DUP3 SWAP1 SUB PUSH1 0x1F AND DUP3 ADD SWAP2 JUMPDEST POP POP POP POP POP DUP2 JUMP JUMPDEST PUSH1 0x0 DUP2 PUSH2 0x104E JUMPI PUSH4 0x8F4EB604 PUSH1 0x0 MSTORE PUSH1 0x4 PUSH1 0x1C REVERT JUMPDEST PUSH8 0x3EC412A9852D173D PUSH1 0xC1 SHL PUSH1 0x1C MSTORE DUP2 PUSH1 0x0 MSTORE PUSH4 0xFFFFFFFF PUSH1 0x1C PUSH1 0xC KECCAK256 SLOAD AND SWAP1 POP SWAP2 SWAP1 POP JUMP JUMPDEST PUSH2 0x107C PUSH2 0x145C JUMP JUMPDEST PUSH2 0xCB0 PUSH1 0x0 PUSH2 0x1845 JUMP JUMPDEST PUSH1 0x60 PUSH1 0x7 DUP1 SLOAD PUSH2 0x80A SWAP1 PUSH2 0x23B2 JUMP JUMPDEST PUSH2 0x109D PUSH2 0x169E JUMP JUMPDEST PUSH1 0x0 PUSH2 0x10A7 PUSH2 0x8DF JUMP JUMPDEST PUSH1 0x12 SLOAD SWAP1 SWAP2 POP PUSH1 0xFF AND ISZERO PUSH2 0x10BA JUMPI PUSH1 0x0 DUP1 REVERT JUMPDEST PUSH32 0x0 PUSH2 0x10E6 DUP3 PUSH1 0x1 PUSH2 0x2583 JUMP JUMPDEST GT ISZERO PUSH2 0x112C JUMPI PUSH1 0x40 MLOAD PUSH3 0x461BCD PUSH1 0xE5 SHL DUP2 MSTORE PUSH1 0x20 PUSH1 0x4 DUP3 ADD MSTORE PUSH1 0x15 PUSH1 0x24 DUP3 ADD MSTORE PUSH21 0x105B1B081D1BDAD95B9CC8185C99481B5A5B9D1959 PUSH1 0x5A SHL PUSH1 0x44 DUP3 ADD MSTORE PUSH1 0x64 ADD PUSH2 0xB61 JUMP JUMPDEST CALLVALUE DUP3 PUSH1 0xF SLOAD PUSH2 0x113B SWAP2 SWAP1 PUSH2 0x2415 JUMP JUMPDEST EQ PUSH2 0x117D JUMPI PUSH1 0x40 MLOAD PUSH3 0x461BCD PUSH1 0xE5 SHL DUP2 MSTORE PUSH1 0x20 PUSH1 0x4 DUP3 ADD MSTORE PUSH1 0x12 PUSH1 0x24 DUP3 ADD MSTORE PUSH18 0x496E73756666696369656E742066756E6473 PUSH1 0x70 SHL PUSH1 0x44 DUP3 ADD MSTORE PUSH1 0x64 ADD PUSH2 0xB61 JUMP JUMPDEST PUSH2 0x1187 CALLER DUP4 PUSH2 0x1897 JUMP JUMPDEST PUSH2 0x118F PUSH2 0x19B8 JUMP JUMPDEST POP PUSH2 0xA49 PUSH1 0x1 PUSH1 0xC SSTORE JUMP JUMPDEST DUP1 ISZERO ISZERO SWAP1 POP DUP2 PUSH1 0x1C MSTORE PUSH8 0xA5A2E7A00000000 PUSH1 0x8 MSTORE CALLER PUSH1 0x0 MSTORE DUP1 PUSH1 0x30 PUSH1 0xC KECCAK256 SSTORE DUP1 PUSH1 0x0 MSTORE DUP2 PUSH1 0x60 SHL PUSH1 0x60 SHR CALLER PUSH32 0x17307EAB39AB6107E8899845AD3D59BD9653F200F220920489CA2B5937696C31 PUSH1 0x20 PUSH1 0x0 LOG3 POP POP JUMP JUMPDEST PUSH2 0x11FB DUP6 DUP6 DUP6 PUSH2 0x914 JUMP JUMPDEST DUP4 EXTCODESIZE ISZERO PUSH2 0x1244 JUMPI PUSH2 0x1244 DUP6 DUP6 DUP6 DUP6 DUP6 DUP1 DUP1 PUSH1 0x1F ADD PUSH1 0x20 DUP1 SWAP2 DIV MUL PUSH1 0x20 ADD PUSH1 0x40 MLOAD SWAP1 DUP2 ADD PUSH1 0x40 MSTORE DUP1 SWAP4 SWAP3 SWAP2 SWAP1 DUP2 DUP2 MSTORE PUSH1 0x20 ADD DUP4 DUP4 DUP1 DUP3 DUP5 CALLDATACOPY PUSH1 0x0 SWAP3 ADD SWAP2 SWAP1 SWAP2 MSTORE POP PUSH2 0x16F7 SWAP3 POP POP POP JUMP JUMPDEST POP POP POP POP POP JUMP JUMPDEST PUSH1 0xE DUP1 SLOAD PUSH2 0xFB8 SWAP1 PUSH2 0x23B2 JUMP JUMPDEST PUSH1 0x60 PUSH2 0x1280 DUP3 PUSH1 0x0 DUP2 DUP2 MSTORE PUSH8 0x3EC412A9852D173D PUSH1 0xC1 SHL PUSH1 0x1C MSTORE PUSH1 0x20 SWAP1 KECCAK256 DUP2 ADD ADD SLOAD PUSH1 0x60 SHL SWAP1 JUMP JUMPDEST PUSH2 0x12E4 JUMPI PUSH1 0x40 MLOAD PUSH3 0x461BCD PUSH1 0xE5 SHL DUP2 MSTORE PUSH1 0x20 PUSH1 0x4 DUP3 ADD MSTORE PUSH1 0x2F PUSH1 0x24 DUP3 ADD MSTORE PUSH32 0x4552433732314D657461646174613A2055524920717565727920666F72206E6F PUSH1 0x44 DUP3 ADD MSTORE PUSH15 0x3732BC34B9BA32B73A103A37B5B2B7 PUSH1 0x89 SHL PUSH1 0x64 DUP3 ADD MSTORE PUSH1 0x84 ADD PUSH2 0xB61 JUMP JUMPDEST PUSH1 0x0 PUSH2 0x12EE PUSH2 0x1A1D JUMP JUMPDEST SWAP1 POP PUSH1 0x0 DUP2 MLOAD GT PUSH2 0x130E JUMPI PUSH1 0x40 MLOAD DUP1 PUSH1 0x20 ADD PUSH1 0x40 MSTORE DUP1 PUSH1 0x0 DUP2 MSTORE POP PUSH2 0x133C JUMP JUMPDEST DUP1 PUSH2 0x1318 DUP5 PUSH2 0x1A2C JUMP JUMPDEST PUSH1 0xE PUSH1 0x40 MLOAD PUSH1 0x20 ADD PUSH2 0x132C SWAP4 SWAP3 SWAP2 SWAP1 PUSH2 0x2596 JUMP JUMPDEST PUSH1 0x40 MLOAD PUSH1 0x20 DUP2 DUP4 SUB SUB DUP2 MSTORE SWAP1 PUSH1 0x40 MSTORE JUMPDEST SWAP4 SWAP3 POP POP POP JUMP JUMPDEST PUSH2 0x134B PUSH2 0x145C JUMP JUMPDEST PUSH1 0xE PUSH2 0x8DB DUP3 DUP3 PUSH2 0x24C3 JUMP JUMPDEST PUSH1 0x0 PUSH1 0xC0 PUSH2 0x1380 DUP4 PUSH8 0x3EC412A9852D173D PUSH1 0xC1 SHL PUSH1 0x1C SWAP1 DUP2 MSTORE PUSH1 0x0 SWAP2 SWAP1 SWAP2 MSTORE PUSH1 0xC KECCAK256 SLOAD PUSH1 0x20 SHR SWAP1 JUMP JUMPDEST PUSH1 0x1 PUSH1 0x1 PUSH1 0xE0 SHL SUB AND SWAP1 SHR SWAP3 SWAP2 POP POP JUMP JUMPDEST PUSH1 0x60 PUSH1 0x40 MLOAD DUP1 PUSH1 0x80 ADD PUSH1 0x40 MSTORE DUP1 PUSH1 0x59 DUP2 MSTORE PUSH1 0x20 ADD PUSH2 0x26A5 PUSH1 0x59 SWAP2 CODECOPY SWAP1 POP SWAP1 JUMP JUMPDEST PUSH2 0x13B9 PUSH2 0x145C JUMP JUMPDEST PUSH1 0x1 PUSH1 0x1 PUSH1 0xA0 SHL SUB DUP2 AND PUSH2 0x141E JUMPI PUSH1 0x40 MLOAD PUSH3 0x461BCD PUSH1 0xE5 SHL DUP2 MSTORE PUSH1 0x20 PUSH1 0x4 DUP3 ADD MSTORE PUSH1 0x26 PUSH1 0x24 DUP3 ADD MSTORE PUSH32 0x4F776E61626C653A206E6577206F776E657220697320746865207A65726F2061 PUSH1 0x44 DUP3 ADD MSTORE PUSH6 0x646472657373 PUSH1 0xD0 SHL PUSH1 0x64 DUP3 ADD MSTORE PUSH1 0x84 ADD PUSH2 0xB61 JUMP JUMPDEST PUSH2 0xA49 DUP2 PUSH2 0x1845 JUMP JUMPDEST PUSH1 0x0 PUSH1 0x1 PUSH1 0x1 PUSH1 0xE0 SHL SUB NOT DUP3 AND PUSH4 0x152A902D PUSH1 0xE1 SHL EQ DUP1 PUSH2 0x7DA JUMPI POP PUSH4 0x1FFC9A7 PUSH1 0xE0 SHL PUSH1 0x1 PUSH1 0x1 PUSH1 0xE0 SHL SUB NOT DUP4 AND EQ PUSH2 0x7DA JUMP JUMPDEST PUSH1 0xB SLOAD PUSH1 0x1 PUSH1 0x1 PUSH1 0xA0 SHL SUB AND CALLER EQ PUSH2 0xCB0 JUMPI PUSH1 0x40 MLOAD PUSH3 0x461BCD PUSH1 0xE5 SHL DUP2 MSTORE PUSH1 0x20 PUSH1 0x4 DUP3 ADD DUP2 SWAP1 MSTORE PUSH1 0x24 DUP3 ADD MSTORE PUSH32 0x4F776E61626C653A2063616C6C6572206973206E6F7420746865206F776E6572 PUSH1 0x44 DUP3 ADD MSTORE PUSH1 0x64 ADD PUSH2 0xB61 JUMP JUMPDEST PUSH1 0x0 NOT PUSH1 0x60 SHR DUP3 DUP2 AND SWAP3 POP DUP4 DUP2 AND SWAP4 POP DUP2 PUSH1 0x0 MSTORE DUP4 PUSH8 0x3EC412A9852D173D PUSH1 0xC1 SHL OR PUSH1 0x1C MSTORE PUSH1 0x20 PUSH1 0x0 KECCAK256 DUP3 ADD DUP3 ADD DUP1 SLOAD DUP3 AND SWAP2 POP DUP2 PUSH2 0x14FD JUMPI PUSH4 0xCEEA21B6 PUSH1 0x0 MSTORE PUSH1 0x4 PUSH1 0x1C REVERT JUMPDEST DUP2 DUP6 EQ DUP6 ISZERO OR PUSH2 0x1523 JUMPI DUP2 PUSH1 0x0 MSTORE PUSH1 0x30 PUSH1 0xC KECCAK256 SLOAD PUSH2 0x1523 JUMPI PUSH4 0x4B6E7F18 PUSH1 0x0 MSTORE PUSH1 0x4 PUSH1 0x1C REVERT JUMPDEST PUSH1 0x1 ADD DUP4 SWAP1 SSTORE DUP2 DUP4 DUP3 PUSH32 0x8C5BE1E5EBEC7D5BD14F71427D1E84F3DD0314C0F7B2291E5B200AC8C7C3B925 PUSH1 0x0 DUP1 LOG4 POP POP POP POP JUMP JUMPDEST PUSH1 0x1 DUP2 GT ISZERO PUSH2 0x15C6 JUMPI PUSH1 0x40 MLOAD PUSH3 0x461BCD PUSH1 0xE5 SHL DUP2 MSTORE PUSH1 0x20 PUSH1 0x4 DUP3 ADD MSTORE PUSH1 0x35 PUSH1 0x24 DUP3 ADD MSTORE PUSH32 0x455243373231456E756D657261626C653A20636F6E7365637574697665207472 PUSH1 0x44 DUP3 ADD MSTORE PUSH21 0x185B9CD9995C9CC81B9BDD081CDD5C1C1BDC9D1959 PUSH1 0x5A SHL PUSH1 0x64 DUP3 ADD MSTORE PUSH1 0x84 ADD PUSH2 0xB61 JUMP JUMPDEST DUP2 PUSH1 0x1 PUSH1 0x1 PUSH1 0xA0 SHL SUB DUP6 AND PUSH2 0x1622 JUMPI PUSH2 0x161D DUP2 PUSH1 0x2 DUP1 SLOAD PUSH1 0x0 DUP4 DUP2 MSTORE PUSH1 0x3 PUSH1 0x20 MSTORE PUSH1 0x40 DUP2 KECCAK256 DUP3 SWAP1 SSTORE PUSH1 0x1 DUP3 ADD DUP4 SSTORE SWAP2 SWAP1 SWAP2 MSTORE PUSH32 0x405787FA12A823E0F2B7631CC41B3BA8828B3321CA811111FA75CD3AA3BB5ACE ADD SSTORE JUMP JUMPDEST PUSH2 0x1645 JUMP JUMPDEST DUP4 PUSH1 0x1 PUSH1 0x1 PUSH1 0xA0 SHL SUB AND DUP6 PUSH1 0x1 PUSH1 0x1 PUSH1 0xA0 SHL SUB AND EQ PUSH2 0x1645 JUMPI PUSH2 0x1645 DUP6 DUP3 PUSH2 0x1ABF JUMP JUMPDEST PUSH1 0x1 PUSH1 0x1 PUSH1 0xA0 SHL SUB DUP5 AND PUSH2 0x1661 JUMPI PUSH2 0x165C DUP2 PUSH2 0x1B59 JUMP JUMPDEST PUSH2 0x1244 JUMP JUMPDEST DUP5 PUSH1 0x1 PUSH1 0x1 PUSH1 0xA0 SHL SUB AND DUP5 PUSH1 0x1 PUSH1 0x1 PUSH1 0xA0 SHL SUB AND EQ PUSH2 0x1244 JUMPI PUSH2 0x1244 DUP5 DUP3 PUSH2 0x1C08 JUMP JUMPDEST PUSH2 0x168D DUP2 PUSH2 0x1C4A JUMP JUMPDEST PUSH1 0x0 SWAP1 DUP2 MSTORE PUSH1 0x5 PUSH1 0x20 MSTORE PUSH1 0x40 DUP2 KECCAK256 SSTORE JUMP JUMPDEST PUSH1 0x2 PUSH1 0xC SLOAD SUB PUSH2 0x16F0 JUMPI PUSH1 0x40 MLOAD PUSH3 0x461BCD PUSH1 0xE5 SHL DUP2 MSTORE PUSH1 0x20 PUSH1 0x4 DUP3 ADD MSTORE PUSH1 0x1F PUSH1 0x24 DUP3 ADD MSTORE PUSH32 0x5265656E7472616E637947756172643A207265656E7472616E742063616C6C00 PUSH1 0x44 DUP3 ADD MSTORE PUSH1 0x64 ADD PUSH2 0xB61 JUMP JUMPDEST PUSH1 0x2 PUSH1 0xC SSTORE JUMP JUMPDEST PUSH1 0x40 MLOAD PUSH4 0x150B7A02 DUP1 DUP3 MSTORE CALLER PUSH1 0x20 DUP4 ADD MSTORE DUP6 PUSH1 0x60 SHL PUSH1 0x60 SHR PUSH1 0x40 DUP4 ADD MSTORE DUP4 PUSH1 0x60 DUP4 ADD MSTORE PUSH1 0x80 DUP1 DUP4 ADD MSTORE DUP3 MLOAD DUP1 PUSH1 0xA0 DUP5 ADD MSTORE DUP1 ISZERO PUSH2 0x173E JUMPI DUP1 PUSH1 0xC0 DUP5 ADD DUP3 PUSH1 0x20 DUP8 ADD PUSH1 0x4 GAS STATICCALL POP JUMPDEST PUSH1 0x20 DUP4 PUSH1 0xA4 DUP4 ADD PUSH1 0x1C DUP7 ADD PUSH1 0x0 DUP11 GAS CALL PUSH2 0x1767 JUMPI RETURNDATASIZE ISZERO PUSH2 0x1762 JUMPI RETURNDATASIZE PUSH1 0x0 DUP1 RETURNDATACOPY RETURNDATASIZE PUSH1 0x0 REVERT JUMPDEST PUSH1 0x0 DUP4 MSTORE JUMPDEST POP DUP1 PUSH1 0xE0 SHL DUP3 MLOAD EQ PUSH2 0x1781 JUMPI PUSH4 0xD1A57ED6 PUSH1 0x0 MSTORE PUSH1 0x4 PUSH1 0x1C REVERT JUMPDEST POP POP POP POP POP POP JUMP JUMPDEST PUSH2 0x1797 PUSH1 0x0 DUP4 DUP4 PUSH1 0x1 PUSH2 0x1557 JUMP JUMPDEST PUSH1 0x1 PUSH1 0x1 PUSH1 0xA0 SHL SUB SWAP1 SWAP2 AND SWAP1 DUP2 PUSH2 0x17B6 JUMPI PUSH4 0xEA553B34 PUSH1 0x0 MSTORE PUSH1 0x4 PUSH1 0x1C REVERT JUMPDEST DUP1 PUSH1 0x0 MSTORE PUSH8 0x3EC412A9852D173D PUSH1 0xC1 SHL PUSH1 0x1C MSTORE PUSH1 0x20 PUSH1 0x0 KECCAK256 DUP2 ADD DUP2 ADD DUP1 SLOAD DUP1 PUSH1 0x60 SHL ISZERO PUSH2 0x17EB JUMPI PUSH4 0xC991CBB1 PUSH1 0x0 MSTORE PUSH1 0x4 PUSH1 0x1C REVERT JUMPDEST DUP4 OR SWAP1 SSTORE PUSH1 0x0 DUP3 SWAP1 MSTORE PUSH1 0x1C PUSH1 0xC KECCAK256 DUP1 SLOAD PUSH1 0x1 ADD PUSH4 0xFFFFFFFF DUP2 AND PUSH2 0x1817 JUMPI PUSH4 0x1336CEA PUSH1 0x0 MSTORE PUSH1 0x4 PUSH1 0x1C REVERT JUMPDEST SWAP1 SSTORE DUP1 DUP3 PUSH1 0x0 PUSH32 0xDDF252AD1BE2C89B69C2B068FC378DAA952BA7F163C4A11628F55A4DF523B3EF DUP2 DUP1 LOG4 POP POP JUMP JUMPDEST PUSH1 0xB DUP1 SLOAD PUSH1 0x1 PUSH1 0x1 PUSH1 0xA0 SHL SUB DUP4 DUP2 AND PUSH1 0x1 PUSH1 0x1 PUSH1 0xA0 SHL SUB NOT DUP4 AND DUP2 OR SWAP1 SWAP4 SSTORE PUSH1 0x40 MLOAD SWAP2 AND SWAP2 SWAP1 DUP3 SWAP1 PUSH32 0x8BE0079C531659141344CD1FD0A4F28419497F9722A3DAAFE3B4186F6B6457E0 SWAP1 PUSH1 0x0 SWAP1 LOG3 POP POP JUMP JUMPDEST CALLER ORIGIN EQ PUSH2 0x18B7 JUMPI PUSH1 0x40 MLOAD PUSH4 0xD9D552C9 PUSH1 0xE0 SHL DUP2 MSTORE PUSH1 0x4 ADD PUSH1 0x40 MLOAD DUP1 SWAP2 SUB SWAP1 REVERT JUMPDEST DUP1 PUSH1 0x0 SUB PUSH2 0x18D8 JUMPI PUSH1 0x40 MLOAD PUSH4 0x4600CFE9 PUSH1 0xE0 SHL DUP2 MSTORE PUSH1 0x4 ADD PUSH1 0x40 MLOAD DUP1 SWAP2 SUB SWAP1 REVERT JUMPDEST DUP1 PUSH1 0xA SLOAD LT ISZERO PUSH2 0x18FB JUMPI PUSH1 0x40 MLOAD PUSH4 0x7775ABDD PUSH1 0xE0 SHL DUP2 MSTORE PUSH1 0x4 ADD PUSH1 0x40 MLOAD DUP1 SWAP2 SUB SWAP1 REVERT JUMPDEST PUSH1 0x40 DUP1 MLOAD PUSH1 0x20 DUP1 DUP3 ADD DUP4 MSTORE TIMESTAMP DUP3 DUP5 ADD MSTORE PREVRANDAO PUSH1 0x60 DUP1 DUP5 ADD SWAP2 SWAP1 SWAP2 MSTORE DUP4 MLOAD DUP1 DUP5 SUB SWAP1 SWAP2 ADD DUP2 MSTORE PUSH1 0x80 DUP4 ADD SWAP1 SWAP4 MSTORE DUP3 MLOAD SWAP3 ADD SWAP2 SWAP1 SWAP2 KECCAK256 DUP2 MSTORE PUSH1 0xA SLOAD PUSH1 0x0 JUMPDEST DUP4 DUP2 LT ISZERO PUSH2 0x19A5 JUMPI PUSH1 0x0 PUSH2 0x194A DUP5 DUP5 PUSH2 0x1C55 JUMP JUMPDEST SWAP1 POP PUSH1 0x0 PUSH2 0x1958 DUP3 DUP6 PUSH2 0x1C73 JUMP JUMPDEST SWAP1 POP PUSH2 0x1964 DUP8 DUP3 PUSH2 0x1789 JUMP JUMPDEST PUSH1 0x8 SLOAD PUSH2 0x198D SWAP1 DUP5 SWAP1 PUSH1 0x1 PUSH1 0x1 PUSH1 0xA0 SHL SUB DUP2 AND SWAP1 PUSH1 0x1 PUSH1 0xA0 SHL SWAP1 DIV PUSH1 0x1 PUSH1 0x1 PUSH1 0x60 SHL SUB AND PUSH2 0x1CF4 JUMP JUMPDEST PUSH2 0x1996 DUP5 PUSH2 0x2653 JUMP JUMPDEST SWAP4 POP DUP3 PUSH1 0x1 ADD SWAP3 POP POP POP PUSH2 0x1936 JUMP JUMPDEST POP PUSH2 0x19B0 DUP5 DUP5 PUSH2 0x1E02 JUMP JUMPDEST PUSH1 0xA SSTORE POP POP POP JUMP JUMPDEST PUSH1 0x12 SLOAD PUSH1 0x40 MLOAD PUSH1 0x0 SWAP2 PUSH2 0x100 SWAP1 DIV PUSH1 0x1 PUSH1 0x1 PUSH1 0xA0 SHL SUB AND SWAP1 SELFBALANCE SWAP1 DUP4 DUP2 DUP2 DUP2 DUP6 DUP8 GAS CALL SWAP3 POP POP POP RETURNDATASIZE DUP1 PUSH1 0x0 DUP2 EQ PUSH2 0x1A0A JUMPI PUSH1 0x40 MLOAD SWAP2 POP PUSH1 0x1F NOT PUSH1 0x3F RETURNDATASIZE ADD AND DUP3 ADD PUSH1 0x40 MSTORE RETURNDATASIZE DUP3 MSTORE RETURNDATASIZE PUSH1 0x0 PUSH1 0x20 DUP5 ADD RETURNDATACOPY PUSH2 0x1A0F JUMP JUMPDEST PUSH1 0x60 SWAP2 POP JUMPDEST POP POP SWAP1 POP DUP1 PUSH2 0xA49 JUMPI PUSH1 0x0 DUP1 REVERT JUMPDEST PUSH1 0x60 PUSH1 0xD DUP1 SLOAD PUSH2 0x80A SWAP1 PUSH2 0x23B2 JUMP JUMPDEST PUSH1 0x60 PUSH1 0x0 PUSH2 0x1A39 DUP4 PUSH2 0x1E7C JUMP JUMPDEST PUSH1 0x1 ADD SWAP1 POP PUSH1 0x0 DUP2 PUSH8 0xFFFFFFFFFFFFFFFF DUP2 GT ISZERO PUSH2 0x1A59 JUMPI PUSH2 0x1A59 PUSH2 0x21F3 JUMP JUMPDEST PUSH1 0x40 MLOAD SWAP1 DUP1 DUP3 MSTORE DUP1 PUSH1 0x1F ADD PUSH1 0x1F NOT AND PUSH1 0x20 ADD DUP3 ADD PUSH1 0x40 MSTORE DUP1 ISZERO PUSH2 0x1A83 JUMPI PUSH1 0x20 DUP3 ADD DUP2 DUP1 CALLDATASIZE DUP4 CALLDATACOPY ADD SWAP1 POP JUMPDEST POP SWAP1 POP DUP2 DUP2 ADD PUSH1 0x20 ADD JUMPDEST PUSH1 0x0 NOT ADD PUSH16 0x181899199A1A9B1B9C1CB0B131B232B3 PUSH1 0x81 SHL PUSH1 0xA DUP7 MOD BYTE DUP2 MSTORE8 PUSH1 0xA DUP6 DIV SWAP5 POP DUP5 PUSH2 0x1A8D JUMPI POP SWAP4 SWAP3 POP POP POP JUMP JUMPDEST PUSH1 0x0 PUSH1 0x1 PUSH2 0x1ACC DUP5 PUSH2 0x1039 JUMP JUMPDEST PUSH2 0x1AD6 SWAP2 SWAP1 PUSH2 0x2402 JUMP JUMPDEST PUSH1 0x0 DUP4 DUP2 MSTORE PUSH1 0x1 PUSH1 0x20 MSTORE PUSH1 0x40 SWAP1 KECCAK256 SLOAD SWAP1 SWAP2 POP DUP1 DUP3 EQ PUSH2 0x1B27 JUMPI PUSH1 0x1 PUSH1 0x1 PUSH1 0xA0 SHL SUB DUP5 AND PUSH1 0x0 SWAP1 DUP2 MSTORE PUSH1 0x20 DUP2 DUP2 MSTORE PUSH1 0x40 DUP1 DUP4 KECCAK256 DUP6 DUP5 MSTORE DUP3 MSTORE DUP1 DUP4 KECCAK256 SLOAD DUP5 DUP5 MSTORE DUP2 DUP5 KECCAK256 DUP2 SWAP1 SSTORE DUP4 MSTORE PUSH1 0x1 SWAP1 SWAP2 MSTORE SWAP1 KECCAK256 DUP2 SWAP1 SSTORE JUMPDEST POP PUSH1 0x0 SWAP2 DUP3 MSTORE PUSH1 0x1 PUSH1 0x20 SWAP1 DUP2 MSTORE PUSH1 0x40 DUP1 DUP5 KECCAK256 DUP5 SWAP1 SSTORE PUSH1 0x1 PUSH1 0x1 PUSH1 0xA0 SHL SUB SWAP1 SWAP5 AND DUP4 MSTORE DUP3 DUP2 MSTORE DUP4 DUP4 KECCAK256 SWAP2 DUP4 MSTORE MSTORE SWAP1 DUP2 KECCAK256 SSTORE JUMP JUMPDEST PUSH1 0x2 SLOAD PUSH1 0x0 SWAP1 PUSH2 0x1B6B SWAP1 PUSH1 0x1 SWAP1 PUSH2 0x2402 JUMP JUMPDEST PUSH1 0x0 DUP4 DUP2 MSTORE PUSH1 0x3 PUSH1 0x20 MSTORE PUSH1 0x40 DUP2 KECCAK256 SLOAD PUSH1 0x2 DUP1 SLOAD SWAP4 SWAP5 POP SWAP1 SWAP3 DUP5 SWAP1 DUP2 LT PUSH2 0x1B93 JUMPI PUSH2 0x1B93 PUSH2 0x244E JUMP JUMPDEST SWAP1 PUSH1 0x0 MSTORE PUSH1 0x20 PUSH1 0x0 KECCAK256 ADD SLOAD SWAP1 POP DUP1 PUSH1 0x2 DUP4 DUP2 SLOAD DUP2 LT PUSH2 0x1BB4 JUMPI PUSH2 0x1BB4 PUSH2 0x244E JUMP JUMPDEST PUSH1 0x0 SWAP2 DUP3 MSTORE PUSH1 0x20 DUP1 DUP4 KECCAK256 SWAP1 SWAP2 ADD SWAP3 SWAP1 SWAP3 SSTORE DUP3 DUP2 MSTORE PUSH1 0x3 SWAP1 SWAP2 MSTORE PUSH1 0x40 DUP1 DUP3 KECCAK256 DUP5 SWAP1 SSTORE DUP6 DUP3 MSTORE DUP2 KECCAK256 SSTORE PUSH1 0x2 DUP1 SLOAD DUP1 PUSH2 0x1BEC JUMPI PUSH2 0x1BEC PUSH2 0x266A JUMP JUMPDEST PUSH1 0x1 SWAP1 SUB DUP2 DUP2 SWAP1 PUSH1 0x0 MSTORE PUSH1 0x20 PUSH1 0x0 KECCAK256 ADD PUSH1 0x0 SWAP1 SSTORE SWAP1 SSTORE POP POP POP POP JUMP JUMPDEST PUSH1 0x0 PUSH2 0x1C13 DUP4 PUSH2 0x1039 JUMP JUMPDEST PUSH1 0x1 PUSH1 0x1 PUSH1 0xA0 SHL SUB SWAP1 SWAP4 AND PUSH1 0x0 SWAP1 DUP2 MSTORE PUSH1 0x20 DUP2 DUP2 MSTORE PUSH1 0x40 DUP1 DUP4 KECCAK256 DUP7 DUP5 MSTORE DUP3 MSTORE DUP1 DUP4 KECCAK256 DUP6 SWAP1 SSTORE SWAP4 DUP3 MSTORE PUSH1 0x1 SWAP1 MSTORE SWAP2 SWAP1 SWAP2 KECCAK256 SWAP2 SWAP1 SWAP2 SSTORE POP JUMP JUMPDEST PUSH2 0xA49 PUSH1 0x0 DUP3 PUSH2 0x1F54 JUMP JUMPDEST PUSH1 0x0 JUMPDEST PUSH1 0x20 DUP4 KECCAK256 SWAP1 POP DUP1 DUP4 MSTORE DUP2 DUP3 PUSH1 0x0 SUB MOD DUP2 LT PUSH2 0x1C58 JUMPI MOD SWAP2 SWAP1 POP JUMP JUMPDEST PUSH1 0x0 DUP3 DUP2 MSTORE PUSH1 0x9 PUSH1 0x20 MSTORE PUSH1 0x40 DUP2 KECCAK256 SLOAD DUP2 PUSH2 0x1C8E PUSH1 0x1 DUP6 PUSH2 0x2402 JUMP JUMPDEST PUSH1 0x0 DUP2 DUP2 MSTORE PUSH1 0x9 PUSH1 0x20 MSTORE PUSH1 0x40 SWAP1 KECCAK256 SLOAD SWAP1 SWAP2 POP DUP3 ISZERO PUSH2 0x1CAC JUMPI DUP3 PUSH2 0x1CAE JUMP JUMPDEST DUP6 JUMPDEST SWAP4 POP DUP2 DUP7 EQ PUSH2 0x1CD5 JUMPI DUP1 ISZERO PUSH2 0x1CC3 JUMPI DUP1 PUSH2 0x1CC5 JUMP JUMPDEST DUP2 JUMPDEST PUSH1 0x0 DUP8 DUP2 MSTORE PUSH1 0x9 PUSH1 0x20 MSTORE PUSH1 0x40 SWAP1 KECCAK256 SSTORE JUMPDEST DUP1 ISZERO PUSH2 0x1CEB JUMPI PUSH1 0x0 DUP3 DUP2 MSTORE PUSH1 0x9 PUSH1 0x20 MSTORE PUSH1 0x40 DUP2 KECCAK256 SSTORE JUMPDEST POP POP POP SWAP3 SWAP2 POP POP JUMP JUMPDEST PUSH2 0x2710 PUSH1 0x1 PUSH1 0x1 PUSH1 0x60 SHL SUB DUP3 AND GT ISZERO PUSH2 0x1D62 JUMPI PUSH1 0x40 MLOAD PUSH3 0x461BCD PUSH1 0xE5 SHL DUP2 MSTORE PUSH1 0x20 PUSH1 0x4 DUP3 ADD MSTORE PUSH1 0x2A PUSH1 0x24 DUP3 ADD MSTORE PUSH32 0x455243323938313A20726F79616C7479206665652077696C6C20657863656564 PUSH1 0x44 DUP3 ADD MSTORE PUSH10 0x2073616C655072696365 PUSH1 0xB0 SHL PUSH1 0x64 DUP3 ADD MSTORE PUSH1 0x84 ADD PUSH2 0xB61 JUMP JUMPDEST PUSH1 0x1 PUSH1 0x1 PUSH1 0xA0 SHL SUB DUP3 AND PUSH2 0x1DB8 JUMPI PUSH1 0x40 MLOAD PUSH3 0x461BCD PUSH1 0xE5 SHL DUP2 MSTORE PUSH1 0x20 PUSH1 0x4 DUP3 ADD MSTORE PUSH1 0x1B PUSH1 0x24 DUP3 ADD MSTORE PUSH32 0x455243323938313A20496E76616C696420706172616D65746572730000000000 PUSH1 0x44 DUP3 ADD MSTORE PUSH1 0x64 ADD PUSH2 0xB61 JUMP JUMPDEST PUSH1 0x40 DUP1 MLOAD DUP1 DUP3 ADD DUP3 MSTORE PUSH1 0x1 PUSH1 0x1 PUSH1 0xA0 SHL SUB SWAP4 DUP5 AND DUP2 MSTORE PUSH1 0x1 PUSH1 0x1 PUSH1 0x60 SHL SUB SWAP3 DUP4 AND PUSH1 0x20 DUP1 DUP4 ADD SWAP2 DUP3 MSTORE PUSH1 0x0 SWAP7 DUP8 MSTORE PUSH1 0x5 SWAP1 MSTORE SWAP2 SWAP1 SWAP5 KECCAK256 SWAP4 MLOAD SWAP1 MLOAD SWAP1 SWAP2 AND PUSH1 0x1 PUSH1 0xA0 SHL MUL SWAP2 AND OR SWAP1 SSTORE JUMP JUMPDEST PUSH1 0x0 PUSH2 0x1E0D DUP4 PUSH2 0x1357 JUMP JUMPDEST SWAP1 POP PUSH1 0x0 PUSH2 0x1E1B DUP4 DUP4 PUSH2 0x2680 JUMP JUMPDEST SWAP1 POP PUSH1 0x0 PUSH2 0x1E44 DUP6 PUSH8 0x3EC412A9852D173D PUSH1 0xC1 SHL PUSH1 0x1C SWAP1 DUP2 MSTORE PUSH1 0x0 SWAP2 SWAP1 SWAP2 MSTORE PUSH1 0xC KECCAK256 SLOAD PUSH1 0x20 SHR SWAP1 JUMP JUMPDEST PUSH8 0x3EC412A9852D173D PUSH1 0xC1 SHL PUSH1 0x1C SWAP1 DUP2 MSTORE PUSH1 0x0 DUP8 SWAP1 MSTORE PUSH1 0xC KECCAK256 DUP1 SLOAD PUSH1 0x20 DUP2 DUP2 SHR PUSH8 0xFFFFFFFFFFFFFFFF DUP6 AND XOR SWAP1 SHL XOR SWAP1 SSTORE SWAP1 POP PUSH2 0x1244 JUMP JUMPDEST PUSH1 0x0 DUP1 PUSH19 0x184F03E93FF9F4DAA797ED6E38ED64BF6A1F01 PUSH1 0x40 SHL DUP4 LT PUSH2 0x1EBB JUMPI PUSH19 0x184F03E93FF9F4DAA797ED6E38ED64BF6A1F01 PUSH1 0x40 SHL DUP4 DIV SWAP3 POP PUSH1 0x40 ADD JUMPDEST PUSH14 0x4EE2D6D415B85ACEF8100000000 DUP4 LT PUSH2 0x1EE7 JUMPI PUSH14 0x4EE2D6D415B85ACEF8100000000 DUP4 DIV SWAP3 POP PUSH1 0x20 ADD JUMPDEST PUSH7 0x2386F26FC10000 DUP4 LT PUSH2 0x1F05 JUMPI PUSH7 0x2386F26FC10000 DUP4 DIV SWAP3 POP PUSH1 0x10 ADD JUMPDEST PUSH4 0x5F5E100 DUP4 LT PUSH2 0x1F1D JUMPI PUSH4 0x5F5E100 DUP4 DIV SWAP3 POP PUSH1 0x8 ADD JUMPDEST PUSH2 0x2710 DUP4 LT PUSH2 0x1F31 JUMPI PUSH2 0x2710 DUP4 DIV SWAP3 POP PUSH1 0x4 ADD JUMPDEST PUSH1 0x64 DUP4 LT PUSH2 0x1F43 JUMPI PUSH1 0x64 DUP4 DIV SWAP3 POP PUSH1 0x2 ADD JUMPDEST PUSH1 0xA DUP4 LT PUSH2 0x7DA JUMPI PUSH1 0x1 ADD SWAP3 SWAP2 POP POP JUMP JUMPDEST PUSH1 0x0 PUSH2 0x1F5F DUP3 PUSH2 0xF60 JUMP JUMPDEST SWAP1 POP PUSH2 0x1F6F DUP2 PUSH1 0x0 DUP5 PUSH1 0x1 PUSH2 0x1557 JUMP JUMPDEST POP PUSH1 0x0 DUP2 DUP2 MSTORE PUSH1 0x1 PUSH1 0x1 PUSH1 0xA0 SHL SUB SWAP3 DUP4 AND PUSH8 0x3EC412A9852D173D PUSH1 0xC1 SHL DUP2 OR PUSH1 0x1C MSTORE PUSH1 0x20 SWAP1 SWAP2 KECCAK256 DUP3 ADD DUP3 ADD DUP1 SLOAD SWAP2 SWAP4 DUP3 AND SWAP2 DUP3 PUSH2 0x1FB4 JUMPI PUSH4 0xCEEA21B6 PUSH1 0x0 MSTORE PUSH1 0x4 PUSH1 0x1C REVERT JUMPDEST DUP3 PUSH1 0x0 MSTORE DUP2 PUSH1 0x1 ADD SLOAD DUP1 DUP7 EQ DUP5 DUP8 EQ OR DUP7 ISZERO OR PUSH2 0x1FE3 JUMPI PUSH1 0x30 PUSH1 0xC KECCAK256 SLOAD PUSH2 0x1FE3 JUMPI PUSH4 0x4B6E7F18 PUSH1 0x0 MSTORE PUSH1 0x4 PUSH1 0x1C REVERT JUMPDEST DUP1 ISZERO PUSH2 0x1FF1 JUMPI PUSH1 0x0 DUP4 PUSH1 0x1 ADD SSTORE JUMPDEST POP DUP3 XOR SWAP1 SSTORE PUSH1 0x1C PUSH1 0xC KECCAK256 DUP1 SLOAD PUSH1 0x0 NOT ADD SWAP1 SSTORE DUP2 PUSH1 0x0 DUP3 PUSH32 0xDDF252AD1BE2C89B69C2B068FC378DAA952BA7F163C4A11628F55A4DF523B3EF DUP3 DUP1 LOG4 POP POP POP JUMP JUMPDEST PUSH1 0x0 PUSH1 0x20 DUP3 DUP5 SUB SLT ISZERO PUSH2 0x2042 JUMPI PUSH1 0x0 DUP1 REVERT JUMPDEST DUP2 CALLDATALOAD PUSH1 0x1 PUSH1 0x1 PUSH1 0xE0 SHL SUB NOT DUP2 AND DUP2 EQ PUSH2 0x133C JUMPI PUSH1 0x0 DUP1 REVERT JUMPDEST DUP1 CALLDATALOAD DUP1 ISZERO ISZERO DUP2 EQ PUSH2 0xF99 JUMPI PUSH1 0x0 DUP1 REVERT JUMPDEST PUSH1 0x0 PUSH1 0x20 DUP3 DUP5 SUB SLT ISZERO PUSH2 0x207C JUMPI PUSH1 0x0 DUP1 REVERT JUMPDEST PUSH2 0x133C DUP3 PUSH2 0x205A JUMP JUMPDEST PUSH1 0x0 JUMPDEST DUP4 DUP2 LT ISZERO PUSH2 0x20A0 JUMPI DUP2 DUP2 ADD MLOAD DUP4 DUP3 ADD MSTORE PUSH1 0x20 ADD PUSH2 0x2088 JUMP JUMPDEST POP POP PUSH1 0x0 SWAP2 ADD MSTORE JUMP JUMPDEST PUSH1 0x20 DUP2 MSTORE PUSH1 0x0 DUP3 MLOAD DUP1 PUSH1 0x20 DUP5 ADD MSTORE PUSH2 0x20C8 DUP2 PUSH1 0x40 DUP6 ADD PUSH1 0x20 DUP8 ADD PUSH2 0x2085 JUMP JUMPDEST PUSH1 0x1F ADD PUSH1 0x1F NOT AND SWAP2 SWAP1 SWAP2 ADD PUSH1 0x40 ADD SWAP3 SWAP2 POP POP JUMP JUMPDEST PUSH1 0x0 PUSH1 0x20 DUP3 DUP5 SUB SLT ISZERO PUSH2 0x20EE JUMPI PUSH1 0x0 DUP1 REVERT JUMPDEST POP CALLDATALOAD SWAP2 SWAP1 POP JUMP JUMPDEST DUP1 CALLDATALOAD PUSH1 0x1 PUSH1 0x1 PUSH1 0xA0 SHL SUB DUP2 AND DUP2 EQ PUSH2 0xF99 JUMPI PUSH1 0x0 DUP1 REVERT JUMPDEST PUSH1 0x0 DUP1 PUSH1 0x40 DUP4 DUP6 SUB SLT ISZERO PUSH2 0x211F JUMPI PUSH1 0x0 DUP1 REVERT JUMPDEST PUSH2 0x2128 DUP4 PUSH2 0x20F5 JUMP JUMPDEST SWAP5 PUSH1 0x20 SWAP4 SWAP1 SWAP4 ADD CALLDATALOAD SWAP4 POP POP POP JUMP JUMPDEST PUSH1 0x0 DUP1 PUSH1 0x0 PUSH1 0x60 DUP5 DUP7 SUB SLT ISZERO PUSH2 0x214B JUMPI PUSH1 0x0 DUP1 REVERT JUMPDEST PUSH2 0x2154 DUP5 PUSH2 0x20F5 JUMP JUMPDEST SWAP3 POP PUSH2 0x2162 PUSH1 0x20 DUP6 ADD PUSH2 0x20F5 JUMP JUMPDEST SWAP2 POP PUSH1 0x40 DUP5 ADD CALLDATALOAD SWAP1 POP SWAP3 POP SWAP3 POP SWAP3 JUMP JUMPDEST PUSH1 0x0 DUP1 PUSH1 0x40 DUP4 DUP6 SUB SLT ISZERO PUSH2 0x2185 JUMPI PUSH1 0x0 DUP1 REVERT JUMPDEST POP POP DUP1 CALLDATALOAD SWAP3 PUSH1 0x20 SWAP1 SWAP2 ADD CALLDATALOAD SWAP2 POP JUMP JUMPDEST PUSH1 0x0 PUSH1 0x20 DUP3 DUP5 SUB SLT ISZERO PUSH2 0x21A6 JUMPI PUSH1 0x0 DUP1 REVERT JUMPDEST PUSH2 0x133C DUP3 PUSH2 0x20F5 JUMP JUMPDEST PUSH1 0x20 DUP1 DUP3 MSTORE DUP3 MLOAD DUP3 DUP3 ADD DUP2 SWAP1 MSTORE PUSH1 0x0 SWAP2 SWAP1 DUP5 DUP3 ADD SWAP1 PUSH1 0x40 DUP6 ADD SWAP1 DUP5 JUMPDEST DUP2 DUP2 LT ISZERO PUSH2 0x21E7 JUMPI DUP4 MLOAD DUP4 MSTORE SWAP3 DUP5 ADD SWAP3 SWAP2 DUP5 ADD SWAP2 PUSH1 0x1 ADD PUSH2 0x21CB JUMP JUMPDEST POP SWAP1 SWAP7 SWAP6 POP POP POP POP POP POP JUMP JUMPDEST PUSH4 0x4E487B71 PUSH1 0xE0 SHL PUSH1 0x0 MSTORE PUSH1 0x41 PUSH1 0x4 MSTORE PUSH1 0x24 PUSH1 0x0 REVERT JUMPDEST PUSH1 0x0 PUSH1 0x20 DUP3 DUP5 SUB SLT ISZERO PUSH2 0x221B JUMPI PUSH1 0x0 DUP1 REVERT JUMPDEST DUP2 CALLDATALOAD PUSH8 0xFFFFFFFFFFFFFFFF DUP1 DUP3 GT ISZERO PUSH2 0x2233 JUMPI PUSH1 0x0 DUP1 REVERT JUMPDEST DUP2 DUP5 ADD SWAP2 POP DUP5 PUSH1 0x1F DUP4 ADD SLT PUSH2 0x2247 JUMPI PUSH1 0x0 DUP1 REVERT JUMPDEST DUP2 CALLDATALOAD DUP2 DUP2 GT ISZERO PUSH2 0x2259 JUMPI PUSH2 0x2259 PUSH2 0x21F3 JUMP JUMPDEST PUSH1 0x40 MLOAD PUSH1 0x1F DUP3 ADD PUSH1 0x1F NOT SWAP1 DUP2 AND PUSH1 0x3F ADD AND DUP2 ADD SWAP1 DUP4 DUP3 GT DUP2 DUP4 LT OR ISZERO PUSH2 0x2281 JUMPI PUSH2 0x2281 PUSH2 0x21F3 JUMP JUMPDEST DUP2 PUSH1 0x40 MSTORE DUP3 DUP2 MSTORE DUP8 PUSH1 0x20 DUP5 DUP8 ADD ADD GT ISZERO PUSH2 0x229A JUMPI PUSH1 0x0 DUP1 REVERT JUMPDEST DUP3 PUSH1 0x20 DUP7 ADD PUSH1 0x20 DUP4 ADD CALLDATACOPY PUSH1 0x0 SWAP3 DUP2 ADD PUSH1 0x20 ADD SWAP3 SWAP1 SWAP3 MSTORE POP SWAP6 SWAP5 POP POP POP POP POP JUMP JUMPDEST PUSH1 0x0 DUP1 PUSH1 0x40 DUP4 DUP6 SUB SLT ISZERO PUSH2 0x22CD JUMPI PUSH1 0x0 DUP1 REVERT JUMPDEST PUSH2 0x22D6 DUP4 PUSH2 0x20F5 JUMP JUMPDEST SWAP2 POP PUSH2 0x22E4 PUSH1 0x20 DUP5 ADD PUSH2 0x205A JUMP JUMPDEST SWAP1 POP SWAP3 POP SWAP3 SWAP1 POP JUMP JUMPDEST PUSH1 0x0 DUP1 PUSH1 0x0 DUP1 PUSH1 0x0 PUSH1 0x80 DUP7 DUP9 SUB SLT ISZERO PUSH2 0x2305 JUMPI PUSH1 0x0 DUP1 REVERT JUMPDEST PUSH2 0x230E DUP7 PUSH2 0x20F5 JUMP JUMPDEST SWAP5 POP PUSH2 0x231C PUSH1 0x20 DUP8 ADD PUSH2 0x20F5 JUMP JUMPDEST SWAP4 POP PUSH1 0x40 DUP7 ADD CALLDATALOAD SWAP3 POP PUSH1 0x60 DUP7 ADD CALLDATALOAD PUSH8 0xFFFFFFFFFFFFFFFF DUP1 DUP3 GT ISZERO PUSH2 0x2340 JUMPI PUSH1 0x0 DUP1 REVERT JUMPDEST DUP2 DUP9 ADD SWAP2 POP DUP9 PUSH1 0x1F DUP4 ADD SLT PUSH2 0x2354 JUMPI PUSH1 0x0 DUP1 REVERT JUMPDEST DUP2 CALLDATALOAD DUP2 DUP2 GT ISZERO PUSH2 0x2363 JUMPI PUSH1 0x0 DUP1 REVERT JUMPDEST DUP10 PUSH1 0x20 DUP3 DUP6 ADD ADD GT ISZERO PUSH2 0x2375 JUMPI PUSH1 0x0 DUP1 REVERT JUMPDEST SWAP7 SWAP10 SWAP6 SWAP9 POP SWAP4 SWAP7 POP PUSH1 0x20 ADD SWAP5 SWAP4 SWAP3 POP POP POP JUMP JUMPDEST PUSH1 0x0 DUP1 PUSH1 0x40 DUP4 DUP6 SUB SLT ISZERO PUSH2 0x239B JUMPI PUSH1 0x0 DUP1 REVERT JUMPDEST PUSH2 0x23A4 DUP4 PUSH2 0x20F5 JUMP JUMPDEST SWAP2 POP PUSH2 0x22E4 PUSH1 0x20 DUP5 ADD PUSH2 0x20F5 JUMP JUMPDEST PUSH1 0x1 DUP2 DUP2 SHR SWAP1 DUP3 AND DUP1 PUSH2 0x23C6 JUMPI PUSH1 0x7F DUP3 AND SWAP2 POP JUMPDEST PUSH1 0x20 DUP3 LT DUP2 SUB PUSH2 0x23E6 JUMPI PUSH4 0x4E487B71 PUSH1 0xE0 SHL PUSH1 0x0 MSTORE PUSH1 0x22 PUSH1 0x4 MSTORE PUSH1 0x24 PUSH1 0x0 REVERT JUMPDEST POP SWAP2 SWAP1 POP JUMP JUMPDEST PUSH4 0x4E487B71 PUSH1 0xE0 SHL PUSH1 0x0 MSTORE PUSH1 0x11 PUSH1 0x4 MSTORE PUSH1 0x24 PUSH1 0x0 REVERT JUMPDEST DUP2 DUP2 SUB DUP2 DUP2 GT ISZERO PUSH2 0x7DA JUMPI PUSH2 0x7DA PUSH2 0x23EC JUMP JUMPDEST DUP1 DUP3 MUL DUP2 ISZERO DUP3 DUP3 DIV DUP5 EQ OR PUSH2 0x7DA JUMPI PUSH2 0x7DA PUSH2 0x23EC JUMP JUMPDEST PUSH1 0x0 DUP3 PUSH2 0x2449 JUMPI PUSH4 0x4E487B71 PUSH1 0xE0 SHL PUSH1 0x0 MSTORE PUSH1 0x12 PUSH1 0x4 MSTORE PUSH1 0x24 PUSH1 0x0 REVERT JUMPDEST POP DIV SWAP1 JUMP JUMPDEST PUSH4 0x4E487B71 PUSH1 0xE0 SHL PUSH1 0x0 MSTORE PUSH1 0x32 PUSH1 0x4 MSTORE PUSH1 0x24 PUSH1 0x0 REVERT JUMPDEST PUSH1 0x0 PUSH1 0x1 DUP3 ADD PUSH2 0x2476 JUMPI PUSH2 0x2476 PUSH2 0x23EC JUMP JUMPDEST POP PUSH1 0x1 ADD SWAP1 JUMP JUMPDEST PUSH1 0x1F DUP3 GT ISZERO PUSH2 0xA33 JUMPI PUSH1 0x0 DUP2 DUP2 MSTORE PUSH1 0x20 DUP2 KECCAK256 PUSH1 0x1F DUP6 ADD PUSH1 0x5 SHR DUP2 ADD PUSH1 0x20 DUP7 LT ISZERO PUSH2 0x24A4 JUMPI POP DUP1 JUMPDEST PUSH1 0x1F DUP6 ADD PUSH1 0x5 SHR DUP3 ADD SWAP2 POP JUMPDEST DUP2 DUP2 LT ISZERO PUSH2 0x1781 JUMPI DUP3 DUP2 SSTORE PUSH1 0x1 ADD PUSH2 0x24B0 JUMP JUMPDEST DUP2 MLOAD PUSH8 0xFFFFFFFFFFFFFFFF DUP2 GT ISZERO PUSH2 0x24DD JUMPI PUSH2 0x24DD PUSH2 0x21F3 JUMP JUMPDEST PUSH2 0x24F1 DUP2 PUSH2 0x24EB DUP5 SLOAD PUSH2 0x23B2 JUMP JUMPDEST DUP5 PUSH2 0x247D JUMP JUMPDEST PUSH1 0x20 DUP1 PUSH1 0x1F DUP4 GT PUSH1 0x1 DUP2 EQ PUSH2 0x2526 JUMPI PUSH1 0x0 DUP5 ISZERO PUSH2 0x250E JUMPI POP DUP6 DUP4 ADD MLOAD JUMPDEST PUSH1 0x0 NOT PUSH1 0x3 DUP7 SWAP1 SHL SHR NOT AND PUSH1 0x1 DUP6 SWAP1 SHL OR DUP6 SSTORE PUSH2 0x1781 JUMP JUMPDEST PUSH1 0x0 DUP6 DUP2 MSTORE PUSH1 0x20 DUP2 KECCAK256 PUSH1 0x1F NOT DUP7 AND SWAP2 JUMPDEST DUP3 DUP2 LT ISZERO PUSH2 0x2555 JUMPI DUP9 DUP7 ADD MLOAD DUP3 SSTORE SWAP5 DUP5 ADD SWAP5 PUSH1 0x1 SWAP1 SWAP2 ADD SWAP1 DUP5 ADD PUSH2 0x2536 JUMP JUMPDEST POP DUP6 DUP3 LT ISZERO PUSH2 0x2573 JUMPI DUP8 DUP6 ADD MLOAD PUSH1 0x0 NOT PUSH1 0x3 DUP9 SWAP1 SHL PUSH1 0xF8 AND SHR NOT AND DUP2 SSTORE JUMPDEST POP POP POP POP POP PUSH1 0x1 SWAP1 DUP2 SHL ADD SWAP1 SSTORE POP JUMP JUMPDEST DUP1 DUP3 ADD DUP1 DUP3 GT ISZERO PUSH2 0x7DA JUMPI PUSH2 0x7DA PUSH2 0x23EC JUMP JUMPDEST PUSH1 0x0 DUP5 MLOAD PUSH1 0x20 PUSH2 0x25A9 DUP3 DUP6 DUP4 DUP11 ADD PUSH2 0x2085 JUMP JUMPDEST DUP2 DUP5 ADD SWAP2 POP PUSH9 0x486F6F64696525323 PUSH1 0xBC SHL DUP3 MSTORE PUSH1 0x9 DUP7 MLOAD PUSH2 0x25D0 DUP2 DUP4 DUP7 ADD DUP6 DUP12 ADD PUSH2 0x2085 JUMP JUMPDEST DUP7 SLOAD SWAP4 ADD SWAP3 PUSH1 0x0 SWAP1 PUSH2 0x25E1 DUP2 PUSH2 0x23B2 JUMP JUMPDEST PUSH1 0x1 DUP3 DUP2 AND DUP1 ISZERO PUSH2 0x25F9 JUMPI PUSH1 0x1 DUP2 EQ PUSH2 0x2612 JUMPI PUSH2 0x2642 JUMP JUMPDEST PUSH1 0xFF NOT DUP5 AND DUP9 DUP8 ADD MSTORE DUP3 ISZERO ISZERO DUP4 MUL DUP9 ADD DUP7 ADD SWAP5 POP PUSH2 0x2642 JUMP JUMPDEST DUP11 PUSH1 0x0 MSTORE DUP7 PUSH1 0x0 KECCAK256 PUSH1 0x0 JUMPDEST DUP5 DUP2 LT ISZERO PUSH2 0x2638 JUMPI DUP2 SLOAD DUP11 DUP3 ADD DUP10 ADD MSTORE SWAP1 DUP4 ADD SWAP1 DUP9 ADD PUSH2 0x261D JUMP JUMPDEST POP POP DUP6 DUP4 DUP10 ADD ADD SWAP5 POP JUMPDEST POP SWAP3 SWAP12 SWAP11 POP POP POP POP POP POP POP POP POP POP POP JUMP JUMPDEST PUSH1 0x0 DUP2 PUSH2 0x2662 JUMPI PUSH2 0x2662 PUSH2 0x23EC JUMP JUMPDEST POP PUSH1 0x0 NOT ADD SWAP1 JUMP JUMPDEST PUSH4 0x4E487B71 PUSH1 0xE0 SHL PUSH1 0x0 MSTORE PUSH1 0x31 PUSH1 0x4 MSTORE PUSH1 0x24 PUSH1 0x0 REVERT JUMPDEST PUSH4 0xFFFFFFFF DUP2 DUP2 AND DUP4 DUP3 AND ADD SWAP1 DUP1 DUP3 GT ISZERO PUSH2 0x269D JUMPI PUSH2 0x269D PUSH2 0x23EC JUMP JUMPDEST POP SWAP3 SWAP2 POP POP JUMP INVALID PUSH9 0x747470733A2F2F6261 PUSH7 0x6B726569676864 PUSH18 0x6374676F626F7434776468726E7276716476 PUSH23 0x33617868766669736C6C63357235356D32616A77776776 PUSH8 0x766E3773712E6970 PUSH7 0x732E6E66747374 PUSH16 0x726167652E6C696E6B2FA26469706673 PC 0x22 SLT KECCAK256 0xD0 0xDB ADDRESS 0xEE RETURN 0xE3 SSTORE POP 0xA8 INVALID ORIGIN DUP2 0xBB SIGNEXTEND DUP1 0xD3 0x5E 0xD3 TIMESTAMP PUSH10 0x1FA144132F096ECFDB86 ORIGIN PUSH16 0x64736F6C634300081200330000000000 "},"methodIdentifiers":{"approve(address,uint256)":"095ea7b3","balanceOf(address)":"70a08231","baseExtension()":"c6682862","baseURI()":"6c0360eb","burnNFT(uint256)":"2890e0d7","contractURI()":"e8a3d485","exists(uint256)":"4f558e79","fee()":"ddca3f43","getApproved(uint256)":"081812fc","getTokenPrice()":"4b94f50e","isApprovedForAll(address,address)":"e985e9c5","maxSupply()":"d5abeb01","mint(uint256)":"a0712d68","name()":"06fdde03","numberMinted(address)":"dc33e681","owner()":"8da5cb5b","ownerOf(uint256)":"6352211e","pause(bool)":"02329a29","paused()":"5c975abb","price()":"a035b1fe","remainingSupply()":"da0239a6","renounceOwnership()":"715018a6","royaltyInfo(uint256,uint256)":"2a55205a","royaltyReceiver()":"9fbc8713","safeTransferFrom(address,address,uint256)":"42842e0e","safeTransferFrom(address,address,uint256,bytes)":"b88d4fde","sendUpgradedToken(address,uint256)":"599ebacf","setApprovalForAll(address,bool)":"a22cb465","setBaseExtension(string)":"da3ef23f","setBaseURI(string)":"55f804b3","setTokenPrice(uint256)":"6a61e5fc","supportsInterface(bytes4)":"01ffc9a7","symbol()":"95d89b41","tokenByIndex(uint256)":"4f6ccce7","tokenOfOwnerByIndex(address,uint256)":"2f745c59","tokenURI(uint256)":"c87b56dd","totalSupply()":"18160ddd","transferFrom(address,address,uint256)":"23b872dd","transferOwnership(address)":"f2fde38b","upgradeDiamondBundle()":"34784a51","upgradePlatinumBundle()":"6237023e","walletOfOwner(address)":"438b6300","withdrawAddress()":"1581b600"}}}}}