{"contracts/KRWN.sol":{"KRWN":{"abi":[{"inputs":[{"internalType":"string","name":"_initBaseURI","type":"string"}],"stateMutability":"nonpayable","type":"constructor"},{"inputs":[],"name":"AccountBalanceOverflow","type":"error"},{"inputs":[],"name":"BalanceQueryForZeroAddress","type":"error"},{"inputs":[],"name":"ContractsCannotMint","type":"error"},{"inputs":[],"name":"MustMintAtLeastOneToken","type":"error"},{"inputs":[],"name":"NotEnoughAvailableTokens","type":"error"},{"inputs":[],"name":"NotOwnerNorApproved","type":"error"},{"inputs":[],"name":"TokenAlreadyExists","type":"error"},{"inputs":[],"name":"TokenDoesNotExist","type":"error"},{"inputs":[],"name":"TransferFromIncorrectOwner","type":"error"},{"inputs":[],"name":"TransferToNonERC721ReceiverImplementer","type":"error"},{"inputs":[],"name":"TransferToZeroAddress","type":"error"},{"anonymous":false,"inputs":[{"indexed":true,"internalType":"address","name":"owner","type":"address"},{"indexed":true,"internalType":"address","name":"account","type":"address"},{"indexed":true,"internalType":"uint256","name":"id","type":"uint256"}],"name":"Approval","type":"event"},{"anonymous":false,"inputs":[{"indexed":true,"internalType":"address","name":"owner","type":"address"},{"indexed":true,"internalType":"address","name":"operator","type":"address"},{"indexed":false,"internalType":"bool","name":"isApproved","type":"bool"}],"name":"ApprovalForAll","type":"event"},{"anonymous":false,"inputs":[{"indexed":true,"internalType":"address","name":"previousOwner","type":"address"},{"indexed":true,"internalType":"address","name":"newOwner","type":"address"}],"name":"OwnershipTransferred","type":"event"},{"anonymous":false,"inputs":[{"indexed":true,"internalType":"address","name":"from","type":"address"},{"indexed":true,"internalType":"address","name":"to","type":"address"},{"indexed":true,"internalType":"uint256","name":"id","type":"uint256"}],"name":"Transfer","type":"event"},{"inputs":[{"internalType":"address","name":"account","type":"address"},{"internalType":"uint256","name":"id","type":"uint256"}],"name":"approve","outputs":[],"stateMutability":"payable","type":"function"},{"inputs":[{"internalType":"address","name":"owner","type":"address"}],"name":"balanceOf","outputs":[{"internalType":"uint256","name":"result","type":"uint256"}],"stateMutability":"view","type":"function"},{"inputs":[],"name":"baseExtension","outputs":[{"internalType":"string","name":"","type":"string"}],"stateMutability":"view","type":"function"},{"inputs":[],"name":"baseURI","outputs":[{"internalType":"string","name":"","type":"string"}],"stateMutability":"view","type":"function"},{"inputs":[{"internalType":"uint256","name":"tokenId","type":"uint256"}],"name":"burnNFT","outputs":[],"stateMutability":"nonpayable","type":"function"},{"inputs":[],"name":"contractURI","outputs":[{"internalType":"string","name":"","type":"string"}],"stateMutability":"pure","type":"function"},{"inputs":[{"internalType":"uint256","name":"tokenId","type":"uint256"}],"name":"exists","outputs":[{"internalType":"bool","name":"","type":"bool"}],"stateMutability":"view","type":"function"},{"inputs":[],"name":"fee","outputs":[{"internalType":"uint96","name":"","type":"uint96"}],"stateMutability":"view","type":"function"},{"inputs":[{"internalType":"uint256","name":"id","type":"uint256"}],"name":"getApproved","outputs":[{"internalType":"address","name":"result","type":"address"}],"stateMutability":"view","type":"function"},{"inputs":[],"name":"getTokenPrice","outputs":[{"internalType":"uint256","name":"","type":"uint256"}],"stateMutability":"view","type":"function"},{"inputs":[{"internalType":"address","name":"owner","type":"address"},{"internalType":"address","name":"operator","type":"address"}],"name":"isApprovedForAll","outputs":[{"internalType":"bool","name":"result","type":"bool"}],"stateMutability":"view","type":"function"},{"inputs":[{"internalType":"uint256","name":"_tokenId","type":"uint256"}],"name":"isReservedToken","outputs":[{"internalType":"bool","name":"","type":"bool"}],"stateMutability":"view","type":"function"},{"inputs":[],"name":"maxSupply","outputs":[{"internalType":"uint256","name":"","type":"uint256"}],"stateMutability":"view","type":"function"},{"inputs":[{"internalType":"address","name":"_to","type":"address"},{"internalType":"uint256","name":"tokenNum","type":"uint256"}],"name":"mint","outputs":[],"stateMutability":"payable","type":"function"},{"inputs":[],"name":"name","outputs":[{"internalType":"string","name":"","type":"string"}],"stateMutability":"view","type":"function"},{"inputs":[{"internalType":"address","name":"minter","type":"address"}],"name":"numberMinted","outputs":[{"internalType":"uint32","name":"","type":"uint32"}],"stateMutability":"view","type":"function"},{"inputs":[],"name":"owner","outputs":[{"internalType":"address","name":"","type":"address"}],"stateMutability":"view","type":"function"},{"inputs":[{"internalType":"uint256","name":"id","type":"uint256"}],"name":"ownerOf","outputs":[{"internalType":"address","name":"result","type":"address"}],"stateMutability":"view","type":"function"},{"inputs":[{"internalType":"bool","name":"_state","type":"bool"}],"name":"pause","outputs":[],"stateMutability":"nonpayable","type":"function"},{"inputs":[],"name":"paused","outputs":[{"internalType":"bool","name":"","type":"bool"}],"stateMutability":"view","type":"function"},{"inputs":[],"name":"price","outputs":[{"internalType":"uint256","name":"","type":"uint256"}],"stateMutability":"view","type":"function"},{"inputs":[],"name":"remainingSupply","outputs":[{"internalType":"uint256","name":"","type":"uint256"}],"stateMutability":"view","type":"function"},{"inputs":[],"name":"renounceOwnership","outputs":[],"stateMutability":"nonpayable","type":"function"},{"inputs":[{"internalType":"uint256","name":"tokenId","type":"uint256"},{"internalType":"uint256","name":"salePrice","type":"uint256"}],"name":"royaltyInfo","outputs":[{"internalType":"address","name":"","type":"address"},{"internalType":"uint256","name":"","type":"uint256"}],"stateMutability":"view","type":"function"},{"inputs":[],"name":"royaltyReceiver","outputs":[{"internalType":"address","name":"","type":"address"}],"stateMutability":"view","type":"function"},{"inputs":[{"internalType":"address","name":"from","type":"address"},{"internalType":"address","name":"to","type":"address"},{"internalType":"uint256","name":"id","type":"uint256"}],"name":"safeTransferFrom","outputs":[],"stateMutability":"payable","type":"function"},{"inputs":[{"internalType":"address","name":"from","type":"address"},{"internalType":"address","name":"to","type":"address"},{"internalType":"uint256","name":"id","type":"uint256"},{"internalType":"bytes","name":"data","type":"bytes"}],"name":"safeTransferFrom","outputs":[],"stateMutability":"payable","type":"function"},{"inputs":[{"internalType":"address","name":"_to","type":"address"},{"internalType":"uint256","name":"_tokenId","type":"uint256"}],"name":"sendUpgradedToken","outputs":[],"stateMutability":"nonpayable","type":"function"},{"inputs":[{"internalType":"address","name":"operator","type":"address"},{"internalType":"bool","name":"isApproved","type":"bool"}],"name":"setApprovalForAll","outputs":[],"stateMutability":"nonpayable","type":"function"},{"inputs":[{"internalType":"string","name":"_newBaseExtension","type":"string"}],"name":"setBaseExtension","outputs":[],"stateMutability":"nonpayable","type":"function"},{"inputs":[{"internalType":"string","name":"_newBaseURI","type":"string"}],"name":"setBaseURI","outputs":[],"stateMutability":"nonpayable","type":"function"},{"inputs":[{"internalType":"uint256","name":"_price","type":"uint256"}],"name":"setTokenPrice","outputs":[],"stateMutability":"nonpayable","type":"function"},{"inputs":[{"internalType":"bytes4","name":"interfaceId","type":"bytes4"}],"name":"supportsInterface","outputs":[{"internalType":"bool","name":"","type":"bool"}],"stateMutability":"view","type":"function"},{"inputs":[],"name":"symbol","outputs":[{"internalType":"string","name":"","type":"string"}],"stateMutability":"view","type":"function"},{"inputs":[{"internalType":"uint256","name":"index","type":"uint256"}],"name":"tokenByIndex","outputs":[{"internalType":"uint256","name":"","type":"uint256"}],"stateMutability":"view","type":"function"},{"inputs":[{"internalType":"address","name":"owner","type":"address"},{"internalType":"uint256","name":"index","type":"uint256"}],"name":"tokenOfOwnerByIndex","outputs":[{"internalType":"uint256","name":"","type":"uint256"}],"stateMutability":"view","type":"function"},{"inputs":[{"internalType":"uint256","name":"tokenId","type":"uint256"}],"name":"tokenURI","outputs":[{"internalType":"string","name":"","type":"string"}],"stateMutability":"view","type":"function"},{"inputs":[],"name":"totalSupply","outputs":[{"internalType":"uint256","name":"","type":"uint256"}],"stateMutability":"view","type":"function"},{"inputs":[{"internalType":"address","name":"from","type":"address"},{"internalType":"address","name":"to","type":"address"},{"internalType":"uint256","name":"id","type":"uint256"}],"name":"transferFrom","outputs":[],"stateMutability":"payable","type":"function"},{"inputs":[{"internalType":"address","name":"newOwner","type":"address"}],"name":"transferOwnership","outputs":[],"stateMutability":"nonpayable","type":"function"},{"inputs":[],"name":"upgradeDiamondBundle","outputs":[],"stateMutability":"payable","type":"function"},{"inputs":[],"name":"upgradePlatinumBundle","outputs":[],"stateMutability":"payable","type":"function"},{"inputs":[{"internalType":"address","name":"_owner","type":"address"}],"name":"walletOfOwner","outputs":[{"internalType":"uint256[]","name":"","type":"uint256[]"}],"stateMutability":"view","type":"function"},{"inputs":[],"name":"withdraw","outputs":[],"stateMutability":"nonpayable","type":"function"},{"inputs":[],"name":"withdrawAddress","outputs":[{"internalType":"address","name":"","type":"address"}],"stateMutability":"view","type":"function"}],"evm":{"bytecode":{"linkReferences":{},"object":"7501f48624523c8ae280ebdf7f720332cda62620fe1dad600855610320604052600160a0908152600460c052606d60e052606a61010052600b61012052600e61014052608761016052608a610180526101556101a05261015c6101c05261015f6101e0526101666102005261017a610220526101756102405261026d61026052610272610280526102ab6102a0526102ac6102c0526102e56102e05261031c61030052620000b290600990601462000302565b506040805161014081018252610144815261014660208201526101b9918101919091526101be606082015261025d608082015261026060a082015261028e60c082015261033560e082015261033c61010082015261028d6101208201526200011e90600a908162000302565b50604080518082019091526005815264173539b7b760d91b60208201526010906200014a908262000414565b5066470de4df82000060115560006012819055601355601480546001600160a81b031916743b715d4f5219510c7f77db4388ebc0a1436b8430001790553480156200019457600080fd5b5060405162002e8f38038062002e8f833981016040819052620001b791620004e0565b60408051808201825260048082526325a92ba760e11b6020808401829052845180860190955291845290830152906122bb6006620001f6848262000414565b50600762000205838262000414565b506080819052600c55506200021c90503362000233565b6001600e556200022c8162000285565b50620005b5565b600d80546001600160a01b038381166001600160a01b0319831681179093556040519116919082907f8be0079c531659141344cd1fd0a4f28419497f9722a3daafe3b4186f6b6457e090600090a35050565b6200028f620002a1565b600f6200029d828262000414565b5050565b600d546001600160a01b03163314620003005760405162461bcd60e51b815260206004820181905260248201527f4f776e61626c653a2063616c6c6572206973206e6f7420746865206f776e6572604482015260640160405180910390fd5b565b82805482825590600052602060002090810192821562000346579160200282015b8281111562000346578251829061ffff1690559160200191906001019062000323565b506200035492915062000358565b5090565b5b8082111562000354576000815560010162000359565b634e487b7160e01b600052604160045260246000fd5b600181811c908216806200039a57607f821691505b602082108103620003bb57634e487b7160e01b600052602260045260246000fd5b50919050565b601f8211156200040f57600081815260208120601f850160051c81016020861015620003ea5750805b601f850160051c820191505b818110156200040b57828155600101620003f6565b5050505b505050565b81516001600160401b038111156200043057620004306200036f565b620004488162000441845462000385565b84620003c1565b602080601f831160018114620004805760008415620004675750858301515b600019600386901b1c1916600185901b1785556200040b565b600085815260208120601f198616915b82811015620004b15788860151825594840194600190910190840162000490565b5085821015620004d05787850151600019600388901b60f8161c191681555b5050505050600190811b01905550565b60006020808385031215620004f457600080fd5b82516001600160401b03808211156200050c57600080fd5b818501915085601f8301126200052157600080fd5b8151818111156200053657620005366200036f565b604051601f8201601f19908116603f011681019083821181831017156200056157620005616200036f565b8160405282815288868487010111156200057a57600080fd5b600093505b828410156200059e57848401860151818501870152928501926200057f565b600086848301015280965050505050505092915050565b6080516128a2620005ed600039600081816106c90152818161091701528181610bd801528181610d860152610fd901526128a26000f3fe6080604052600436106102725760003560e01c80636237023e1161014f578063a22cb465116100c1578063da3ef23f1161007a578063da3ef23f14610701578063dc33e68114610721578063ddca3f4314610756578063e8a3d48514610795578063e985e9c5146107aa578063f2fde38b146107e057600080fd5b8063a22cb4651461064f578063b88d4fde1461066f578063c668286214610682578063c87b56dd14610697578063d5abeb01146106b7578063da0239a6146106eb57600080fd5b8063715018a611610113578063715018a6146105b157806373853f63146105c65780638da5cb5b146105e657806395d89b41146106045780639fbc871314610619578063a035b1fe1461063957600080fd5b80636237023e146105345780636352211e1461053c5780636a61e5fc1461055c5780636c0360eb1461057c57806370a082311461059157600080fd5b806334784a51116101e85780634b94f50e116101ac5780634b94f50e146104855780634f558e791461049a5780634f6ccce7146104ba57806355f804b3146104da578063599ebacf146104fa5780635c975abb1461051a57600080fd5b806334784a51146104155780633ccfd60b1461041d57806340c10f191461043257806342842e0e14610445578063438b63001461045857600080fd5b80631581b6001161023a5780631581b6001461033b57806318160ddd1461036057806323b872dd146103835780632890e0d7146103965780632a55205a146103b65780632f745c59146103f557600080fd5b806301ffc9a71461027757806302329a29146102ac57806306fdde03146102ce578063081812fc146102f0578063095ea7b314610328575b600080fd5b34801561028357600080fd5b5061029761029236600461212a565b610800565b60405190151581526020015b60405180910390f35b3480156102b857600080fd5b506102cc6102c7366004612164565b610811565b005b3480156102da57600080fd5b506102e361082c565b6040516102a391906121a3565b3480156102fc57600080fd5b5061031061030b3660046121d6565b6108be565b6040516001600160a01b0390911681526020016102a3565b6102cc610336366004612206565b610901565b34801561034757600080fd5b506014546103109061010090046001600160a01b031681565b34801561036c57600080fd5b50610375610910565b6040519081526020016102a3565b6102cc610391366004612230565b610945565b3480156103a257600080fd5b506102cc6103b13660046121d6565b610a69565b3480156103c257600080fd5b506103d66103d136600461226c565b610a7d565b604080516001600160a01b0390931683526020830191909152016102a3565b34801561040157600080fd5b50610375610410366004612206565b610b29565b6102cc610bc2565b34801561042957600080fd5b506102cc610cf2565b6102cc610440366004612206565b610d5f565b6102cc610453366004612230565b610e16565b34801561046457600080fd5b5061047861047336600461228e565b610e43565b6040516102a391906122a9565b34801561049157600080fd5b50601154610375565b3480156104a657600080fd5b506102976104b53660046121d6565b610ee5565b3480156104c657600080fd5b506103756104d53660046121d6565b610f0a565b3480156104e657600080fd5b506102cc6104f5366004612303565b610f9d565b34801561050657600080fd5b506102cc610515366004612206565b610fb1565b34801561052657600080fd5b506014546102979060ff1681565b6102cc610fc3565b34801561054857600080fd5b506103106105573660046121d6565b6110d1565b34801561056857600080fd5b506102cc6105773660046121d6565b61110f565b34801561058857600080fd5b506102e361111c565b34801561059d57600080fd5b506103756105ac36600461228e565b6111aa565b3480156105bd57600080fd5b506102cc6111e5565b3480156105d257600080fd5b506102976105e13660046121d6565b6111f7565b3480156105f257600080fd5b50600d546001600160a01b0316610310565b34801561061057600080fd5b506102e36112ba565b34801561062557600080fd5b50600854610310906001600160a01b031681565b34801561064557600080fd5b5061037560115481565b34801561065b57600080fd5b506102cc61066a3660046123b4565b6112c9565b6102cc61067d3660046123e7565b61131f565b34801561068e57600080fd5b506102e361137a565b3480156106a357600080fd5b506102e36106b23660046121d6565b611387565b3480156106c357600080fd5b506103757f000000000000000000000000000000000000000000000000000000000000000081565b3480156106f757600080fd5b50610375600c5481565b34801561070d57600080fd5b506102cc61071c366004612303565b611472565b34801561072d57600080fd5b5061074161073c36600461228e565b611486565b60405163ffffffff90911681526020016102a3565b34801561076257600080fd5b5060085461077d90600160a01b90046001600160601b031681565b6040516001600160601b0390911681526020016102a3565b3480156107a157600080fd5b506102e36114c0565b3480156107b657600080fd5b506102976107c5366004612482565b601c52670a5a2e7a000000006008526000526030600c205490565b3480156107ec57600080fd5b506102cc6107fb36600461228e565b6114e0565b600061080b82611556565b92915050565b61081961158b565b6014805460ff1916911515919091179055565b60606006805461083b906124ac565b80601f0160208091040260200160405190810160405280929190818152602001828054610867906124ac565b80156108b45780601f10610889576101008083540402835291602001916108b4565b820191906000526020600020905b81548152906001019060200180831161089757829003601f168201915b5050505050905090565b6000818152673ec412a9852d173d60c11b601c52602081208201820180546001600160a01b03166108f75763ceea21b66000526004601cfd5b6001015492915050565b61090c3383836115e5565b5050565b6000600c547f000000000000000000000000000000000000000000000000000000000000000061094091906124fc565b905090565b6109528383836001611686565b6000818152673ec412a9852d173d60c11b3317601c52602090208101810180546001600160a01b0394851694938416938116919082861483026109b057826109a25763ceea21b66000526004601cfd5b63a11481006000526004601cfd5b846109c35763ea553b346000526004601cfd5b8560005281600101549250823314863314176109f1576030600c20546109f157634b6e7f186000526004601cfd5b82156109ff57600082600101555b85851818905550601c600c8181208054600019019055600084905220805460010163ffffffff8116610a39576301336cea6000526004601cfd5b90558082847fddf252ad1be2c89b69c2b068fc378daa952ba7f163c4a11628f55a4df523b3ef600080a45b505050565b610a7161158b565b610a7a816117b3565b50565b60008281526005602090815260408083208151808301909252546001600160a01b038116808352600160a01b9091046001600160601b0316928201929092528291610af25750604080518082019091526004546001600160a01b0381168252600160a01b90046001600160601b031660208201525b602081015160009061271090610b11906001600160601b03168761250f565b610b1b9190612526565b915196919550909350505050565b6000610b34836111aa565b8210610b9b5760405162461bcd60e51b815260206004820152602b60248201527f455243373231456e756d657261626c653a206f776e657220696e646578206f7560448201526a74206f6620626f756e647360a81b60648201526084015b60405180910390fd5b506001600160a01b0391909116600090815260208181526040808320938352929052205490565b610bca6117cd565b6000610bd4610910565b90507f0000000000000000000000000000000000000000000000000000000000000000610c0282600a612548565b1115610c205760405162461bcd60e51b8152600401610b929061255b565b600a60135410610c675760405162461bcd60e51b815260206004820152601260248201527120b6361039b637ba399030b9329037bb32b960711b6044820152606401610b92565b34601154601e610c77919061250f565b14610c945760405162461bcd60e51b8152600401610b929061258a565b610c9f33601e611826565b610cc833600a60135481548110610cb857610cb86125b6565b9060005260206000200154611977565b610cd0610cfa565b60138054906000610ce0836125cc565b919050555050610cf06001600e55565b565b610cfa61158b565b60145460405160009161010090046001600160a01b03169047908381818185875af1925050503d8060008114610d4c576040519150601f19603f3d011682016040523d82523d6000602084013e610d51565b606091505b5050905080610a7a57600080fd5b610d676117cd565b6000610d71610910565b60145490915060ff1615610d8457600080fd5b7f0000000000000000000000000000000000000000000000000000000000000000610daf8383612548565b1115610dcd5760405162461bcd60e51b8152600401610b929061255b565b3482601154610ddc919061250f565b14610df95760405162461bcd60e51b8152600401610b929061258a565b610e038383611826565b610e0b610cfa565b5061090c6001600e55565b610e21838383610945565b813b15610a6457610a6483838360405180602001604052806000815250611a33565b60606000610e50836111aa565b905060008167ffffffffffffffff811115610e6d57610e6d6122ed565b604051908082528060200260200182016040528015610e96578160200160208202803683370190505b50905060005b82811015610edd57610eae8582610b29565b828281518110610ec057610ec06125b6565b602090810291909101015280610ed5816125cc565b915050610e9c565b509392505050565b6000818152673ec412a9852d173d60c11b601c5260208120820182015460601b61080b565b6000610f1560025490565b8210610f785760405162461bcd60e51b815260206004820152602c60248201527f455243373231456e756d657261626c653a20676c6f62616c20696e646578206f60448201526b7574206f6620626f756e647360a01b6064820152608401610b92565b60028281548110610f8b57610f8b6125b6565b90600052602060002001549050919050565b610fa561158b565b600f61090c828261262b565b610fb961158b565b61090c8282611977565b610fcb6117cd565b6000610fd5610910565b90507f000000000000000000000000000000000000000000000000000000000000000061100382600a612548565b11156110215760405162461bcd60e51b8152600401610b929061255b565b6014601254106110685760405162461bcd60e51b815260206004820152601260248201527120b6361039b637ba399030b9329037bb32b960711b6044820152606401610b92565b34601154600a611078919061250f565b146110955760405162461bcd60e51b8152600401610b929061258a565b6110a033600a611826565b6110b933600960125481548110610cb857610cb86125b6565b6110c1610cfa565b60128054906000610ce0836125cc565b6000818152673ec412a9852d173d60c11b601c526020902081018101546001600160a01b03168061110a5763ceea21b66000526004601cfd5b919050565b61111761158b565b601155565b600f8054611129906124ac565b80601f0160208091040260200160405190810160405280929190818152602001828054611155906124ac565b80156111a25780601f10611177576101008083540402835291602001916111a2565b820191906000526020600020905b81548152906001019060200180831161118557829003601f168201915b505050505081565b6000816111bf57638f4eb6046000526004601cfd5b673ec412a9852d173d60c11b601c528160005263ffffffff601c600c2054169050919050565b6111ed61158b565b610cf06000611ac5565b60008060005b60148161ffff1610156112515760098161ffff1681548110611221576112216125b6565b9060005260206000200154840361123b5760019150611251565b6000915080611249816126eb565b9150506111fd565b5080151560000361080b5760005b600a8161ffff1610156112b357600a8161ffff1681548110611283576112836125b6565b9060005260206000200154840361129d57600191506112b3565b60009150806112ab816126eb565b91505061125f565b5092915050565b60606007805461083b906124ac565b801515905081601c52670a5a2e7a0000000060085233600052806030600c2055806000528160601b60601c337f17307eab39ab6107e8899845ad3d59bd9653f200f220920489ca2b5937696c3160206000a35050565b61132a858585610945565b833b156113735761137385858585858080601f016020809104026020016040519081016040528093929190818152602001838380828437600092019190915250611a3392505050565b5050505050565b60108054611129906124ac565b60606113af826000818152673ec412a9852d173d60c11b601c52602090208101015460601b90565b6114135760405162461bcd60e51b815260206004820152602f60248201527f4552433732314d657461646174613a2055524920717565727920666f72206e6f60448201526e3732bc34b9ba32b73a103a37b5b2b760891b6064820152608401610b92565b600061141d611b17565b9050600081511161143d576040518060200160405280600081525061146b565b8061144784611b26565b601060405160200161145b9392919061270c565b6040516020818303038152906040525b9392505050565b61147a61158b565b601061090c828261262b565b600060c06114af83673ec412a9852d173d60c11b601c908152600091909152600c205460201c90565b6001600160e01b0316901c92915050565b606060405180608001604052806059815260200161281460599139905090565b6114e861158b565b6001600160a01b03811661154d5760405162461bcd60e51b815260206004820152602660248201527f4f776e61626c653a206e6577206f776e657220697320746865207a65726f206160448201526564647265737360d01b6064820152608401610b92565b610a7a81611ac5565b60006001600160e01b0319821663152a902d60e11b148061080b57506301ffc9a760e01b6001600160e01b031983161461080b565b600d546001600160a01b03163314610cf05760405162461bcd60e51b815260206004820181905260248201527f4f776e61626c653a2063616c6c6572206973206e6f7420746865206f776e65726044820152606401610b92565b60001960601c828116925083811693508160005283673ec412a9852d173d60c11b17601c526020600020820182018054821691508161162c5763ceea21b66000526004601cfd5b81851485151761165257816000526030600c205461165257634b6e7f186000526004601cfd5b6001018390558183827f8c5be1e5ebec7d5bd14f71427d1e84f3dd0314c0f7b2291e5b200ac8c7c3b925600080a450505050565b60018111156116f55760405162461bcd60e51b815260206004820152603560248201527f455243373231456e756d657261626c653a20636f6e7365637574697665207472604482015274185b9cd9995c9cc81b9bdd081cdd5c1c1bdc9d1959605a1b6064820152608401610b92565b816001600160a01b0385166117515761174c81600280546000838152600360205260408120829055600182018355919091527f405787fa12a823e0f2b7631cc41b3ba8828b3321ca811111fa75cd3aa3bb5ace0155565b611774565b836001600160a01b0316856001600160a01b031614611774576117748582611bb9565b6001600160a01b0384166117905761178b81611c53565b611373565b846001600160a01b0316846001600160a01b031614611373576113738482611d02565b6117bc81611d44565b600090815260056020526040812055565b6002600e540361181f5760405162461bcd60e51b815260206004820152601f60248201527f5265656e7472616e637947756172643a207265656e7472616e742063616c6c006044820152606401610b92565b6002600e55565b3332146118465760405163d9d552c960e01b815260040160405180910390fd5b8060000361186757604051634600cfe960e01b815260040160405180910390fd5b80600c54101561188a57604051637775abdd60e01b815260040160405180910390fd5b6040805160208082018352428284015244606080840191909152835180840390910181526080830190935282519201919091208152600c5460005b838110156119645760006118d98484611d4f565b905060006118e78285611d6d565b90505b6118f3816111f7565b1515600103611919576119068585611d4f565b91506119128285611d6d565b90506118ea565b6119238782611977565b60085461194c9084906001600160a01b03811690600160a01b90046001600160601b0316611dee565b611955846127c9565b935082600101925050506118c5565b5061196f8484611efc565b600c55505050565b611985600083836001611686565b6001600160a01b0390911690816119a45763ea553b346000526004601cfd5b80600052673ec412a9852d173d60c11b601c5260206000208101810180548060601b156119d95763c991cbb16000526004601cfd5b831790556000829052601c600c20805460010163ffffffff8116611a05576301336cea6000526004601cfd5b9055808260007fddf252ad1be2c89b69c2b068fc378daa952ba7f163c4a11628f55a4df523b3ef8180a45050565b60405163150b7a028082523360208301528560601b60601c604083015283606083015260808083015282518060a08401528015611a7a578060c08401826020870160045afa505b60208360a48301601c860160008a5af1611aa3573d15611a9e573d6000803e3d6000fd5b600083525b508060e01b825114611abd5763d1a57ed66000526004601cfd5b505050505050565b600d80546001600160a01b038381166001600160a01b0319831681179093556040519116919082907f8be0079c531659141344cd1fd0a4f28419497f9722a3daafe3b4186f6b6457e090600090a35050565b6060600f805461083b906124ac565b60606000611b3383611f76565b600101905060008167ffffffffffffffff811115611b5357611b536122ed565b6040519080825280601f01601f191660200182016040528015611b7d576020820181803683370190505b5090508181016020015b600019016f181899199a1a9b1b9c1cb0b131b232b360811b600a86061a8153600a8504945084611b8757509392505050565b60006001611bc6846111aa565b611bd091906124fc565b600083815260016020526040902054909150808214611c21576001600160a01b0384166000908152602081815260408083208584528252808320548484528184208190558352600190915290208190555b5060009182526001602090815260408084208490556001600160a01b0390941683528281528383209183525290812055565b600254600090611c65906001906124fc565b60008381526003602052604081205460028054939450909284908110611c8d57611c8d6125b6565b906000526020600020015490508060028381548110611cae57611cae6125b6565b6000918252602080832090910192909255828152600390915260408082208490558582528120556002805480611ce657611ce66127e0565b6001900381819060005260206000200160009055905550505050565b6000611d0d836111aa565b6001600160a01b03909316600090815260208181526040808320868452825280832085905593825260019052919091209190915550565b610a7a60008261204e565b60005b6020832090508083528182600003068110611d525706919050565b6000828152600b602052604081205481611d886001856124fc565b6000818152600b60205260409020549091508215611da65782611da8565b855b9350818614611dcf578015611dbd5780611dbf565b815b6000878152600b60205260409020555b8015611de5576000828152600b60205260408120555b50505092915050565b6127106001600160601b0382161115611e5c5760405162461bcd60e51b815260206004820152602a60248201527f455243323938313a20726f79616c7479206665652077696c6c206578636565646044820152692073616c65507269636560b01b6064820152608401610b92565b6001600160a01b038216611eb25760405162461bcd60e51b815260206004820152601b60248201527f455243323938313a20496e76616c696420706172616d657465727300000000006044820152606401610b92565b6040805180820182526001600160a01b0393841681526001600160601b0392831660208083019182526000968752600590529190942093519051909116600160a01b029116179055565b6000611f0783611486565b90506000611f1583836127f6565b90506000611f3e85673ec412a9852d173d60c11b601c908152600091909152600c205460201c90565b673ec412a9852d173d60c11b601c9081526000879052600c208054602081811c67ffffffffffffffff851618901b1890559050611373565b60008072184f03e93ff9f4daa797ed6e38ed64bf6a1f0160401b8310611fb55772184f03e93ff9f4daa797ed6e38ed64bf6a1f0160401b830492506040015b6d04ee2d6d415b85acef81000000008310611fe1576d04ee2d6d415b85acef8100000000830492506020015b662386f26fc100008310611fff57662386f26fc10000830492506010015b6305f5e1008310612017576305f5e100830492506008015b612710831061202b57612710830492506004015b6064831061203d576064830492506002015b600a831061080b5760010192915050565b6000612059826110d1565b9050612069816000846001611686565b5060008181526001600160a01b03928316673ec412a9852d173d60c11b8117601c5260209091208201820180549193821691826120ae5763ceea21b66000526004601cfd5b826000528160010154808614848714178615176120dd576030600c20546120dd57634b6e7f186000526004601cfd5b80156120eb57600083600101555b5082189055601c600c208054600019019055816000827fddf252ad1be2c89b69c2b068fc378daa952ba7f163c4a11628f55a4df523b3ef8280a4505050565b60006020828403121561213c57600080fd5b81356001600160e01b03198116811461146b57600080fd5b8035801515811461110a57600080fd5b60006020828403121561217657600080fd5b61146b82612154565b60005b8381101561219a578181015183820152602001612182565b50506000910152565b60208152600082518060208401526121c281604085016020870161217f565b601f01601f19169190910160400192915050565b6000602082840312156121e857600080fd5b5035919050565b80356001600160a01b038116811461110a57600080fd5b6000806040838503121561221957600080fd5b612222836121ef565b946020939093013593505050565b60008060006060848603121561224557600080fd5b61224e846121ef565b925061225c602085016121ef565b9150604084013590509250925092565b6000806040838503121561227f57600080fd5b50508035926020909101359150565b6000602082840312156122a057600080fd5b61146b826121ef565b6020808252825182820181905260009190848201906040850190845b818110156122e1578351835292840192918401916001016122c5565b50909695505050505050565b634e487b7160e01b600052604160045260246000fd5b60006020828403121561231557600080fd5b813567ffffffffffffffff8082111561232d57600080fd5b818401915084601f83011261234157600080fd5b813581811115612353576123536122ed565b604051601f8201601f19908116603f0116810190838211818310171561237b5761237b6122ed565b8160405282815287602084870101111561239457600080fd5b826020860160208301376000928101602001929092525095945050505050565b600080604083850312156123c757600080fd5b6123d0836121ef565b91506123de60208401612154565b90509250929050565b6000806000806000608086880312156123ff57600080fd5b612408866121ef565b9450612416602087016121ef565b935060408601359250606086013567ffffffffffffffff8082111561243a57600080fd5b818801915088601f83011261244e57600080fd5b81358181111561245d57600080fd5b89602082850101111561246f57600080fd5b9699959850939650602001949392505050565b6000806040838503121561249557600080fd5b61249e836121ef565b91506123de602084016121ef565b600181811c908216806124c057607f821691505b6020821081036124e057634e487b7160e01b600052602260045260246000fd5b50919050565b634e487b7160e01b600052601160045260246000fd5b8181038181111561080b5761080b6124e6565b808202811582820484141761080b5761080b6124e6565b60008261254357634e487b7160e01b600052601260045260246000fd5b500490565b8082018082111561080b5761080b6124e6565b602080825260159082015274105b1b081d1bdad95b9cc8185c99481b5a5b9d1959605a1b604082015260600190565b602080825260129082015271496e73756666696369656e742066756e647360701b604082015260600190565b634e487b7160e01b600052603260045260246000fd5b6000600182016125de576125de6124e6565b5060010190565b601f821115610a6457600081815260208120601f850160051c8101602086101561260c5750805b601f850160051c820191505b81811015611abd57828155600101612618565b815167ffffffffffffffff811115612645576126456122ed565b6126598161265384546124ac565b846125e5565b602080601f83116001811461268e57600084156126765750858301515b600019600386901b1c1916600185901b178555611abd565b600085815260208120601f198616915b828110156126bd5788860151825594840194600190910190840161269e565b50858210156126db5787850151600019600388901b60f8161c191681555b5050505050600190811b01905550565b600061ffff808316818103612702576127026124e6565b6001019392505050565b60008451602061271f8285838a0161217f565b8184019150680486f6f6469652532360bc1b82526009865161274681838601858b0161217f565b8654930192600090612757816124ac565b6001828116801561276f5760018114612788576127b8565b60ff1984168887015282151583028801860194506127b8565b8a6000528660002060005b848110156127ae5781548a8201890152908301908801612793565b5050858389010194505b50929b9a5050505050505050505050565b6000816127d8576127d86124e6565b506000190190565b634e487b7160e01b600052603160045260246000fd5b63ffffffff8181168382160190808211156112b3576112b36124e656fe68747470733a2f2f6261666b72656963626e366436356b377379637a6a6a6a776d756f6f33367a667333773379326e6a667a6e32733362656133763779376c75356c752e697066732e6e667473746f726167652e6c696e6b2fa264697066735822122054d452b8a65bc5b350f4f0c87a582b30f010e304a36b4d7b367b90a61bd1990064736f6c63430008120033","opcodes":"PUSH22 0x1F48624523C8AE280EBDF7F720332CDA62620FE1DAD PUSH1 0x8 SSTORE PUSH2 0x320 PUSH1 0x40 MSTORE PUSH1 0x1 PUSH1 0xA0 SWAP1 DUP2 MSTORE PUSH1 0x4 PUSH1 0xC0 MSTORE PUSH1 0x6D PUSH1 0xE0 MSTORE PUSH1 0x6A PUSH2 0x100 MSTORE PUSH1 0xB PUSH2 0x120 MSTORE PUSH1 0xE PUSH2 0x140 MSTORE PUSH1 0x87 PUSH2 0x160 MSTORE PUSH1 0x8A PUSH2 0x180 MSTORE PUSH2 0x155 PUSH2 0x1A0 MSTORE PUSH2 0x15C PUSH2 0x1C0 MSTORE PUSH2 0x15F PUSH2 0x1E0 MSTORE PUSH2 0x166 PUSH2 0x200 MSTORE PUSH2 0x17A PUSH2 0x220 MSTORE PUSH2 0x175 PUSH2 0x240 MSTORE PUSH2 0x26D PUSH2 0x260 MSTORE PUSH2 0x272 PUSH2 0x280 MSTORE PUSH2 0x2AB PUSH2 0x2A0 MSTORE PUSH2 0x2AC PUSH2 0x2C0 MSTORE PUSH2 0x2E5 PUSH2 0x2E0 MSTORE PUSH2 0x31C PUSH2 0x300 MSTORE PUSH3 0xB2 SWAP1 PUSH1 0x9 SWAP1 PUSH1 0x14 PUSH3 0x302 JUMP JUMPDEST POP PUSH1 0x40 DUP1 MLOAD PUSH2 0x140 DUP2 ADD DUP3 MSTORE PUSH2 0x144 DUP2 MSTORE PUSH2 0x146 PUSH1 0x20 DUP3 ADD MSTORE PUSH2 0x1B9 SWAP2 DUP2 ADD SWAP2 SWAP1 SWAP2 MSTORE PUSH2 0x1BE PUSH1 0x60 DUP3 ADD MSTORE PUSH2 0x25D PUSH1 0x80 DUP3 ADD MSTORE PUSH2 0x260 PUSH1 0xA0 DUP3 ADD MSTORE PUSH2 0x28E PUSH1 0xC0 DUP3 ADD MSTORE PUSH2 0x335 PUSH1 0xE0 DUP3 ADD MSTORE PUSH2 0x33C PUSH2 0x100 DUP3 ADD MSTORE PUSH2 0x28D PUSH2 0x120 DUP3 ADD MSTORE PUSH3 0x11E SWAP1 PUSH1 0xA SWAP1 DUP2 PUSH3 0x302 JUMP JUMPDEST POP PUSH1 0x40 DUP1 MLOAD DUP1 DUP3 ADD SWAP1 SWAP2 MSTORE PUSH1 0x5 DUP2 MSTORE PUSH5 0x173539B7B7 PUSH1 0xD9 SHL PUSH1 0x20 DUP3 ADD MSTORE PUSH1 0x10 SWAP1 PUSH3 0x14A SWAP1 DUP3 PUSH3 0x414 JUMP JUMPDEST POP PUSH7 0x470DE4DF820000 PUSH1 0x11 SSTORE PUSH1 0x0 PUSH1 0x12 DUP2 SWAP1 SSTORE PUSH1 0x13 SSTORE PUSH1 0x14 DUP1 SLOAD PUSH1 0x1 PUSH1 0x1 PUSH1 0xA8 SHL SUB NOT AND PUSH21 0x3B715D4F5219510C7F77DB4388EBC0A1436B843000 OR SWAP1 SSTORE CALLVALUE DUP1 ISZERO PUSH3 0x194 JUMPI PUSH1 0x0 DUP1 REVERT JUMPDEST POP PUSH1 0x40 MLOAD PUSH3 0x2E8F CODESIZE SUB DUP1 PUSH3 0x2E8F DUP4 CODECOPY DUP2 ADD PUSH1 0x40 DUP2 SWAP1 MSTORE PUSH3 0x1B7 SWAP2 PUSH3 0x4E0 JUMP JUMPDEST PUSH1 0x40 DUP1 MLOAD DUP1 DUP3 ADD DUP3 MSTORE PUSH1 0x4 DUP1 DUP3 MSTORE PUSH4 0x25A92BA7 PUSH1 0xE1 SHL PUSH1 0x20 DUP1 DUP5 ADD DUP3 SWAP1 MSTORE DUP5 MLOAD DUP1 DUP7 ADD SWAP1 SWAP6 MSTORE SWAP2 DUP5 MSTORE SWAP1 DUP4 ADD MSTORE SWAP1 PUSH2 0x22BB PUSH1 0x6 PUSH3 0x1F6 DUP5 DUP3 PUSH3 0x414 JUMP JUMPDEST POP PUSH1 0x7 PUSH3 0x205 DUP4 DUP3 PUSH3 0x414 JUMP JUMPDEST POP PUSH1 0x80 DUP2 SWAP1 MSTORE PUSH1 0xC SSTORE POP PUSH3 0x21C SWAP1 POP CALLER PUSH3 0x233 JUMP JUMPDEST PUSH1 0x1 PUSH1 0xE SSTORE PUSH3 0x22C DUP2 PUSH3 0x285 JUMP JUMPDEST POP PUSH3 0x5B5 JUMP JUMPDEST PUSH1 0xD DUP1 SLOAD PUSH1 0x1 PUSH1 0x1 PUSH1 0xA0 SHL SUB DUP4 DUP2 AND PUSH1 0x1 PUSH1 0x1 PUSH1 0xA0 SHL SUB NOT DUP4 AND DUP2 OR SWAP1 SWAP4 SSTORE PUSH1 0x40 MLOAD SWAP2 AND SWAP2 SWAP1 DUP3 SWAP1 PUSH32 0x8BE0079C531659141344CD1FD0A4F28419497F9722A3DAAFE3B4186F6B6457E0 SWAP1 PUSH1 0x0 SWAP1 LOG3 POP POP JUMP JUMPDEST PUSH3 0x28F PUSH3 0x2A1 JUMP JUMPDEST PUSH1 0xF PUSH3 0x29D DUP3 DUP3 PUSH3 0x414 JUMP JUMPDEST POP POP JUMP JUMPDEST PUSH1 0xD SLOAD PUSH1 0x1 PUSH1 0x1 PUSH1 0xA0 SHL SUB AND CALLER EQ PUSH3 0x300 JUMPI PUSH1 0x40 MLOAD PUSH3 0x461BCD PUSH1 0xE5 SHL DUP2 MSTORE PUSH1 0x20 PUSH1 0x4 DUP3 ADD DUP2 SWAP1 MSTORE PUSH1 0x24 DUP3 ADD MSTORE PUSH32 0x4F776E61626C653A2063616C6C6572206973206E6F7420746865206F776E6572 PUSH1 0x44 DUP3 ADD MSTORE PUSH1 0x64 ADD PUSH1 0x40 MLOAD DUP1 SWAP2 SUB SWAP1 REVERT JUMPDEST JUMP JUMPDEST DUP3 DUP1 SLOAD DUP3 DUP3 SSTORE SWAP1 PUSH1 0x0 MSTORE PUSH1 0x20 PUSH1 0x0 KECCAK256 SWAP1 DUP2 ADD SWAP3 DUP3 ISZERO PUSH3 0x346 JUMPI SWAP2 PUSH1 0x20 MUL DUP3 ADD JUMPDEST DUP3 DUP2 GT ISZERO PUSH3 0x346 JUMPI DUP3 MLOAD DUP3 SWAP1 PUSH2 0xFFFF AND SWAP1 SSTORE SWAP2 PUSH1 0x20 ADD SWAP2 SWAP1 PUSH1 0x1 ADD SWAP1 PUSH3 0x323 JUMP JUMPDEST POP PUSH3 0x354 SWAP3 SWAP2 POP PUSH3 0x358 JUMP JUMPDEST POP SWAP1 JUMP JUMPDEST JUMPDEST DUP1 DUP3 GT ISZERO PUSH3 0x354 JUMPI PUSH1 0x0 DUP2 SSTORE PUSH1 0x1 ADD PUSH3 0x359 JUMP JUMPDEST PUSH4 0x4E487B71 PUSH1 0xE0 SHL PUSH1 0x0 MSTORE PUSH1 0x41 PUSH1 0x4 MSTORE PUSH1 0x24 PUSH1 0x0 REVERT JUMPDEST PUSH1 0x1 DUP2 DUP2 SHR SWAP1 DUP3 AND DUP1 PUSH3 0x39A JUMPI PUSH1 0x7F DUP3 AND SWAP2 POP JUMPDEST PUSH1 0x20 DUP3 LT DUP2 SUB PUSH3 0x3BB JUMPI PUSH4 0x4E487B71 PUSH1 0xE0 SHL PUSH1 0x0 MSTORE PUSH1 0x22 PUSH1 0x4 MSTORE PUSH1 0x24 PUSH1 0x0 REVERT JUMPDEST POP SWAP2 SWAP1 POP JUMP JUMPDEST PUSH1 0x1F DUP3 GT ISZERO PUSH3 0x40F JUMPI PUSH1 0x0 DUP2 DUP2 MSTORE PUSH1 0x20 DUP2 KECCAK256 PUSH1 0x1F DUP6 ADD PUSH1 0x5 SHR DUP2 ADD PUSH1 0x20 DUP7 LT ISZERO PUSH3 0x3EA JUMPI POP DUP1 JUMPDEST PUSH1 0x1F DUP6 ADD PUSH1 0x5 SHR DUP3 ADD SWAP2 POP JUMPDEST DUP2 DUP2 LT ISZERO PUSH3 0x40B JUMPI DUP3 DUP2 SSTORE PUSH1 0x1 ADD PUSH3 0x3F6 JUMP JUMPDEST POP POP POP JUMPDEST POP POP POP JUMP JUMPDEST DUP2 MLOAD PUSH1 0x1 PUSH1 0x1 PUSH1 0x40 SHL SUB DUP2 GT ISZERO PUSH3 0x430 JUMPI PUSH3 0x430 PUSH3 0x36F JUMP JUMPDEST PUSH3 0x448 DUP2 PUSH3 0x441 DUP5 SLOAD PUSH3 0x385 JUMP JUMPDEST DUP5 PUSH3 0x3C1 JUMP JUMPDEST PUSH1 0x20 DUP1 PUSH1 0x1F DUP4 GT PUSH1 0x1 DUP2 EQ PUSH3 0x480 JUMPI PUSH1 0x0 DUP5 ISZERO PUSH3 0x467 JUMPI POP DUP6 DUP4 ADD MLOAD JUMPDEST PUSH1 0x0 NOT PUSH1 0x3 DUP7 SWAP1 SHL SHR NOT AND PUSH1 0x1 DUP6 SWAP1 SHL OR DUP6 SSTORE PUSH3 0x40B JUMP JUMPDEST PUSH1 0x0 DUP6 DUP2 MSTORE PUSH1 0x20 DUP2 KECCAK256 PUSH1 0x1F NOT DUP7 AND SWAP2 JUMPDEST DUP3 DUP2 LT ISZERO PUSH3 0x4B1 JUMPI DUP9 DUP7 ADD MLOAD DUP3 SSTORE SWAP5 DUP5 ADD SWAP5 PUSH1 0x1 SWAP1 SWAP2 ADD SWAP1 DUP5 ADD PUSH3 0x490 JUMP JUMPDEST POP DUP6 DUP3 LT ISZERO PUSH3 0x4D0 JUMPI DUP8 DUP6 ADD MLOAD PUSH1 0x0 NOT PUSH1 0x3 DUP9 SWAP1 SHL PUSH1 0xF8 AND SHR NOT AND DUP2 SSTORE JUMPDEST POP POP POP POP POP PUSH1 0x1 SWAP1 DUP2 SHL ADD SWAP1 SSTORE POP JUMP JUMPDEST PUSH1 0x0 PUSH1 0x20 DUP1 DUP4 DUP6 SUB SLT ISZERO PUSH3 0x4F4 JUMPI PUSH1 0x0 DUP1 REVERT JUMPDEST DUP3 MLOAD PUSH1 0x1 PUSH1 0x1 PUSH1 0x40 SHL SUB DUP1 DUP3 GT ISZERO PUSH3 0x50C JUMPI PUSH1 0x0 DUP1 REVERT JUMPDEST DUP2 DUP6 ADD SWAP2 POP DUP6 PUSH1 0x1F DUP4 ADD SLT PUSH3 0x521 JUMPI PUSH1 0x0 DUP1 REVERT JUMPDEST DUP2 MLOAD DUP2 DUP2 GT ISZERO PUSH3 0x536 JUMPI PUSH3 0x536 PUSH3 0x36F JUMP JUMPDEST PUSH1 0x40 MLOAD PUSH1 0x1F DUP3 ADD PUSH1 0x1F NOT SWAP1 DUP2 AND PUSH1 0x3F ADD AND DUP2 ADD SWAP1 DUP4 DUP3 GT DUP2 DUP4 LT OR ISZERO PUSH3 0x561 JUMPI PUSH3 0x561 PUSH3 0x36F JUMP JUMPDEST DUP2 PUSH1 0x40 MSTORE DUP3 DUP2 MSTORE DUP9 DUP7 DUP5 DUP8 ADD ADD GT ISZERO PUSH3 0x57A JUMPI PUSH1 0x0 DUP1 REVERT JUMPDEST PUSH1 0x0 SWAP4 POP JUMPDEST DUP3 DUP5 LT ISZERO PUSH3 0x59E JUMPI DUP5 DUP5 ADD DUP7 ADD MLOAD DUP2 DUP6 ADD DUP8 ADD MSTORE SWAP3 DUP6 ADD SWAP3 PUSH3 0x57F JUMP JUMPDEST PUSH1 0x0 DUP7 DUP5 DUP4 ADD ADD MSTORE DUP1 SWAP7 POP POP POP POP POP POP POP SWAP3 SWAP2 POP POP JUMP JUMPDEST PUSH1 0x80 MLOAD PUSH2 0x28A2 PUSH3 0x5ED PUSH1 0x0 CODECOPY PUSH1 0x0 DUP2 DUP2 PUSH2 0x6C9 ADD MSTORE DUP2 DUP2 PUSH2 0x917 ADD MSTORE DUP2 DUP2 PUSH2 0xBD8 ADD MSTORE DUP2 DUP2 PUSH2 0xD86 ADD MSTORE PUSH2 0xFD9 ADD MSTORE PUSH2 0x28A2 PUSH1 0x0 RETURN INVALID PUSH1 0x80 PUSH1 0x40 MSTORE PUSH1 0x4 CALLDATASIZE LT PUSH2 0x272 JUMPI PUSH1 0x0 CALLDATALOAD PUSH1 0xE0 SHR DUP1 PUSH4 0x6237023E GT PUSH2 0x14F JUMPI DUP1 PUSH4 0xA22CB465 GT PUSH2 0xC1 JUMPI DUP1 PUSH4 0xDA3EF23F GT PUSH2 0x7A JUMPI DUP1 PUSH4 0xDA3EF23F EQ PUSH2 0x701 JUMPI DUP1 PUSH4 0xDC33E681 EQ PUSH2 0x721 JUMPI DUP1 PUSH4 0xDDCA3F43 EQ PUSH2 0x756 JUMPI DUP1 PUSH4 0xE8A3D485 EQ PUSH2 0x795 JUMPI DUP1 PUSH4 0xE985E9C5 EQ PUSH2 0x7AA JUMPI DUP1 PUSH4 0xF2FDE38B EQ PUSH2 0x7E0 JUMPI PUSH1 0x0 DUP1 REVERT JUMPDEST DUP1 PUSH4 0xA22CB465 EQ PUSH2 0x64F JUMPI DUP1 PUSH4 0xB88D4FDE EQ PUSH2 0x66F JUMPI DUP1 PUSH4 0xC6682862 EQ PUSH2 0x682 JUMPI DUP1 PUSH4 0xC87B56DD EQ PUSH2 0x697 JUMPI DUP1 PUSH4 0xD5ABEB01 EQ PUSH2 0x6B7 JUMPI DUP1 PUSH4 0xDA0239A6 EQ PUSH2 0x6EB JUMPI PUSH1 0x0 DUP1 REVERT JUMPDEST DUP1 PUSH4 0x715018A6 GT PUSH2 0x113 JUMPI DUP1 PUSH4 0x715018A6 EQ PUSH2 0x5B1 JUMPI DUP1 PUSH4 0x73853F63 EQ PUSH2 0x5C6 JUMPI DUP1 PUSH4 0x8DA5CB5B EQ PUSH2 0x5E6 JUMPI DUP1 PUSH4 0x95D89B41 EQ PUSH2 0x604 JUMPI DUP1 PUSH4 0x9FBC8713 EQ PUSH2 0x619 JUMPI DUP1 PUSH4 0xA035B1FE EQ PUSH2 0x639 JUMPI PUSH1 0x0 DUP1 REVERT JUMPDEST DUP1 PUSH4 0x6237023E EQ PUSH2 0x534 JUMPI DUP1 PUSH4 0x6352211E EQ PUSH2 0x53C JUMPI DUP1 PUSH4 0x6A61E5FC EQ PUSH2 0x55C JUMPI DUP1 PUSH4 0x6C0360EB EQ PUSH2 0x57C JUMPI DUP1 PUSH4 0x70A08231 EQ PUSH2 0x591 JUMPI PUSH1 0x0 DUP1 REVERT JUMPDEST DUP1 PUSH4 0x34784A51 GT PUSH2 0x1E8 JUMPI DUP1 PUSH4 0x4B94F50E GT PUSH2 0x1AC JUMPI DUP1 PUSH4 0x4B94F50E EQ PUSH2 0x485 JUMPI DUP1 PUSH4 0x4F558E79 EQ PUSH2 0x49A JUMPI DUP1 PUSH4 0x4F6CCCE7 EQ PUSH2 0x4BA JUMPI DUP1 PUSH4 0x55F804B3 EQ PUSH2 0x4DA JUMPI DUP1 PUSH4 0x599EBACF EQ PUSH2 0x4FA JUMPI DUP1 PUSH4 0x5C975ABB EQ PUSH2 0x51A JUMPI PUSH1 0x0 DUP1 REVERT JUMPDEST DUP1 PUSH4 0x34784A51 EQ PUSH2 0x415 JUMPI DUP1 PUSH4 0x3CCFD60B EQ PUSH2 0x41D JUMPI DUP1 PUSH4 0x40C10F19 EQ PUSH2 0x432 JUMPI DUP1 PUSH4 0x42842E0E EQ PUSH2 0x445 JUMPI DUP1 PUSH4 0x438B6300 EQ PUSH2 0x458 JUMPI PUSH1 0x0 DUP1 REVERT JUMPDEST DUP1 PUSH4 0x1581B600 GT PUSH2 0x23A JUMPI DUP1 PUSH4 0x1581B600 EQ PUSH2 0x33B JUMPI DUP1 PUSH4 0x18160DDD EQ PUSH2 0x360 JUMPI DUP1 PUSH4 0x23B872DD EQ PUSH2 0x383 JUMPI DUP1 PUSH4 0x2890E0D7 EQ PUSH2 0x396 JUMPI DUP1 PUSH4 0x2A55205A EQ PUSH2 0x3B6 JUMPI DUP1 PUSH4 0x2F745C59 EQ PUSH2 0x3F5 JUMPI PUSH1 0x0 DUP1 REVERT JUMPDEST DUP1 PUSH4 0x1FFC9A7 EQ PUSH2 0x277 JUMPI DUP1 PUSH4 0x2329A29 EQ PUSH2 0x2AC JUMPI DUP1 PUSH4 0x6FDDE03 EQ PUSH2 0x2CE JUMPI DUP1 PUSH4 0x81812FC EQ PUSH2 0x2F0 JUMPI DUP1 PUSH4 0x95EA7B3 EQ PUSH2 0x328 JUMPI JUMPDEST PUSH1 0x0 DUP1 REVERT JUMPDEST CALLVALUE DUP1 ISZERO PUSH2 0x283 JUMPI PUSH1 0x0 DUP1 REVERT JUMPDEST POP PUSH2 0x297 PUSH2 0x292 CALLDATASIZE PUSH1 0x4 PUSH2 0x212A JUMP JUMPDEST PUSH2 0x800 JUMP JUMPDEST PUSH1 0x40 MLOAD SWAP1 ISZERO ISZERO DUP2 MSTORE PUSH1 0x20 ADD JUMPDEST PUSH1 0x40 MLOAD DUP1 SWAP2 SUB SWAP1 RETURN JUMPDEST CALLVALUE DUP1 ISZERO PUSH2 0x2B8 JUMPI PUSH1 0x0 DUP1 REVERT JUMPDEST POP PUSH2 0x2CC PUSH2 0x2C7 CALLDATASIZE PUSH1 0x4 PUSH2 0x2164 JUMP JUMPDEST PUSH2 0x811 JUMP JUMPDEST STOP JUMPDEST CALLVALUE DUP1 ISZERO PUSH2 0x2DA JUMPI PUSH1 0x0 DUP1 REVERT JUMPDEST POP PUSH2 0x2E3 PUSH2 0x82C JUMP JUMPDEST PUSH1 0x40 MLOAD PUSH2 0x2A3 SWAP2 SWAP1 PUSH2 0x21A3 JUMP JUMPDEST CALLVALUE DUP1 ISZERO PUSH2 0x2FC JUMPI PUSH1 0x0 DUP1 REVERT JUMPDEST POP PUSH2 0x310 PUSH2 0x30B CALLDATASIZE PUSH1 0x4 PUSH2 0x21D6 JUMP JUMPDEST PUSH2 0x8BE JUMP JUMPDEST PUSH1 0x40 MLOAD PUSH1 0x1 PUSH1 0x1 PUSH1 0xA0 SHL SUB SWAP1 SWAP2 AND DUP2 MSTORE PUSH1 0x20 ADD PUSH2 0x2A3 JUMP JUMPDEST PUSH2 0x2CC PUSH2 0x336 CALLDATASIZE PUSH1 0x4 PUSH2 0x2206 JUMP JUMPDEST PUSH2 0x901 JUMP JUMPDEST CALLVALUE DUP1 ISZERO PUSH2 0x347 JUMPI PUSH1 0x0 DUP1 REVERT JUMPDEST POP PUSH1 0x14 SLOAD PUSH2 0x310 SWAP1 PUSH2 0x100 SWAP1 DIV PUSH1 0x1 PUSH1 0x1 PUSH1 0xA0 SHL SUB AND DUP2 JUMP JUMPDEST CALLVALUE DUP1 ISZERO PUSH2 0x36C JUMPI PUSH1 0x0 DUP1 REVERT JUMPDEST POP PUSH2 0x375 PUSH2 0x910 JUMP JUMPDEST PUSH1 0x40 MLOAD SWAP1 DUP2 MSTORE PUSH1 0x20 ADD PUSH2 0x2A3 JUMP JUMPDEST PUSH2 0x2CC PUSH2 0x391 CALLDATASIZE PUSH1 0x4 PUSH2 0x2230 JUMP JUMPDEST PUSH2 0x945 JUMP JUMPDEST CALLVALUE DUP1 ISZERO PUSH2 0x3A2 JUMPI PUSH1 0x0 DUP1 REVERT JUMPDEST POP PUSH2 0x2CC PUSH2 0x3B1 CALLDATASIZE PUSH1 0x4 PUSH2 0x21D6 JUMP JUMPDEST PUSH2 0xA69 JUMP JUMPDEST CALLVALUE DUP1 ISZERO PUSH2 0x3C2 JUMPI PUSH1 0x0 DUP1 REVERT JUMPDEST POP PUSH2 0x3D6 PUSH2 0x3D1 CALLDATASIZE PUSH1 0x4 PUSH2 0x226C JUMP JUMPDEST PUSH2 0xA7D JUMP JUMPDEST PUSH1 0x40 DUP1 MLOAD PUSH1 0x1 PUSH1 0x1 PUSH1 0xA0 SHL SUB SWAP1 SWAP4 AND DUP4 MSTORE PUSH1 0x20 DUP4 ADD SWAP2 SWAP1 SWAP2 MSTORE ADD PUSH2 0x2A3 JUMP JUMPDEST CALLVALUE DUP1 ISZERO PUSH2 0x401 JUMPI PUSH1 0x0 DUP1 REVERT JUMPDEST POP PUSH2 0x375 PUSH2 0x410 CALLDATASIZE PUSH1 0x4 PUSH2 0x2206 JUMP JUMPDEST PUSH2 0xB29 JUMP JUMPDEST PUSH2 0x2CC PUSH2 0xBC2 JUMP JUMPDEST CALLVALUE DUP1 ISZERO PUSH2 0x429 JUMPI PUSH1 0x0 DUP1 REVERT JUMPDEST POP PUSH2 0x2CC PUSH2 0xCF2 JUMP JUMPDEST PUSH2 0x2CC PUSH2 0x440 CALLDATASIZE PUSH1 0x4 PUSH2 0x2206 JUMP JUMPDEST PUSH2 0xD5F JUMP JUMPDEST PUSH2 0x2CC PUSH2 0x453 CALLDATASIZE PUSH1 0x4 PUSH2 0x2230 JUMP JUMPDEST PUSH2 0xE16 JUMP JUMPDEST CALLVALUE DUP1 ISZERO PUSH2 0x464 JUMPI PUSH1 0x0 DUP1 REVERT JUMPDEST POP PUSH2 0x478 PUSH2 0x473 CALLDATASIZE PUSH1 0x4 PUSH2 0x228E JUMP JUMPDEST PUSH2 0xE43 JUMP JUMPDEST PUSH1 0x40 MLOAD PUSH2 0x2A3 SWAP2 SWAP1 PUSH2 0x22A9 JUMP JUMPDEST CALLVALUE DUP1 ISZERO PUSH2 0x491 JUMPI PUSH1 0x0 DUP1 REVERT JUMPDEST POP PUSH1 0x11 SLOAD PUSH2 0x375 JUMP JUMPDEST CALLVALUE DUP1 ISZERO PUSH2 0x4A6 JUMPI PUSH1 0x0 DUP1 REVERT JUMPDEST POP PUSH2 0x297 PUSH2 0x4B5 CALLDATASIZE PUSH1 0x4 PUSH2 0x21D6 JUMP JUMPDEST PUSH2 0xEE5 JUMP JUMPDEST CALLVALUE DUP1 ISZERO PUSH2 0x4C6 JUMPI PUSH1 0x0 DUP1 REVERT JUMPDEST POP PUSH2 0x375 PUSH2 0x4D5 CALLDATASIZE PUSH1 0x4 PUSH2 0x21D6 JUMP JUMPDEST PUSH2 0xF0A JUMP JUMPDEST CALLVALUE DUP1 ISZERO PUSH2 0x4E6 JUMPI PUSH1 0x0 DUP1 REVERT JUMPDEST POP PUSH2 0x2CC PUSH2 0x4F5 CALLDATASIZE PUSH1 0x4 PUSH2 0x2303 JUMP JUMPDEST PUSH2 0xF9D JUMP JUMPDEST CALLVALUE DUP1 ISZERO PUSH2 0x506 JUMPI PUSH1 0x0 DUP1 REVERT JUMPDEST POP PUSH2 0x2CC PUSH2 0x515 CALLDATASIZE PUSH1 0x4 PUSH2 0x2206 JUMP JUMPDEST PUSH2 0xFB1 JUMP JUMPDEST CALLVALUE DUP1 ISZERO PUSH2 0x526 JUMPI PUSH1 0x0 DUP1 REVERT JUMPDEST POP PUSH1 0x14 SLOAD PUSH2 0x297 SWAP1 PUSH1 0xFF AND DUP2 JUMP JUMPDEST PUSH2 0x2CC PUSH2 0xFC3 JUMP JUMPDEST CALLVALUE DUP1 ISZERO PUSH2 0x548 JUMPI PUSH1 0x0 DUP1 REVERT JUMPDEST POP PUSH2 0x310 PUSH2 0x557 CALLDATASIZE PUSH1 0x4 PUSH2 0x21D6 JUMP JUMPDEST PUSH2 0x10D1 JUMP JUMPDEST CALLVALUE DUP1 ISZERO PUSH2 0x568 JUMPI PUSH1 0x0 DUP1 REVERT JUMPDEST POP PUSH2 0x2CC PUSH2 0x577 CALLDATASIZE PUSH1 0x4 PUSH2 0x21D6 JUMP JUMPDEST PUSH2 0x110F JUMP JUMPDEST CALLVALUE DUP1 ISZERO PUSH2 0x588 JUMPI PUSH1 0x0 DUP1 REVERT JUMPDEST POP PUSH2 0x2E3 PUSH2 0x111C JUMP JUMPDEST CALLVALUE DUP1 ISZERO PUSH2 0x59D JUMPI PUSH1 0x0 DUP1 REVERT JUMPDEST POP PUSH2 0x375 PUSH2 0x5AC CALLDATASIZE PUSH1 0x4 PUSH2 0x228E JUMP JUMPDEST PUSH2 0x11AA JUMP JUMPDEST CALLVALUE DUP1 ISZERO PUSH2 0x5BD JUMPI PUSH1 0x0 DUP1 REVERT JUMPDEST POP PUSH2 0x2CC PUSH2 0x11E5 JUMP JUMPDEST CALLVALUE DUP1 ISZERO PUSH2 0x5D2 JUMPI PUSH1 0x0 DUP1 REVERT JUMPDEST POP PUSH2 0x297 PUSH2 0x5E1 CALLDATASIZE PUSH1 0x4 PUSH2 0x21D6 JUMP JUMPDEST PUSH2 0x11F7 JUMP JUMPDEST CALLVALUE DUP1 ISZERO PUSH2 0x5F2 JUMPI PUSH1 0x0 DUP1 REVERT JUMPDEST POP PUSH1 0xD SLOAD PUSH1 0x1 PUSH1 0x1 PUSH1 0xA0 SHL SUB AND PUSH2 0x310 JUMP JUMPDEST CALLVALUE DUP1 ISZERO PUSH2 0x610 JUMPI PUSH1 0x0 DUP1 REVERT JUMPDEST POP PUSH2 0x2E3 PUSH2 0x12BA JUMP JUMPDEST CALLVALUE DUP1 ISZERO PUSH2 0x625 JUMPI PUSH1 0x0 DUP1 REVERT JUMPDEST POP PUSH1 0x8 SLOAD PUSH2 0x310 SWAP1 PUSH1 0x1 PUSH1 0x1 PUSH1 0xA0 SHL SUB AND DUP2 JUMP JUMPDEST CALLVALUE DUP1 ISZERO PUSH2 0x645 JUMPI PUSH1 0x0 DUP1 REVERT JUMPDEST POP PUSH2 0x375 PUSH1 0x11 SLOAD DUP2 JUMP JUMPDEST CALLVALUE DUP1 ISZERO PUSH2 0x65B JUMPI PUSH1 0x0 DUP1 REVERT JUMPDEST POP PUSH2 0x2CC PUSH2 0x66A CALLDATASIZE PUSH1 0x4 PUSH2 0x23B4 JUMP JUMPDEST PUSH2 0x12C9 JUMP JUMPDEST PUSH2 0x2CC PUSH2 0x67D CALLDATASIZE PUSH1 0x4 PUSH2 0x23E7 JUMP JUMPDEST PUSH2 0x131F JUMP JUMPDEST CALLVALUE DUP1 ISZERO PUSH2 0x68E JUMPI PUSH1 0x0 DUP1 REVERT JUMPDEST POP PUSH2 0x2E3 PUSH2 0x137A JUMP JUMPDEST CALLVALUE DUP1 ISZERO PUSH2 0x6A3 JUMPI PUSH1 0x0 DUP1 REVERT JUMPDEST POP PUSH2 0x2E3 PUSH2 0x6B2 CALLDATASIZE PUSH1 0x4 PUSH2 0x21D6 JUMP JUMPDEST PUSH2 0x1387 JUMP JUMPDEST CALLVALUE DUP1 ISZERO PUSH2 0x6C3 JUMPI PUSH1 0x0 DUP1 REVERT JUMPDEST POP PUSH2 0x375 PUSH32 0x0 DUP2 JUMP JUMPDEST CALLVALUE DUP1 ISZERO PUSH2 0x6F7 JUMPI PUSH1 0x0 DUP1 REVERT JUMPDEST POP PUSH2 0x375 PUSH1 0xC SLOAD DUP2 JUMP JUMPDEST CALLVALUE DUP1 ISZERO PUSH2 0x70D JUMPI PUSH1 0x0 DUP1 REVERT JUMPDEST POP PUSH2 0x2CC PUSH2 0x71C CALLDATASIZE PUSH1 0x4 PUSH2 0x2303 JUMP JUMPDEST PUSH2 0x1472 JUMP JUMPDEST CALLVALUE DUP1 ISZERO PUSH2 0x72D JUMPI PUSH1 0x0 DUP1 REVERT JUMPDEST POP PUSH2 0x741 PUSH2 0x73C CALLDATASIZE PUSH1 0x4 PUSH2 0x228E JUMP JUMPDEST PUSH2 0x1486 JUMP JUMPDEST PUSH1 0x40 MLOAD PUSH4 0xFFFFFFFF SWAP1 SWAP2 AND DUP2 MSTORE PUSH1 0x20 ADD PUSH2 0x2A3 JUMP JUMPDEST CALLVALUE DUP1 ISZERO PUSH2 0x762 JUMPI PUSH1 0x0 DUP1 REVERT JUMPDEST POP PUSH1 0x8 SLOAD PUSH2 0x77D SWAP1 PUSH1 0x1 PUSH1 0xA0 SHL SWAP1 DIV PUSH1 0x1 PUSH1 0x1 PUSH1 0x60 SHL SUB AND DUP2 JUMP JUMPDEST PUSH1 0x40 MLOAD PUSH1 0x1 PUSH1 0x1 PUSH1 0x60 SHL SUB SWAP1 SWAP2 AND DUP2 MSTORE PUSH1 0x20 ADD PUSH2 0x2A3 JUMP JUMPDEST CALLVALUE DUP1 ISZERO PUSH2 0x7A1 JUMPI PUSH1 0x0 DUP1 REVERT JUMPDEST POP PUSH2 0x2E3 PUSH2 0x14C0 JUMP JUMPDEST CALLVALUE DUP1 ISZERO PUSH2 0x7B6 JUMPI PUSH1 0x0 DUP1 REVERT JUMPDEST POP PUSH2 0x297 PUSH2 0x7C5 CALLDATASIZE PUSH1 0x4 PUSH2 0x2482 JUMP JUMPDEST PUSH1 0x1C MSTORE PUSH8 0xA5A2E7A00000000 PUSH1 0x8 MSTORE PUSH1 0x0 MSTORE PUSH1 0x30 PUSH1 0xC KECCAK256 SLOAD SWAP1 JUMP JUMPDEST CALLVALUE DUP1 ISZERO PUSH2 0x7EC JUMPI PUSH1 0x0 DUP1 REVERT JUMPDEST POP PUSH2 0x2CC PUSH2 0x7FB CALLDATASIZE PUSH1 0x4 PUSH2 0x228E JUMP JUMPDEST PUSH2 0x14E0 JUMP JUMPDEST PUSH1 0x0 PUSH2 0x80B DUP3 PUSH2 0x1556 JUMP JUMPDEST SWAP3 SWAP2 POP POP JUMP JUMPDEST PUSH2 0x819 PUSH2 0x158B JUMP JUMPDEST PUSH1 0x14 DUP1 SLOAD PUSH1 0xFF NOT AND SWAP2 ISZERO ISZERO SWAP2 SWAP1 SWAP2 OR SWAP1 SSTORE JUMP JUMPDEST PUSH1 0x60 PUSH1 0x6 DUP1 SLOAD PUSH2 0x83B SWAP1 PUSH2 0x24AC JUMP JUMPDEST DUP1 PUSH1 0x1F ADD PUSH1 0x20 DUP1 SWAP2 DIV MUL PUSH1 0x20 ADD PUSH1 0x40 MLOAD SWAP1 DUP2 ADD PUSH1 0x40 MSTORE DUP1 SWAP3 SWAP2 SWAP1 DUP2 DUP2 MSTORE PUSH1 0x20 ADD DUP3 DUP1 SLOAD PUSH2 0x867 SWAP1 PUSH2 0x24AC JUMP JUMPDEST DUP1 ISZERO PUSH2 0x8B4 JUMPI DUP1 PUSH1 0x1F LT PUSH2 0x889 JUMPI PUSH2 0x100 DUP1 DUP4 SLOAD DIV MUL DUP4 MSTORE SWAP2 PUSH1 0x20 ADD SWAP2 PUSH2 0x8B4 JUMP JUMPDEST DUP3 ADD SWAP2 SWAP1 PUSH1 0x0 MSTORE PUSH1 0x20 PUSH1 0x0 KECCAK256 SWAP1 JUMPDEST DUP2 SLOAD DUP2 MSTORE SWAP1 PUSH1 0x1 ADD SWAP1 PUSH1 0x20 ADD DUP1 DUP4 GT PUSH2 0x897 JUMPI DUP3 SWAP1 SUB PUSH1 0x1F AND DUP3 ADD SWAP2 JUMPDEST POP POP POP POP POP SWAP1 POP SWAP1 JUMP JUMPDEST PUSH1 0x0 DUP2 DUP2 MSTORE PUSH8 0x3EC412A9852D173D PUSH1 0xC1 SHL PUSH1 0x1C MSTORE PUSH1 0x20 DUP2 KECCAK256 DUP3 ADD DUP3 ADD DUP1 SLOAD PUSH1 0x1 PUSH1 0x1 PUSH1 0xA0 SHL SUB AND PUSH2 0x8F7 JUMPI PUSH4 0xCEEA21B6 PUSH1 0x0 MSTORE PUSH1 0x4 PUSH1 0x1C REVERT JUMPDEST PUSH1 0x1 ADD SLOAD SWAP3 SWAP2 POP POP JUMP JUMPDEST PUSH2 0x90C CALLER DUP4 DUP4 PUSH2 0x15E5 JUMP JUMPDEST POP POP JUMP JUMPDEST PUSH1 0x0 PUSH1 0xC SLOAD PUSH32 0x0 PUSH2 0x940 SWAP2 SWAP1 PUSH2 0x24FC JUMP JUMPDEST SWAP1 POP SWAP1 JUMP JUMPDEST PUSH2 0x952 DUP4 DUP4 DUP4 PUSH1 0x1 PUSH2 0x1686 JUMP JUMPDEST PUSH1 0x0 DUP2 DUP2 MSTORE PUSH8 0x3EC412A9852D173D PUSH1 0xC1 SHL CALLER OR PUSH1 0x1C MSTORE PUSH1 0x20 SWAP1 KECCAK256 DUP2 ADD DUP2 ADD DUP1 SLOAD PUSH1 0x1 PUSH1 0x1 PUSH1 0xA0 SHL SUB SWAP5 DUP6 AND SWAP5 SWAP4 DUP5 AND SWAP4 DUP2 AND SWAP2 SWAP1 DUP3 DUP7 EQ DUP4 MUL PUSH2 0x9B0 JUMPI DUP3 PUSH2 0x9A2 JUMPI PUSH4 0xCEEA21B6 PUSH1 0x0 MSTORE PUSH1 0x4 PUSH1 0x1C REVERT JUMPDEST PUSH4 0xA1148100 PUSH1 0x0 MSTORE PUSH1 0x4 PUSH1 0x1C REVERT JUMPDEST DUP5 PUSH2 0x9C3 JUMPI PUSH4 0xEA553B34 PUSH1 0x0 MSTORE PUSH1 0x4 PUSH1 0x1C REVERT JUMPDEST DUP6 PUSH1 0x0 MSTORE DUP2 PUSH1 0x1 ADD SLOAD SWAP3 POP DUP3 CALLER EQ DUP7 CALLER EQ OR PUSH2 0x9F1 JUMPI PUSH1 0x30 PUSH1 0xC KECCAK256 SLOAD PUSH2 0x9F1 JUMPI PUSH4 0x4B6E7F18 PUSH1 0x0 MSTORE PUSH1 0x4 PUSH1 0x1C REVERT JUMPDEST DUP3 ISZERO PUSH2 0x9FF JUMPI PUSH1 0x0 DUP3 PUSH1 0x1 ADD SSTORE JUMPDEST DUP6 DUP6 XOR XOR SWAP1 SSTORE POP PUSH1 0x1C PUSH1 0xC DUP2 DUP2 KECCAK256 DUP1 SLOAD PUSH1 0x0 NOT ADD SWAP1 SSTORE PUSH1 0x0 DUP5 SWAP1 MSTORE KECCAK256 DUP1 SLOAD PUSH1 0x1 ADD PUSH4 0xFFFFFFFF DUP2 AND PUSH2 0xA39 JUMPI PUSH4 0x1336CEA PUSH1 0x0 MSTORE PUSH1 0x4 PUSH1 0x1C REVERT JUMPDEST SWAP1 SSTORE DUP1 DUP3 DUP5 PUSH32 0xDDF252AD1BE2C89B69C2B068FC378DAA952BA7F163C4A11628F55A4DF523B3EF PUSH1 0x0 DUP1 LOG4 JUMPDEST POP POP POP JUMP JUMPDEST PUSH2 0xA71 PUSH2 0x158B JUMP JUMPDEST PUSH2 0xA7A DUP2 PUSH2 0x17B3 JUMP JUMPDEST POP JUMP JUMPDEST PUSH1 0x0 DUP3 DUP2 MSTORE PUSH1 0x5 PUSH1 0x20 SWAP1 DUP2 MSTORE PUSH1 0x40 DUP1 DUP4 KECCAK256 DUP2 MLOAD DUP1 DUP4 ADD SWAP1 SWAP3 MSTORE SLOAD PUSH1 0x1 PUSH1 0x1 PUSH1 0xA0 SHL SUB DUP2 AND DUP1 DUP4 MSTORE PUSH1 0x1 PUSH1 0xA0 SHL SWAP1 SWAP2 DIV PUSH1 0x1 PUSH1 0x1 PUSH1 0x60 SHL SUB AND SWAP3 DUP3 ADD SWAP3 SWAP1 SWAP3 MSTORE DUP3 SWAP2 PUSH2 0xAF2 JUMPI POP PUSH1 0x40 DUP1 MLOAD DUP1 DUP3 ADD SWAP1 SWAP2 MSTORE PUSH1 0x4 SLOAD PUSH1 0x1 PUSH1 0x1 PUSH1 0xA0 SHL SUB DUP2 AND DUP3 MSTORE PUSH1 0x1 PUSH1 0xA0 SHL SWAP1 DIV PUSH1 0x1 PUSH1 0x1 PUSH1 0x60 SHL SUB AND PUSH1 0x20 DUP3 ADD MSTORE JUMPDEST PUSH1 0x20 DUP2 ADD MLOAD PUSH1 0x0 SWAP1 PUSH2 0x2710 SWAP1 PUSH2 0xB11 SWAP1 PUSH1 0x1 PUSH1 0x1 PUSH1 0x60 SHL SUB AND DUP8 PUSH2 0x250F JUMP JUMPDEST PUSH2 0xB1B SWAP2 SWAP1 PUSH2 0x2526 JUMP JUMPDEST SWAP2 MLOAD SWAP7 SWAP2 SWAP6 POP SWAP1 SWAP4 POP POP POP POP JUMP JUMPDEST PUSH1 0x0 PUSH2 0xB34 DUP4 PUSH2 0x11AA JUMP JUMPDEST DUP3 LT PUSH2 0xB9B JUMPI PUSH1 0x40 MLOAD PUSH3 0x461BCD PUSH1 0xE5 SHL DUP2 MSTORE PUSH1 0x20 PUSH1 0x4 DUP3 ADD MSTORE PUSH1 0x2B PUSH1 0x24 DUP3 ADD MSTORE PUSH32 0x455243373231456E756D657261626C653A206F776E657220696E646578206F75 PUSH1 0x44 DUP3 ADD MSTORE PUSH11 0x74206F6620626F756E6473 PUSH1 0xA8 SHL PUSH1 0x64 DUP3 ADD MSTORE PUSH1 0x84 ADD JUMPDEST PUSH1 0x40 MLOAD DUP1 SWAP2 SUB SWAP1 REVERT JUMPDEST POP PUSH1 0x1 PUSH1 0x1 PUSH1 0xA0 SHL SUB SWAP2 SWAP1 SWAP2 AND PUSH1 0x0 SWAP1 DUP2 MSTORE PUSH1 0x20 DUP2 DUP2 MSTORE PUSH1 0x40 DUP1 DUP4 KECCAK256 SWAP4 DUP4 MSTORE SWAP3 SWAP1 MSTORE KECCAK256 SLOAD SWAP1 JUMP JUMPDEST PUSH2 0xBCA PUSH2 0x17CD JUMP JUMPDEST PUSH1 0x0 PUSH2 0xBD4 PUSH2 0x910 JUMP JUMPDEST SWAP1 POP PUSH32 0x0 PUSH2 0xC02 DUP3 PUSH1 0xA PUSH2 0x2548 JUMP JUMPDEST GT ISZERO PUSH2 0xC20 JUMPI PUSH1 0x40 MLOAD PUSH3 0x461BCD PUSH1 0xE5 SHL DUP2 MSTORE PUSH1 0x4 ADD PUSH2 0xB92 SWAP1 PUSH2 0x255B JUMP JUMPDEST PUSH1 0xA PUSH1 0x13 SLOAD LT PUSH2 0xC67 JUMPI PUSH1 0x40 MLOAD PUSH3 0x461BCD PUSH1 0xE5 SHL DUP2 MSTORE PUSH1 0x20 PUSH1 0x4 DUP3 ADD MSTORE PUSH1 0x12 PUSH1 0x24 DUP3 ADD MSTORE PUSH18 0x20B6361039B637BA399030B9329037BB32B9 PUSH1 0x71 SHL PUSH1 0x44 DUP3 ADD MSTORE PUSH1 0x64 ADD PUSH2 0xB92 JUMP JUMPDEST CALLVALUE PUSH1 0x11 SLOAD PUSH1 0x1E PUSH2 0xC77 SWAP2 SWAP1 PUSH2 0x250F JUMP JUMPDEST EQ PUSH2 0xC94 JUMPI PUSH1 0x40 MLOAD PUSH3 0x461BCD PUSH1 0xE5 SHL DUP2 MSTORE PUSH1 0x4 ADD PUSH2 0xB92 SWAP1 PUSH2 0x258A JUMP JUMPDEST PUSH2 0xC9F CALLER PUSH1 0x1E PUSH2 0x1826 JUMP JUMPDEST PUSH2 0xCC8 CALLER PUSH1 0xA PUSH1 0x13 SLOAD DUP2 SLOAD DUP2 LT PUSH2 0xCB8 JUMPI PUSH2 0xCB8 PUSH2 0x25B6 JUMP JUMPDEST SWAP1 PUSH1 0x0 MSTORE PUSH1 0x20 PUSH1 0x0 KECCAK256 ADD SLOAD PUSH2 0x1977 JUMP JUMPDEST PUSH2 0xCD0 PUSH2 0xCFA JUMP JUMPDEST PUSH1 0x13 DUP1 SLOAD SWAP1 PUSH1 0x0 PUSH2 0xCE0 DUP4 PUSH2 0x25CC JUMP JUMPDEST SWAP2 SWAP1 POP SSTORE POP POP PUSH2 0xCF0 PUSH1 0x1 PUSH1 0xE SSTORE JUMP JUMPDEST JUMP JUMPDEST PUSH2 0xCFA PUSH2 0x158B JUMP JUMPDEST PUSH1 0x14 SLOAD PUSH1 0x40 MLOAD PUSH1 0x0 SWAP2 PUSH2 0x100 SWAP1 DIV PUSH1 0x1 PUSH1 0x1 PUSH1 0xA0 SHL SUB AND SWAP1 SELFBALANCE SWAP1 DUP4 DUP2 DUP2 DUP2 DUP6 DUP8 GAS CALL SWAP3 POP POP POP RETURNDATASIZE DUP1 PUSH1 0x0 DUP2 EQ PUSH2 0xD4C JUMPI PUSH1 0x40 MLOAD SWAP2 POP PUSH1 0x1F NOT PUSH1 0x3F RETURNDATASIZE ADD AND DUP3 ADD PUSH1 0x40 MSTORE RETURNDATASIZE DUP3 MSTORE RETURNDATASIZE PUSH1 0x0 PUSH1 0x20 DUP5 ADD RETURNDATACOPY PUSH2 0xD51 JUMP JUMPDEST PUSH1 0x60 SWAP2 POP JUMPDEST POP POP SWAP1 POP DUP1 PUSH2 0xA7A JUMPI PUSH1 0x0 DUP1 REVERT JUMPDEST PUSH2 0xD67 PUSH2 0x17CD JUMP JUMPDEST PUSH1 0x0 PUSH2 0xD71 PUSH2 0x910 JUMP JUMPDEST PUSH1 0x14 SLOAD SWAP1 SWAP2 POP PUSH1 0xFF AND ISZERO PUSH2 0xD84 JUMPI PUSH1 0x0 DUP1 REVERT JUMPDEST PUSH32 0x0 PUSH2 0xDAF DUP4 DUP4 PUSH2 0x2548 JUMP JUMPDEST GT ISZERO PUSH2 0xDCD JUMPI PUSH1 0x40 MLOAD PUSH3 0x461BCD PUSH1 0xE5 SHL DUP2 MSTORE PUSH1 0x4 ADD PUSH2 0xB92 SWAP1 PUSH2 0x255B JUMP JUMPDEST CALLVALUE DUP3 PUSH1 0x11 SLOAD PUSH2 0xDDC SWAP2 SWAP1 PUSH2 0x250F JUMP JUMPDEST EQ PUSH2 0xDF9 JUMPI PUSH1 0x40 MLOAD PUSH3 0x461BCD PUSH1 0xE5 SHL DUP2 MSTORE PUSH1 0x4 ADD PUSH2 0xB92 SWAP1 PUSH2 0x258A JUMP JUMPDEST PUSH2 0xE03 DUP4 DUP4 PUSH2 0x1826 JUMP JUMPDEST PUSH2 0xE0B PUSH2 0xCFA JUMP JUMPDEST POP PUSH2 0x90C PUSH1 0x1 PUSH1 0xE SSTORE JUMP JUMPDEST PUSH2 0xE21 DUP4 DUP4 DUP4 PUSH2 0x945 JUMP JUMPDEST DUP2 EXTCODESIZE ISZERO PUSH2 0xA64 JUMPI PUSH2 0xA64 DUP4 DUP4 DUP4 PUSH1 0x40 MLOAD DUP1 PUSH1 0x20 ADD PUSH1 0x40 MSTORE DUP1 PUSH1 0x0 DUP2 MSTORE POP PUSH2 0x1A33 JUMP JUMPDEST PUSH1 0x60 PUSH1 0x0 PUSH2 0xE50 DUP4 PUSH2 0x11AA JUMP JUMPDEST SWAP1 POP PUSH1 0x0 DUP2 PUSH8 0xFFFFFFFFFFFFFFFF DUP2 GT ISZERO PUSH2 0xE6D JUMPI PUSH2 0xE6D PUSH2 0x22ED JUMP JUMPDEST PUSH1 0x40 MLOAD SWAP1 DUP1 DUP3 MSTORE DUP1 PUSH1 0x20 MUL PUSH1 0x20 ADD DUP3 ADD PUSH1 0x40 MSTORE DUP1 ISZERO PUSH2 0xE96 JUMPI DUP2 PUSH1 0x20 ADD PUSH1 0x20 DUP3 MUL DUP1 CALLDATASIZE DUP4 CALLDATACOPY ADD SWAP1 POP JUMPDEST POP SWAP1 POP PUSH1 0x0 JUMPDEST DUP3 DUP2 LT ISZERO PUSH2 0xEDD JUMPI PUSH2 0xEAE DUP6 DUP3 PUSH2 0xB29 JUMP JUMPDEST DUP3 DUP3 DUP2 MLOAD DUP2 LT PUSH2 0xEC0 JUMPI PUSH2 0xEC0 PUSH2 0x25B6 JUMP JUMPDEST PUSH1 0x20 SWAP1 DUP2 MUL SWAP2 SWAP1 SWAP2 ADD ADD MSTORE DUP1 PUSH2 0xED5 DUP2 PUSH2 0x25CC JUMP JUMPDEST SWAP2 POP POP PUSH2 0xE9C JUMP JUMPDEST POP SWAP4 SWAP3 POP POP POP JUMP JUMPDEST PUSH1 0x0 DUP2 DUP2 MSTORE PUSH8 0x3EC412A9852D173D PUSH1 0xC1 SHL PUSH1 0x1C MSTORE PUSH1 0x20 DUP2 KECCAK256 DUP3 ADD DUP3 ADD SLOAD PUSH1 0x60 SHL PUSH2 0x80B JUMP JUMPDEST PUSH1 0x0 PUSH2 0xF15 PUSH1 0x2 SLOAD SWAP1 JUMP JUMPDEST DUP3 LT PUSH2 0xF78 JUMPI PUSH1 0x40 MLOAD PUSH3 0x461BCD PUSH1 0xE5 SHL DUP2 MSTORE PUSH1 0x20 PUSH1 0x4 DUP3 ADD MSTORE PUSH1 0x2C PUSH1 0x24 DUP3 ADD MSTORE PUSH32 0x455243373231456E756D657261626C653A20676C6F62616C20696E646578206F PUSH1 0x44 DUP3 ADD MSTORE PUSH12 0x7574206F6620626F756E6473 PUSH1 0xA0 SHL PUSH1 0x64 DUP3 ADD MSTORE PUSH1 0x84 ADD PUSH2 0xB92 JUMP JUMPDEST PUSH1 0x2 DUP3 DUP2 SLOAD DUP2 LT PUSH2 0xF8B JUMPI PUSH2 0xF8B PUSH2 0x25B6 JUMP JUMPDEST SWAP1 PUSH1 0x0 MSTORE PUSH1 0x20 PUSH1 0x0 KECCAK256 ADD SLOAD SWAP1 POP SWAP2 SWAP1 POP JUMP JUMPDEST PUSH2 0xFA5 PUSH2 0x158B JUMP JUMPDEST PUSH1 0xF PUSH2 0x90C DUP3 DUP3 PUSH2 0x262B JUMP JUMPDEST PUSH2 0xFB9 PUSH2 0x158B JUMP JUMPDEST PUSH2 0x90C DUP3 DUP3 PUSH2 0x1977 JUMP JUMPDEST PUSH2 0xFCB PUSH2 0x17CD JUMP JUMPDEST PUSH1 0x0 PUSH2 0xFD5 PUSH2 0x910 JUMP JUMPDEST SWAP1 POP PUSH32 0x0 PUSH2 0x1003 DUP3 PUSH1 0xA PUSH2 0x2548 JUMP JUMPDEST GT ISZERO PUSH2 0x1021 JUMPI PUSH1 0x40 MLOAD PUSH3 0x461BCD PUSH1 0xE5 SHL DUP2 MSTORE PUSH1 0x4 ADD PUSH2 0xB92 SWAP1 PUSH2 0x255B JUMP JUMPDEST PUSH1 0x14 PUSH1 0x12 SLOAD LT PUSH2 0x1068 JUMPI PUSH1 0x40 MLOAD PUSH3 0x461BCD PUSH1 0xE5 SHL DUP2 MSTORE PUSH1 0x20 PUSH1 0x4 DUP3 ADD MSTORE PUSH1 0x12 PUSH1 0x24 DUP3 ADD MSTORE PUSH18 0x20B6361039B637BA399030B9329037BB32B9 PUSH1 0x71 SHL PUSH1 0x44 DUP3 ADD MSTORE PUSH1 0x64 ADD PUSH2 0xB92 JUMP JUMPDEST CALLVALUE PUSH1 0x11 SLOAD PUSH1 0xA PUSH2 0x1078 SWAP2 SWAP1 PUSH2 0x250F JUMP JUMPDEST EQ PUSH2 0x1095 JUMPI PUSH1 0x40 MLOAD PUSH3 0x461BCD PUSH1 0xE5 SHL DUP2 MSTORE PUSH1 0x4 ADD PUSH2 0xB92 SWAP1 PUSH2 0x258A JUMP JUMPDEST PUSH2 0x10A0 CALLER PUSH1 0xA PUSH2 0x1826 JUMP JUMPDEST PUSH2 0x10B9 CALLER PUSH1 0x9 PUSH1 0x12 SLOAD DUP2 SLOAD DUP2 LT PUSH2 0xCB8 JUMPI PUSH2 0xCB8 PUSH2 0x25B6 JUMP JUMPDEST PUSH2 0x10C1 PUSH2 0xCFA JUMP JUMPDEST PUSH1 0x12 DUP1 SLOAD SWAP1 PUSH1 0x0 PUSH2 0xCE0 DUP4 PUSH2 0x25CC JUMP JUMPDEST PUSH1 0x0 DUP2 DUP2 MSTORE PUSH8 0x3EC412A9852D173D PUSH1 0xC1 SHL PUSH1 0x1C MSTORE PUSH1 0x20 SWAP1 KECCAK256 DUP2 ADD DUP2 ADD SLOAD PUSH1 0x1 PUSH1 0x1 PUSH1 0xA0 SHL SUB AND DUP1 PUSH2 0x110A JUMPI PUSH4 0xCEEA21B6 PUSH1 0x0 MSTORE PUSH1 0x4 PUSH1 0x1C REVERT JUMPDEST SWAP2 SWAP1 POP JUMP JUMPDEST PUSH2 0x1117 PUSH2 0x158B JUMP JUMPDEST PUSH1 0x11 SSTORE JUMP JUMPDEST PUSH1 0xF DUP1 SLOAD PUSH2 0x1129 SWAP1 PUSH2 0x24AC JUMP JUMPDEST DUP1 PUSH1 0x1F ADD PUSH1 0x20 DUP1 SWAP2 DIV MUL PUSH1 0x20 ADD PUSH1 0x40 MLOAD SWAP1 DUP2 ADD PUSH1 0x40 MSTORE DUP1 SWAP3 SWAP2 SWAP1 DUP2 DUP2 MSTORE PUSH1 0x20 ADD DUP3 DUP1 SLOAD PUSH2 0x1155 SWAP1 PUSH2 0x24AC JUMP JUMPDEST DUP1 ISZERO PUSH2 0x11A2 JUMPI DUP1 PUSH1 0x1F LT PUSH2 0x1177 JUMPI PUSH2 0x100 DUP1 DUP4 SLOAD DIV MUL DUP4 MSTORE SWAP2 PUSH1 0x20 ADD SWAP2 PUSH2 0x11A2 JUMP JUMPDEST DUP3 ADD SWAP2 SWAP1 PUSH1 0x0 MSTORE PUSH1 0x20 PUSH1 0x0 KECCAK256 SWAP1 JUMPDEST DUP2 SLOAD DUP2 MSTORE SWAP1 PUSH1 0x1 ADD SWAP1 PUSH1 0x20 ADD DUP1 DUP4 GT PUSH2 0x1185 JUMPI DUP3 SWAP1 SUB PUSH1 0x1F AND DUP3 ADD SWAP2 JUMPDEST POP POP POP POP POP DUP2 JUMP JUMPDEST PUSH1 0x0 DUP2 PUSH2 0x11BF JUMPI PUSH4 0x8F4EB604 PUSH1 0x0 MSTORE PUSH1 0x4 PUSH1 0x1C REVERT JUMPDEST PUSH8 0x3EC412A9852D173D PUSH1 0xC1 SHL PUSH1 0x1C MSTORE DUP2 PUSH1 0x0 MSTORE PUSH4 0xFFFFFFFF PUSH1 0x1C PUSH1 0xC KECCAK256 SLOAD AND SWAP1 POP SWAP2 SWAP1 POP JUMP JUMPDEST PUSH2 0x11ED PUSH2 0x158B JUMP JUMPDEST PUSH2 0xCF0 PUSH1 0x0 PUSH2 0x1AC5 JUMP JUMPDEST PUSH1 0x0 DUP1 PUSH1 0x0 JUMPDEST PUSH1 0x14 DUP2 PUSH2 0xFFFF AND LT ISZERO PUSH2 0x1251 JUMPI PUSH1 0x9 DUP2 PUSH2 0xFFFF AND DUP2 SLOAD DUP2 LT PUSH2 0x1221 JUMPI PUSH2 0x1221 PUSH2 0x25B6 JUMP JUMPDEST SWAP1 PUSH1 0x0 MSTORE PUSH1 0x20 PUSH1 0x0 KECCAK256 ADD SLOAD DUP5 SUB PUSH2 0x123B JUMPI PUSH1 0x1 SWAP2 POP PUSH2 0x1251 JUMP JUMPDEST PUSH1 0x0 SWAP2 POP DUP1 PUSH2 0x1249 DUP2 PUSH2 0x26EB JUMP JUMPDEST SWAP2 POP POP PUSH2 0x11FD JUMP JUMPDEST POP DUP1 ISZERO ISZERO PUSH1 0x0 SUB PUSH2 0x80B JUMPI PUSH1 0x0 JUMPDEST PUSH1 0xA DUP2 PUSH2 0xFFFF AND LT ISZERO PUSH2 0x12B3 JUMPI PUSH1 0xA DUP2 PUSH2 0xFFFF AND DUP2 SLOAD DUP2 LT PUSH2 0x1283 JUMPI PUSH2 0x1283 PUSH2 0x25B6 JUMP JUMPDEST SWAP1 PUSH1 0x0 MSTORE PUSH1 0x20 PUSH1 0x0 KECCAK256 ADD SLOAD DUP5 SUB PUSH2 0x129D JUMPI PUSH1 0x1 SWAP2 POP PUSH2 0x12B3 JUMP JUMPDEST PUSH1 0x0 SWAP2 POP DUP1 PUSH2 0x12AB DUP2 PUSH2 0x26EB JUMP JUMPDEST SWAP2 POP POP PUSH2 0x125F JUMP JUMPDEST POP SWAP3 SWAP2 POP POP JUMP JUMPDEST PUSH1 0x60 PUSH1 0x7 DUP1 SLOAD PUSH2 0x83B SWAP1 PUSH2 0x24AC JUMP JUMPDEST DUP1 ISZERO ISZERO SWAP1 POP DUP2 PUSH1 0x1C MSTORE PUSH8 0xA5A2E7A00000000 PUSH1 0x8 MSTORE CALLER PUSH1 0x0 MSTORE DUP1 PUSH1 0x30 PUSH1 0xC KECCAK256 SSTORE DUP1 PUSH1 0x0 MSTORE DUP2 PUSH1 0x60 SHL PUSH1 0x60 SHR CALLER PUSH32 0x17307EAB39AB6107E8899845AD3D59BD9653F200F220920489CA2B5937696C31 PUSH1 0x20 PUSH1 0x0 LOG3 POP POP JUMP JUMPDEST PUSH2 0x132A DUP6 DUP6 DUP6 PUSH2 0x945 JUMP JUMPDEST DUP4 EXTCODESIZE ISZERO PUSH2 0x1373 JUMPI PUSH2 0x1373 DUP6 DUP6 DUP6 DUP6 DUP6 DUP1 DUP1 PUSH1 0x1F ADD PUSH1 0x20 DUP1 SWAP2 DIV MUL PUSH1 0x20 ADD PUSH1 0x40 MLOAD SWAP1 DUP2 ADD PUSH1 0x40 MSTORE DUP1 SWAP4 SWAP3 SWAP2 SWAP1 DUP2 DUP2 MSTORE PUSH1 0x20 ADD DUP4 DUP4 DUP1 DUP3 DUP5 CALLDATACOPY PUSH1 0x0 SWAP3 ADD SWAP2 SWAP1 SWAP2 MSTORE POP PUSH2 0x1A33 SWAP3 POP POP POP JUMP JUMPDEST POP POP POP POP POP JUMP JUMPDEST PUSH1 0x10 DUP1 SLOAD PUSH2 0x1129 SWAP1 PUSH2 0x24AC JUMP JUMPDEST PUSH1 0x60 PUSH2 0x13AF DUP3 PUSH1 0x0 DUP2 DUP2 MSTORE PUSH8 0x3EC412A9852D173D PUSH1 0xC1 SHL PUSH1 0x1C MSTORE PUSH1 0x20 SWAP1 KECCAK256 DUP2 ADD ADD SLOAD PUSH1 0x60 SHL SWAP1 JUMP JUMPDEST PUSH2 0x1413 JUMPI PUSH1 0x40 MLOAD PUSH3 0x461BCD PUSH1 0xE5 SHL DUP2 MSTORE PUSH1 0x20 PUSH1 0x4 DUP3 ADD MSTORE PUSH1 0x2F PUSH1 0x24 DUP3 ADD MSTORE PUSH32 0x4552433732314D657461646174613A2055524920717565727920666F72206E6F PUSH1 0x44 DUP3 ADD MSTORE PUSH15 0x3732BC34B9BA32B73A103A37B5B2B7 PUSH1 0x89 SHL PUSH1 0x64 DUP3 ADD MSTORE PUSH1 0x84 ADD PUSH2 0xB92 JUMP JUMPDEST PUSH1 0x0 PUSH2 0x141D PUSH2 0x1B17 JUMP JUMPDEST SWAP1 POP PUSH1 0x0 DUP2 MLOAD GT PUSH2 0x143D JUMPI PUSH1 0x40 MLOAD DUP1 PUSH1 0x20 ADD PUSH1 0x40 MSTORE DUP1 PUSH1 0x0 DUP2 MSTORE POP PUSH2 0x146B JUMP JUMPDEST DUP1 PUSH2 0x1447 DUP5 PUSH2 0x1B26 JUMP JUMPDEST PUSH1 0x10 PUSH1 0x40 MLOAD PUSH1 0x20 ADD PUSH2 0x145B SWAP4 SWAP3 SWAP2 SWAP1 PUSH2 0x270C JUMP JUMPDEST PUSH1 0x40 MLOAD PUSH1 0x20 DUP2 DUP4 SUB SUB DUP2 MSTORE SWAP1 PUSH1 0x40 MSTORE JUMPDEST SWAP4 SWAP3 POP POP POP JUMP JUMPDEST PUSH2 0x147A PUSH2 0x158B JUMP JUMPDEST PUSH1 0x10 PUSH2 0x90C DUP3 DUP3 PUSH2 0x262B JUMP JUMPDEST PUSH1 0x0 PUSH1 0xC0 PUSH2 0x14AF DUP4 PUSH8 0x3EC412A9852D173D PUSH1 0xC1 SHL PUSH1 0x1C SWAP1 DUP2 MSTORE PUSH1 0x0 SWAP2 SWAP1 SWAP2 MSTORE PUSH1 0xC KECCAK256 SLOAD PUSH1 0x20 SHR SWAP1 JUMP JUMPDEST PUSH1 0x1 PUSH1 0x1 PUSH1 0xE0 SHL SUB AND SWAP1 SHR SWAP3 SWAP2 POP POP JUMP JUMPDEST PUSH1 0x60 PUSH1 0x40 MLOAD DUP1 PUSH1 0x80 ADD PUSH1 0x40 MSTORE DUP1 PUSH1 0x59 DUP2 MSTORE PUSH1 0x20 ADD PUSH2 0x2814 PUSH1 0x59 SWAP2 CODECOPY SWAP1 POP SWAP1 JUMP JUMPDEST PUSH2 0x14E8 PUSH2 0x158B JUMP JUMPDEST PUSH1 0x1 PUSH1 0x1 PUSH1 0xA0 SHL SUB DUP2 AND PUSH2 0x154D JUMPI PUSH1 0x40 MLOAD PUSH3 0x461BCD PUSH1 0xE5 SHL DUP2 MSTORE PUSH1 0x20 PUSH1 0x4 DUP3 ADD MSTORE PUSH1 0x26 PUSH1 0x24 DUP3 ADD MSTORE PUSH32 0x4F776E61626C653A206E6577206F776E657220697320746865207A65726F2061 PUSH1 0x44 DUP3 ADD MSTORE PUSH6 0x646472657373 PUSH1 0xD0 SHL PUSH1 0x64 DUP3 ADD MSTORE PUSH1 0x84 ADD PUSH2 0xB92 JUMP JUMPDEST PUSH2 0xA7A DUP2 PUSH2 0x1AC5 JUMP JUMPDEST PUSH1 0x0 PUSH1 0x1 PUSH1 0x1 PUSH1 0xE0 SHL SUB NOT DUP3 AND PUSH4 0x152A902D PUSH1 0xE1 SHL EQ DUP1 PUSH2 0x80B JUMPI POP PUSH4 0x1FFC9A7 PUSH1 0xE0 SHL PUSH1 0x1 PUSH1 0x1 PUSH1 0xE0 SHL SUB NOT DUP4 AND EQ PUSH2 0x80B JUMP JUMPDEST PUSH1 0xD SLOAD PUSH1 0x1 PUSH1 0x1 PUSH1 0xA0 SHL SUB AND CALLER EQ PUSH2 0xCF0 JUMPI PUSH1 0x40 MLOAD PUSH3 0x461BCD PUSH1 0xE5 SHL DUP2 MSTORE PUSH1 0x20 PUSH1 0x4 DUP3 ADD DUP2 SWAP1 MSTORE PUSH1 0x24 DUP3 ADD MSTORE PUSH32 0x4F776E61626C653A2063616C6C6572206973206E6F7420746865206F776E6572 PUSH1 0x44 DUP3 ADD MSTORE PUSH1 0x64 ADD PUSH2 0xB92 JUMP JUMPDEST PUSH1 0x0 NOT PUSH1 0x60 SHR DUP3 DUP2 AND SWAP3 POP DUP4 DUP2 AND SWAP4 POP DUP2 PUSH1 0x0 MSTORE DUP4 PUSH8 0x3EC412A9852D173D PUSH1 0xC1 SHL OR PUSH1 0x1C MSTORE PUSH1 0x20 PUSH1 0x0 KECCAK256 DUP3 ADD DUP3 ADD DUP1 SLOAD DUP3 AND SWAP2 POP DUP2 PUSH2 0x162C JUMPI PUSH4 0xCEEA21B6 PUSH1 0x0 MSTORE PUSH1 0x4 PUSH1 0x1C REVERT JUMPDEST DUP2 DUP6 EQ DUP6 ISZERO OR PUSH2 0x1652 JUMPI DUP2 PUSH1 0x0 MSTORE PUSH1 0x30 PUSH1 0xC KECCAK256 SLOAD PUSH2 0x1652 JUMPI PUSH4 0x4B6E7F18 PUSH1 0x0 MSTORE PUSH1 0x4 PUSH1 0x1C REVERT JUMPDEST PUSH1 0x1 ADD DUP4 SWAP1 SSTORE DUP2 DUP4 DUP3 PUSH32 0x8C5BE1E5EBEC7D5BD14F71427D1E84F3DD0314C0F7B2291E5B200AC8C7C3B925 PUSH1 0x0 DUP1 LOG4 POP POP POP POP JUMP JUMPDEST PUSH1 0x1 DUP2 GT ISZERO PUSH2 0x16F5 JUMPI PUSH1 0x40 MLOAD PUSH3 0x461BCD PUSH1 0xE5 SHL DUP2 MSTORE PUSH1 0x20 PUSH1 0x4 DUP3 ADD MSTORE PUSH1 0x35 PUSH1 0x24 DUP3 ADD MSTORE PUSH32 0x455243373231456E756D657261626C653A20636F6E7365637574697665207472 PUSH1 0x44 DUP3 ADD MSTORE PUSH21 0x185B9CD9995C9CC81B9BDD081CDD5C1C1BDC9D1959 PUSH1 0x5A SHL PUSH1 0x64 DUP3 ADD MSTORE PUSH1 0x84 ADD PUSH2 0xB92 JUMP JUMPDEST DUP2 PUSH1 0x1 PUSH1 0x1 PUSH1 0xA0 SHL SUB DUP6 AND PUSH2 0x1751 JUMPI PUSH2 0x174C DUP2 PUSH1 0x2 DUP1 SLOAD PUSH1 0x0 DUP4 DUP2 MSTORE PUSH1 0x3 PUSH1 0x20 MSTORE PUSH1 0x40 DUP2 KECCAK256 DUP3 SWAP1 SSTORE PUSH1 0x1 DUP3 ADD DUP4 SSTORE SWAP2 SWAP1 SWAP2 MSTORE PUSH32 0x405787FA12A823E0F2B7631CC41B3BA8828B3321CA811111FA75CD3AA3BB5ACE ADD SSTORE JUMP JUMPDEST PUSH2 0x1774 JUMP JUMPDEST DUP4 PUSH1 0x1 PUSH1 0x1 PUSH1 0xA0 SHL SUB AND DUP6 PUSH1 0x1 PUSH1 0x1 PUSH1 0xA0 SHL SUB AND EQ PUSH2 0x1774 JUMPI PUSH2 0x1774 DUP6 DUP3 PUSH2 0x1BB9 JUMP JUMPDEST PUSH1 0x1 PUSH1 0x1 PUSH1 0xA0 SHL SUB DUP5 AND PUSH2 0x1790 JUMPI PUSH2 0x178B DUP2 PUSH2 0x1C53 JUMP JUMPDEST PUSH2 0x1373 JUMP JUMPDEST DUP5 PUSH1 0x1 PUSH1 0x1 PUSH1 0xA0 SHL SUB AND DUP5 PUSH1 0x1 PUSH1 0x1 PUSH1 0xA0 SHL SUB AND EQ PUSH2 0x1373 JUMPI PUSH2 0x1373 DUP5 DUP3 PUSH2 0x1D02 JUMP JUMPDEST PUSH2 0x17BC DUP2 PUSH2 0x1D44 JUMP JUMPDEST PUSH1 0x0 SWAP1 DUP2 MSTORE PUSH1 0x5 PUSH1 0x20 MSTORE PUSH1 0x40 DUP2 KECCAK256 SSTORE JUMP JUMPDEST PUSH1 0x2 PUSH1 0xE SLOAD SUB PUSH2 0x181F JUMPI PUSH1 0x40 MLOAD PUSH3 0x461BCD PUSH1 0xE5 SHL DUP2 MSTORE PUSH1 0x20 PUSH1 0x4 DUP3 ADD MSTORE PUSH1 0x1F PUSH1 0x24 DUP3 ADD MSTORE PUSH32 0x5265656E7472616E637947756172643A207265656E7472616E742063616C6C00 PUSH1 0x44 DUP3 ADD MSTORE PUSH1 0x64 ADD PUSH2 0xB92 JUMP JUMPDEST PUSH1 0x2 PUSH1 0xE SSTORE JUMP JUMPDEST CALLER ORIGIN EQ PUSH2 0x1846 JUMPI PUSH1 0x40 MLOAD PUSH4 0xD9D552C9 PUSH1 0xE0 SHL DUP2 MSTORE PUSH1 0x4 ADD PUSH1 0x40 MLOAD DUP1 SWAP2 SUB SWAP1 REVERT JUMPDEST DUP1 PUSH1 0x0 SUB PUSH2 0x1867 JUMPI PUSH1 0x40 MLOAD PUSH4 0x4600CFE9 PUSH1 0xE0 SHL DUP2 MSTORE PUSH1 0x4 ADD PUSH1 0x40 MLOAD DUP1 SWAP2 SUB SWAP1 REVERT JUMPDEST DUP1 PUSH1 0xC SLOAD LT ISZERO PUSH2 0x188A JUMPI PUSH1 0x40 MLOAD PUSH4 0x7775ABDD PUSH1 0xE0 SHL DUP2 MSTORE PUSH1 0x4 ADD PUSH1 0x40 MLOAD DUP1 SWAP2 SUB SWAP1 REVERT JUMPDEST PUSH1 0x40 DUP1 MLOAD PUSH1 0x20 DUP1 DUP3 ADD DUP4 MSTORE TIMESTAMP DUP3 DUP5 ADD MSTORE PREVRANDAO PUSH1 0x60 DUP1 DUP5 ADD SWAP2 SWAP1 SWAP2 MSTORE DUP4 MLOAD DUP1 DUP5 SUB SWAP1 SWAP2 ADD DUP2 MSTORE PUSH1 0x80 DUP4 ADD SWAP1 SWAP4 MSTORE DUP3 MLOAD SWAP3 ADD SWAP2 SWAP1 SWAP2 KECCAK256 DUP2 MSTORE PUSH1 0xC SLOAD PUSH1 0x0 JUMPDEST DUP4 DUP2 LT ISZERO PUSH2 0x1964 JUMPI PUSH1 0x0 PUSH2 0x18D9 DUP5 DUP5 PUSH2 0x1D4F JUMP JUMPDEST SWAP1 POP PUSH1 0x0 PUSH2 0x18E7 DUP3 DUP6 PUSH2 0x1D6D JUMP JUMPDEST SWAP1 POP JUMPDEST PUSH2 0x18F3 DUP2 PUSH2 0x11F7 JUMP JUMPDEST ISZERO ISZERO PUSH1 0x1 SUB PUSH2 0x1919 JUMPI PUSH2 0x1906 DUP6 DUP6 PUSH2 0x1D4F JUMP JUMPDEST SWAP2 POP PUSH2 0x1912 DUP3 DUP6 PUSH2 0x1D6D JUMP JUMPDEST SWAP1 POP PUSH2 0x18EA JUMP JUMPDEST PUSH2 0x1923 DUP8 DUP3 PUSH2 0x1977 JUMP JUMPDEST PUSH1 0x8 SLOAD PUSH2 0x194C SWAP1 DUP5 SWAP1 PUSH1 0x1 PUSH1 0x1 PUSH1 0xA0 SHL SUB DUP2 AND SWAP1 PUSH1 0x1 PUSH1 0xA0 SHL SWAP1 DIV PUSH1 0x1 PUSH1 0x1 PUSH1 0x60 SHL SUB AND PUSH2 0x1DEE JUMP JUMPDEST PUSH2 0x1955 DUP5 PUSH2 0x27C9 JUMP JUMPDEST SWAP4 POP DUP3 PUSH1 0x1 ADD SWAP3 POP POP POP PUSH2 0x18C5 JUMP JUMPDEST POP PUSH2 0x196F DUP5 DUP5 PUSH2 0x1EFC JUMP JUMPDEST PUSH1 0xC SSTORE POP POP POP JUMP JUMPDEST PUSH2 0x1985 PUSH1 0x0 DUP4 DUP4 PUSH1 0x1 PUSH2 0x1686 JUMP JUMPDEST PUSH1 0x1 PUSH1 0x1 PUSH1 0xA0 SHL SUB SWAP1 SWAP2 AND SWAP1 DUP2 PUSH2 0x19A4 JUMPI PUSH4 0xEA553B34 PUSH1 0x0 MSTORE PUSH1 0x4 PUSH1 0x1C REVERT JUMPDEST DUP1 PUSH1 0x0 MSTORE PUSH8 0x3EC412A9852D173D PUSH1 0xC1 SHL PUSH1 0x1C MSTORE PUSH1 0x20 PUSH1 0x0 KECCAK256 DUP2 ADD DUP2 ADD DUP1 SLOAD DUP1 PUSH1 0x60 SHL ISZERO PUSH2 0x19D9 JUMPI PUSH4 0xC991CBB1 PUSH1 0x0 MSTORE PUSH1 0x4 PUSH1 0x1C REVERT JUMPDEST DUP4 OR SWAP1 SSTORE PUSH1 0x0 DUP3 SWAP1 MSTORE PUSH1 0x1C PUSH1 0xC KECCAK256 DUP1 SLOAD PUSH1 0x1 ADD PUSH4 0xFFFFFFFF DUP2 AND PUSH2 0x1A05 JUMPI PUSH4 0x1336CEA PUSH1 0x0 MSTORE PUSH1 0x4 PUSH1 0x1C REVERT JUMPDEST SWAP1 SSTORE DUP1 DUP3 PUSH1 0x0 PUSH32 0xDDF252AD1BE2C89B69C2B068FC378DAA952BA7F163C4A11628F55A4DF523B3EF DUP2 DUP1 LOG4 POP POP JUMP JUMPDEST PUSH1 0x40 MLOAD PUSH4 0x150B7A02 DUP1 DUP3 MSTORE CALLER PUSH1 0x20 DUP4 ADD MSTORE DUP6 PUSH1 0x60 SHL PUSH1 0x60 SHR PUSH1 0x40 DUP4 ADD MSTORE DUP4 PUSH1 0x60 DUP4 ADD MSTORE PUSH1 0x80 DUP1 DUP4 ADD MSTORE DUP3 MLOAD DUP1 PUSH1 0xA0 DUP5 ADD MSTORE DUP1 ISZERO PUSH2 0x1A7A JUMPI DUP1 PUSH1 0xC0 DUP5 ADD DUP3 PUSH1 0x20 DUP8 ADD PUSH1 0x4 GAS STATICCALL POP JUMPDEST PUSH1 0x20 DUP4 PUSH1 0xA4 DUP4 ADD PUSH1 0x1C DUP7 ADD PUSH1 0x0 DUP11 GAS CALL PUSH2 0x1AA3 JUMPI RETURNDATASIZE ISZERO PUSH2 0x1A9E JUMPI RETURNDATASIZE PUSH1 0x0 DUP1 RETURNDATACOPY RETURNDATASIZE PUSH1 0x0 REVERT JUMPDEST PUSH1 0x0 DUP4 MSTORE JUMPDEST POP DUP1 PUSH1 0xE0 SHL DUP3 MLOAD EQ PUSH2 0x1ABD JUMPI PUSH4 0xD1A57ED6 PUSH1 0x0 MSTORE PUSH1 0x4 PUSH1 0x1C REVERT JUMPDEST POP POP POP POP POP POP JUMP JUMPDEST PUSH1 0xD DUP1 SLOAD PUSH1 0x1 PUSH1 0x1 PUSH1 0xA0 SHL SUB DUP4 DUP2 AND PUSH1 0x1 PUSH1 0x1 PUSH1 0xA0 SHL SUB NOT DUP4 AND DUP2 OR SWAP1 SWAP4 SSTORE PUSH1 0x40 MLOAD SWAP2 AND SWAP2 SWAP1 DUP3 SWAP1 PUSH32 0x8BE0079C531659141344CD1FD0A4F28419497F9722A3DAAFE3B4186F6B6457E0 SWAP1 PUSH1 0x0 SWAP1 LOG3 POP POP JUMP JUMPDEST PUSH1 0x60 PUSH1 0xF DUP1 SLOAD PUSH2 0x83B SWAP1 PUSH2 0x24AC JUMP JUMPDEST PUSH1 0x60 PUSH1 0x0 PUSH2 0x1B33 DUP4 PUSH2 0x1F76 JUMP JUMPDEST PUSH1 0x1 ADD SWAP1 POP PUSH1 0x0 DUP2 PUSH8 0xFFFFFFFFFFFFFFFF DUP2 GT ISZERO PUSH2 0x1B53 JUMPI PUSH2 0x1B53 PUSH2 0x22ED JUMP JUMPDEST PUSH1 0x40 MLOAD SWAP1 DUP1 DUP3 MSTORE DUP1 PUSH1 0x1F ADD PUSH1 0x1F NOT AND PUSH1 0x20 ADD DUP3 ADD PUSH1 0x40 MSTORE DUP1 ISZERO PUSH2 0x1B7D JUMPI PUSH1 0x20 DUP3 ADD DUP2 DUP1 CALLDATASIZE DUP4 CALLDATACOPY ADD SWAP1 POP JUMPDEST POP SWAP1 POP DUP2 DUP2 ADD PUSH1 0x20 ADD JUMPDEST PUSH1 0x0 NOT ADD PUSH16 0x181899199A1A9B1B9C1CB0B131B232B3 PUSH1 0x81 SHL PUSH1 0xA DUP7 MOD BYTE DUP2 MSTORE8 PUSH1 0xA DUP6 DIV SWAP5 POP DUP5 PUSH2 0x1B87 JUMPI POP SWAP4 SWAP3 POP POP POP JUMP JUMPDEST PUSH1 0x0 PUSH1 0x1 PUSH2 0x1BC6 DUP5 PUSH2 0x11AA JUMP JUMPDEST PUSH2 0x1BD0 SWAP2 SWAP1 PUSH2 0x24FC JUMP JUMPDEST PUSH1 0x0 DUP4 DUP2 MSTORE PUSH1 0x1 PUSH1 0x20 MSTORE PUSH1 0x40 SWAP1 KECCAK256 SLOAD SWAP1 SWAP2 POP DUP1 DUP3 EQ PUSH2 0x1C21 JUMPI PUSH1 0x1 PUSH1 0x1 PUSH1 0xA0 SHL SUB DUP5 AND PUSH1 0x0 SWAP1 DUP2 MSTORE PUSH1 0x20 DUP2 DUP2 MSTORE PUSH1 0x40 DUP1 DUP4 KECCAK256 DUP6 DUP5 MSTORE DUP3 MSTORE DUP1 DUP4 KECCAK256 SLOAD DUP5 DUP5 MSTORE DUP2 DUP5 KECCAK256 DUP2 SWAP1 SSTORE DUP4 MSTORE PUSH1 0x1 SWAP1 SWAP2 MSTORE SWAP1 KECCAK256 DUP2 SWAP1 SSTORE JUMPDEST POP PUSH1 0x0 SWAP2 DUP3 MSTORE PUSH1 0x1 PUSH1 0x20 SWAP1 DUP2 MSTORE PUSH1 0x40 DUP1 DUP5 KECCAK256 DUP5 SWAP1 SSTORE PUSH1 0x1 PUSH1 0x1 PUSH1 0xA0 SHL SUB SWAP1 SWAP5 AND DUP4 MSTORE DUP3 DUP2 MSTORE DUP4 DUP4 KECCAK256 SWAP2 DUP4 MSTORE MSTORE SWAP1 DUP2 KECCAK256 SSTORE JUMP JUMPDEST PUSH1 0x2 SLOAD PUSH1 0x0 SWAP1 PUSH2 0x1C65 SWAP1 PUSH1 0x1 SWAP1 PUSH2 0x24FC JUMP JUMPDEST PUSH1 0x0 DUP4 DUP2 MSTORE PUSH1 0x3 PUSH1 0x20 MSTORE PUSH1 0x40 DUP2 KECCAK256 SLOAD PUSH1 0x2 DUP1 SLOAD SWAP4 SWAP5 POP SWAP1 SWAP3 DUP5 SWAP1 DUP2 LT PUSH2 0x1C8D JUMPI PUSH2 0x1C8D PUSH2 0x25B6 JUMP JUMPDEST SWAP1 PUSH1 0x0 MSTORE PUSH1 0x20 PUSH1 0x0 KECCAK256 ADD SLOAD SWAP1 POP DUP1 PUSH1 0x2 DUP4 DUP2 SLOAD DUP2 LT PUSH2 0x1CAE JUMPI PUSH2 0x1CAE PUSH2 0x25B6 JUMP JUMPDEST PUSH1 0x0 SWAP2 DUP3 MSTORE PUSH1 0x20 DUP1 DUP4 KECCAK256 SWAP1 SWAP2 ADD SWAP3 SWAP1 SWAP3 SSTORE DUP3 DUP2 MSTORE PUSH1 0x3 SWAP1 SWAP2 MSTORE PUSH1 0x40 DUP1 DUP3 KECCAK256 DUP5 SWAP1 SSTORE DUP6 DUP3 MSTORE DUP2 KECCAK256 SSTORE PUSH1 0x2 DUP1 SLOAD DUP1 PUSH2 0x1CE6 JUMPI PUSH2 0x1CE6 PUSH2 0x27E0 JUMP JUMPDEST PUSH1 0x1 SWAP1 SUB DUP2 DUP2 SWAP1 PUSH1 0x0 MSTORE PUSH1 0x20 PUSH1 0x0 KECCAK256 ADD PUSH1 0x0 SWAP1 SSTORE SWAP1 SSTORE POP POP POP POP JUMP JUMPDEST PUSH1 0x0 PUSH2 0x1D0D DUP4 PUSH2 0x11AA JUMP JUMPDEST PUSH1 0x1 PUSH1 0x1 PUSH1 0xA0 SHL SUB SWAP1 SWAP4 AND PUSH1 0x0 SWAP1 DUP2 MSTORE PUSH1 0x20 DUP2 DUP2 MSTORE PUSH1 0x40 DUP1 DUP4 KECCAK256 DUP7 DUP5 MSTORE DUP3 MSTORE DUP1 DUP4 KECCAK256 DUP6 SWAP1 SSTORE SWAP4 DUP3 MSTORE PUSH1 0x1 SWAP1 MSTORE SWAP2 SWAP1 SWAP2 KECCAK256 SWAP2 SWAP1 SWAP2 SSTORE POP JUMP JUMPDEST PUSH2 0xA7A PUSH1 0x0 DUP3 PUSH2 0x204E JUMP JUMPDEST PUSH1 0x0 JUMPDEST PUSH1 0x20 DUP4 KECCAK256 SWAP1 POP DUP1 DUP4 MSTORE DUP2 DUP3 PUSH1 0x0 SUB MOD DUP2 LT PUSH2 0x1D52 JUMPI MOD SWAP2 SWAP1 POP JUMP JUMPDEST PUSH1 0x0 DUP3 DUP2 MSTORE PUSH1 0xB PUSH1 0x20 MSTORE PUSH1 0x40 DUP2 KECCAK256 SLOAD DUP2 PUSH2 0x1D88 PUSH1 0x1 DUP6 PUSH2 0x24FC JUMP JUMPDEST PUSH1 0x0 DUP2 DUP2 MSTORE PUSH1 0xB PUSH1 0x20 MSTORE PUSH1 0x40 SWAP1 KECCAK256 SLOAD SWAP1 SWAP2 POP DUP3 ISZERO PUSH2 0x1DA6 JUMPI DUP3 PUSH2 0x1DA8 JUMP JUMPDEST DUP6 JUMPDEST SWAP4 POP DUP2 DUP7 EQ PUSH2 0x1DCF JUMPI DUP1 ISZERO PUSH2 0x1DBD JUMPI DUP1 PUSH2 0x1DBF JUMP JUMPDEST DUP2 JUMPDEST PUSH1 0x0 DUP8 DUP2 MSTORE PUSH1 0xB PUSH1 0x20 MSTORE PUSH1 0x40 SWAP1 KECCAK256 SSTORE JUMPDEST DUP1 ISZERO PUSH2 0x1DE5 JUMPI PUSH1 0x0 DUP3 DUP2 MSTORE PUSH1 0xB PUSH1 0x20 MSTORE PUSH1 0x40 DUP2 KECCAK256 SSTORE JUMPDEST POP POP POP SWAP3 SWAP2 POP POP JUMP JUMPDEST PUSH2 0x2710 PUSH1 0x1 PUSH1 0x1 PUSH1 0x60 SHL SUB DUP3 AND GT ISZERO PUSH2 0x1E5C JUMPI PUSH1 0x40 MLOAD PUSH3 0x461BCD PUSH1 0xE5 SHL DUP2 MSTORE PUSH1 0x20 PUSH1 0x4 DUP3 ADD MSTORE PUSH1 0x2A PUSH1 0x24 DUP3 ADD MSTORE PUSH32 0x455243323938313A20726F79616C7479206665652077696C6C20657863656564 PUSH1 0x44 DUP3 ADD MSTORE PUSH10 0x2073616C655072696365 PUSH1 0xB0 SHL PUSH1 0x64 DUP3 ADD MSTORE PUSH1 0x84 ADD PUSH2 0xB92 JUMP JUMPDEST PUSH1 0x1 PUSH1 0x1 PUSH1 0xA0 SHL SUB DUP3 AND PUSH2 0x1EB2 JUMPI PUSH1 0x40 MLOAD PUSH3 0x461BCD PUSH1 0xE5 SHL DUP2 MSTORE PUSH1 0x20 PUSH1 0x4 DUP3 ADD MSTORE PUSH1 0x1B PUSH1 0x24 DUP3 ADD MSTORE PUSH32 0x455243323938313A20496E76616C696420706172616D65746572730000000000 PUSH1 0x44 DUP3 ADD MSTORE PUSH1 0x64 ADD PUSH2 0xB92 JUMP JUMPDEST PUSH1 0x40 DUP1 MLOAD DUP1 DUP3 ADD DUP3 MSTORE PUSH1 0x1 PUSH1 0x1 PUSH1 0xA0 SHL SUB SWAP4 DUP5 AND DUP2 MSTORE PUSH1 0x1 PUSH1 0x1 PUSH1 0x60 SHL SUB SWAP3 DUP4 AND PUSH1 0x20 DUP1 DUP4 ADD SWAP2 DUP3 MSTORE PUSH1 0x0 SWAP7 DUP8 MSTORE PUSH1 0x5 SWAP1 MSTORE SWAP2 SWAP1 SWAP5 KECCAK256 SWAP4 MLOAD SWAP1 MLOAD SWAP1 SWAP2 AND PUSH1 0x1 PUSH1 0xA0 SHL MUL SWAP2 AND OR SWAP1 SSTORE JUMP JUMPDEST PUSH1 0x0 PUSH2 0x1F07 DUP4 PUSH2 0x1486 JUMP JUMPDEST SWAP1 POP PUSH1 0x0 PUSH2 0x1F15 DUP4 DUP4 PUSH2 0x27F6 JUMP JUMPDEST SWAP1 POP PUSH1 0x0 PUSH2 0x1F3E DUP6 PUSH8 0x3EC412A9852D173D PUSH1 0xC1 SHL PUSH1 0x1C SWAP1 DUP2 MSTORE PUSH1 0x0 SWAP2 SWAP1 SWAP2 MSTORE PUSH1 0xC KECCAK256 SLOAD PUSH1 0x20 SHR SWAP1 JUMP JUMPDEST PUSH8 0x3EC412A9852D173D PUSH1 0xC1 SHL PUSH1 0x1C SWAP1 DUP2 MSTORE PUSH1 0x0 DUP8 SWAP1 MSTORE PUSH1 0xC KECCAK256 DUP1 SLOAD PUSH1 0x20 DUP2 DUP2 SHR PUSH8 0xFFFFFFFFFFFFFFFF DUP6 AND XOR SWAP1 SHL XOR SWAP1 SSTORE SWAP1 POP PUSH2 0x1373 JUMP JUMPDEST PUSH1 0x0 DUP1 PUSH19 0x184F03E93FF9F4DAA797ED6E38ED64BF6A1F01 PUSH1 0x40 SHL DUP4 LT PUSH2 0x1FB5 JUMPI PUSH19 0x184F03E93FF9F4DAA797ED6E38ED64BF6A1F01 PUSH1 0x40 SHL DUP4 DIV SWAP3 POP PUSH1 0x40 ADD JUMPDEST PUSH14 0x4EE2D6D415B85ACEF8100000000 DUP4 LT PUSH2 0x1FE1 JUMPI PUSH14 0x4EE2D6D415B85ACEF8100000000 DUP4 DIV SWAP3 POP PUSH1 0x20 ADD JUMPDEST PUSH7 0x2386F26FC10000 DUP4 LT PUSH2 0x1FFF JUMPI PUSH7 0x2386F26FC10000 DUP4 DIV SWAP3 POP PUSH1 0x10 ADD JUMPDEST PUSH4 0x5F5E100 DUP4 LT PUSH2 0x2017 JUMPI PUSH4 0x5F5E100 DUP4 DIV SWAP3 POP PUSH1 0x8 ADD JUMPDEST PUSH2 0x2710 DUP4 LT PUSH2 0x202B JUMPI PUSH2 0x2710 DUP4 DIV SWAP3 POP PUSH1 0x4 ADD JUMPDEST PUSH1 0x64 DUP4 LT PUSH2 0x203D JUMPI PUSH1 0x64 DUP4 DIV SWAP3 POP PUSH1 0x2 ADD JUMPDEST PUSH1 0xA DUP4 LT PUSH2 0x80B JUMPI PUSH1 0x1 ADD SWAP3 SWAP2 POP POP JUMP JUMPDEST PUSH1 0x0 PUSH2 0x2059 DUP3 PUSH2 0x10D1 JUMP JUMPDEST SWAP1 POP PUSH2 0x2069 DUP2 PUSH1 0x0 DUP5 PUSH1 0x1 PUSH2 0x1686 JUMP JUMPDEST POP PUSH1 0x0 DUP2 DUP2 MSTORE PUSH1 0x1 PUSH1 0x1 PUSH1 0xA0 SHL SUB SWAP3 DUP4 AND PUSH8 0x3EC412A9852D173D PUSH1 0xC1 SHL DUP2 OR PUSH1 0x1C MSTORE PUSH1 0x20 SWAP1 SWAP2 KECCAK256 DUP3 ADD DUP3 ADD DUP1 SLOAD SWAP2 SWAP4 DUP3 AND SWAP2 DUP3 PUSH2 0x20AE JUMPI PUSH4 0xCEEA21B6 PUSH1 0x0 MSTORE PUSH1 0x4 PUSH1 0x1C REVERT JUMPDEST DUP3 PUSH1 0x0 MSTORE DUP2 PUSH1 0x1 ADD SLOAD DUP1 DUP7 EQ DUP5 DUP8 EQ OR DUP7 ISZERO OR PUSH2 0x20DD JUMPI PUSH1 0x30 PUSH1 0xC KECCAK256 SLOAD PUSH2 0x20DD JUMPI PUSH4 0x4B6E7F18 PUSH1 0x0 MSTORE PUSH1 0x4 PUSH1 0x1C REVERT JUMPDEST DUP1 ISZERO PUSH2 0x20EB JUMPI PUSH1 0x0 DUP4 PUSH1 0x1 ADD SSTORE JUMPDEST POP DUP3 XOR SWAP1 SSTORE PUSH1 0x1C PUSH1 0xC KECCAK256 DUP1 SLOAD PUSH1 0x0 NOT ADD SWAP1 SSTORE DUP2 PUSH1 0x0 DUP3 PUSH32 0xDDF252AD1BE2C89B69C2B068FC378DAA952BA7F163C4A11628F55A4DF523B3EF DUP3 DUP1 LOG4 POP POP POP JUMP JUMPDEST PUSH1 0x0 PUSH1 0x20 DUP3 DUP5 SUB SLT ISZERO PUSH2 0x213C JUMPI PUSH1 0x0 DUP1 REVERT JUMPDEST DUP2 CALLDATALOAD PUSH1 0x1 PUSH1 0x1 PUSH1 0xE0 SHL SUB NOT DUP2 AND DUP2 EQ PUSH2 0x146B JUMPI PUSH1 0x0 DUP1 REVERT JUMPDEST DUP1 CALLDATALOAD DUP1 ISZERO ISZERO DUP2 EQ PUSH2 0x110A JUMPI PUSH1 0x0 DUP1 REVERT JUMPDEST PUSH1 0x0 PUSH1 0x20 DUP3 DUP5 SUB SLT ISZERO PUSH2 0x2176 JUMPI PUSH1 0x0 DUP1 REVERT JUMPDEST PUSH2 0x146B DUP3 PUSH2 0x2154 JUMP JUMPDEST PUSH1 0x0 JUMPDEST DUP4 DUP2 LT ISZERO PUSH2 0x219A JUMPI DUP2 DUP2 ADD MLOAD DUP4 DUP3 ADD MSTORE PUSH1 0x20 ADD PUSH2 0x2182 JUMP JUMPDEST POP POP PUSH1 0x0 SWAP2 ADD MSTORE JUMP JUMPDEST PUSH1 0x20 DUP2 MSTORE PUSH1 0x0 DUP3 MLOAD DUP1 PUSH1 0x20 DUP5 ADD MSTORE PUSH2 0x21C2 DUP2 PUSH1 0x40 DUP6 ADD PUSH1 0x20 DUP8 ADD PUSH2 0x217F JUMP JUMPDEST PUSH1 0x1F ADD PUSH1 0x1F NOT AND SWAP2 SWAP1 SWAP2 ADD PUSH1 0x40 ADD SWAP3 SWAP2 POP POP JUMP JUMPDEST PUSH1 0x0 PUSH1 0x20 DUP3 DUP5 SUB SLT ISZERO PUSH2 0x21E8 JUMPI PUSH1 0x0 DUP1 REVERT JUMPDEST POP CALLDATALOAD SWAP2 SWAP1 POP JUMP JUMPDEST DUP1 CALLDATALOAD PUSH1 0x1 PUSH1 0x1 PUSH1 0xA0 SHL SUB DUP2 AND DUP2 EQ PUSH2 0x110A JUMPI PUSH1 0x0 DUP1 REVERT JUMPDEST PUSH1 0x0 DUP1 PUSH1 0x40 DUP4 DUP6 SUB SLT ISZERO PUSH2 0x2219 JUMPI PUSH1 0x0 DUP1 REVERT JUMPDEST PUSH2 0x2222 DUP4 PUSH2 0x21EF JUMP JUMPDEST SWAP5 PUSH1 0x20 SWAP4 SWAP1 SWAP4 ADD CALLDATALOAD SWAP4 POP POP POP JUMP JUMPDEST PUSH1 0x0 DUP1 PUSH1 0x0 PUSH1 0x60 DUP5 DUP7 SUB SLT ISZERO PUSH2 0x2245 JUMPI PUSH1 0x0 DUP1 REVERT JUMPDEST PUSH2 0x224E DUP5 PUSH2 0x21EF JUMP JUMPDEST SWAP3 POP PUSH2 0x225C PUSH1 0x20 DUP6 ADD PUSH2 0x21EF JUMP JUMPDEST SWAP2 POP PUSH1 0x40 DUP5 ADD CALLDATALOAD SWAP1 POP SWAP3 POP SWAP3 POP SWAP3 JUMP JUMPDEST PUSH1 0x0 DUP1 PUSH1 0x40 DUP4 DUP6 SUB SLT ISZERO PUSH2 0x227F JUMPI PUSH1 0x0 DUP1 REVERT JUMPDEST POP POP DUP1 CALLDATALOAD SWAP3 PUSH1 0x20 SWAP1 SWAP2 ADD CALLDATALOAD SWAP2 POP JUMP JUMPDEST PUSH1 0x0 PUSH1 0x20 DUP3 DUP5 SUB SLT ISZERO PUSH2 0x22A0 JUMPI PUSH1 0x0 DUP1 REVERT JUMPDEST PUSH2 0x146B DUP3 PUSH2 0x21EF JUMP JUMPDEST PUSH1 0x20 DUP1 DUP3 MSTORE DUP3 MLOAD DUP3 DUP3 ADD DUP2 SWAP1 MSTORE PUSH1 0x0 SWAP2 SWAP1 DUP5 DUP3 ADD SWAP1 PUSH1 0x40 DUP6 ADD SWAP1 DUP5 JUMPDEST DUP2 DUP2 LT ISZERO PUSH2 0x22E1 JUMPI DUP4 MLOAD DUP4 MSTORE SWAP3 DUP5 ADD SWAP3 SWAP2 DUP5 ADD SWAP2 PUSH1 0x1 ADD PUSH2 0x22C5 JUMP JUMPDEST POP SWAP1 SWAP7 SWAP6 POP POP POP POP POP POP JUMP JUMPDEST PUSH4 0x4E487B71 PUSH1 0xE0 SHL PUSH1 0x0 MSTORE PUSH1 0x41 PUSH1 0x4 MSTORE PUSH1 0x24 PUSH1 0x0 REVERT JUMPDEST PUSH1 0x0 PUSH1 0x20 DUP3 DUP5 SUB SLT ISZERO PUSH2 0x2315 JUMPI PUSH1 0x0 DUP1 REVERT JUMPDEST DUP2 CALLDATALOAD PUSH8 0xFFFFFFFFFFFFFFFF DUP1 DUP3 GT ISZERO PUSH2 0x232D JUMPI PUSH1 0x0 DUP1 REVERT JUMPDEST DUP2 DUP5 ADD SWAP2 POP DUP5 PUSH1 0x1F DUP4 ADD SLT PUSH2 0x2341 JUMPI PUSH1 0x0 DUP1 REVERT JUMPDEST DUP2 CALLDATALOAD DUP2 DUP2 GT ISZERO PUSH2 0x2353 JUMPI PUSH2 0x2353 PUSH2 0x22ED JUMP JUMPDEST PUSH1 0x40 MLOAD PUSH1 0x1F DUP3 ADD PUSH1 0x1F NOT SWAP1 DUP2 AND PUSH1 0x3F ADD AND DUP2 ADD SWAP1 DUP4 DUP3 GT DUP2 DUP4 LT OR ISZERO PUSH2 0x237B JUMPI PUSH2 0x237B PUSH2 0x22ED JUMP JUMPDEST DUP2 PUSH1 0x40 MSTORE DUP3 DUP2 MSTORE DUP8 PUSH1 0x20 DUP5 DUP8 ADD ADD GT ISZERO PUSH2 0x2394 JUMPI PUSH1 0x0 DUP1 REVERT JUMPDEST DUP3 PUSH1 0x20 DUP7 ADD PUSH1 0x20 DUP4 ADD CALLDATACOPY PUSH1 0x0 SWAP3 DUP2 ADD PUSH1 0x20 ADD SWAP3 SWAP1 SWAP3 MSTORE POP SWAP6 SWAP5 POP POP POP POP POP JUMP JUMPDEST PUSH1 0x0 DUP1 PUSH1 0x40 DUP4 DUP6 SUB SLT ISZERO PUSH2 0x23C7 JUMPI PUSH1 0x0 DUP1 REVERT JUMPDEST PUSH2 0x23D0 DUP4 PUSH2 0x21EF JUMP JUMPDEST SWAP2 POP PUSH2 0x23DE PUSH1 0x20 DUP5 ADD PUSH2 0x2154 JUMP JUMPDEST SWAP1 POP SWAP3 POP SWAP3 SWAP1 POP JUMP JUMPDEST PUSH1 0x0 DUP1 PUSH1 0x0 DUP1 PUSH1 0x0 PUSH1 0x80 DUP7 DUP9 SUB SLT ISZERO PUSH2 0x23FF JUMPI PUSH1 0x0 DUP1 REVERT JUMPDEST PUSH2 0x2408 DUP7 PUSH2 0x21EF JUMP JUMPDEST SWAP5 POP PUSH2 0x2416 PUSH1 0x20 DUP8 ADD PUSH2 0x21EF JUMP JUMPDEST SWAP4 POP PUSH1 0x40 DUP7 ADD CALLDATALOAD SWAP3 POP PUSH1 0x60 DUP7 ADD CALLDATALOAD PUSH8 0xFFFFFFFFFFFFFFFF DUP1 DUP3 GT ISZERO PUSH2 0x243A JUMPI PUSH1 0x0 DUP1 REVERT JUMPDEST DUP2 DUP9 ADD SWAP2 POP DUP9 PUSH1 0x1F DUP4 ADD SLT PUSH2 0x244E JUMPI PUSH1 0x0 DUP1 REVERT JUMPDEST DUP2 CALLDATALOAD DUP2 DUP2 GT ISZERO PUSH2 0x245D JUMPI PUSH1 0x0 DUP1 REVERT JUMPDEST DUP10 PUSH1 0x20 DUP3 DUP6 ADD ADD GT ISZERO PUSH2 0x246F JUMPI PUSH1 0x0 DUP1 REVERT JUMPDEST SWAP7 SWAP10 SWAP6 SWAP9 POP SWAP4 SWAP7 POP PUSH1 0x20 ADD SWAP5 SWAP4 SWAP3 POP POP POP JUMP JUMPDEST PUSH1 0x0 DUP1 PUSH1 0x40 DUP4 DUP6 SUB SLT ISZERO PUSH2 0x2495 JUMPI PUSH1 0x0 DUP1 REVERT JUMPDEST PUSH2 0x249E DUP4 PUSH2 0x21EF JUMP JUMPDEST SWAP2 POP PUSH2 0x23DE PUSH1 0x20 DUP5 ADD PUSH2 0x21EF JUMP JUMPDEST PUSH1 0x1 DUP2 DUP2 SHR SWAP1 DUP3 AND DUP1 PUSH2 0x24C0 JUMPI PUSH1 0x7F DUP3 AND SWAP2 POP JUMPDEST PUSH1 0x20 DUP3 LT DUP2 SUB PUSH2 0x24E0 JUMPI PUSH4 0x4E487B71 PUSH1 0xE0 SHL PUSH1 0x0 MSTORE PUSH1 0x22 PUSH1 0x4 MSTORE PUSH1 0x24 PUSH1 0x0 REVERT JUMPDEST POP SWAP2 SWAP1 POP JUMP JUMPDEST PUSH4 0x4E487B71 PUSH1 0xE0 SHL PUSH1 0x0 MSTORE PUSH1 0x11 PUSH1 0x4 MSTORE PUSH1 0x24 PUSH1 0x0 REVERT JUMPDEST DUP2 DUP2 SUB DUP2 DUP2 GT ISZERO PUSH2 0x80B JUMPI PUSH2 0x80B PUSH2 0x24E6 JUMP JUMPDEST DUP1 DUP3 MUL DUP2 ISZERO DUP3 DUP3 DIV DUP5 EQ OR PUSH2 0x80B JUMPI PUSH2 0x80B PUSH2 0x24E6 JUMP JUMPDEST PUSH1 0x0 DUP3 PUSH2 0x2543 JUMPI PUSH4 0x4E487B71 PUSH1 0xE0 SHL PUSH1 0x0 MSTORE PUSH1 0x12 PUSH1 0x4 MSTORE PUSH1 0x24 PUSH1 0x0 REVERT JUMPDEST POP DIV SWAP1 JUMP JUMPDEST DUP1 DUP3 ADD DUP1 DUP3 GT ISZERO PUSH2 0x80B JUMPI PUSH2 0x80B PUSH2 0x24E6 JUMP JUMPDEST PUSH1 0x20 DUP1 DUP3 MSTORE PUSH1 0x15 SWAP1 DUP3 ADD MSTORE PUSH21 0x105B1B081D1BDAD95B9CC8185C99481B5A5B9D1959 PUSH1 0x5A SHL PUSH1 0x40 DUP3 ADD MSTORE PUSH1 0x60 ADD SWAP1 JUMP JUMPDEST PUSH1 0x20 DUP1 DUP3 MSTORE PUSH1 0x12 SWAP1 DUP3 ADD MSTORE PUSH18 0x496E73756666696369656E742066756E6473 PUSH1 0x70 SHL PUSH1 0x40 DUP3 ADD MSTORE PUSH1 0x60 ADD SWAP1 JUMP JUMPDEST PUSH4 0x4E487B71 PUSH1 0xE0 SHL PUSH1 0x0 MSTORE PUSH1 0x32 PUSH1 0x4 MSTORE PUSH1 0x24 PUSH1 0x0 REVERT JUMPDEST PUSH1 0x0 PUSH1 0x1 DUP3 ADD PUSH2 0x25DE JUMPI PUSH2 0x25DE PUSH2 0x24E6 JUMP JUMPDEST POP PUSH1 0x1 ADD SWAP1 JUMP JUMPDEST PUSH1 0x1F DUP3 GT ISZERO PUSH2 0xA64 JUMPI PUSH1 0x0 DUP2 DUP2 MSTORE PUSH1 0x20 DUP2 KECCAK256 PUSH1 0x1F DUP6 ADD PUSH1 0x5 SHR DUP2 ADD PUSH1 0x20 DUP7 LT ISZERO PUSH2 0x260C JUMPI POP DUP1 JUMPDEST PUSH1 0x1F DUP6 ADD PUSH1 0x5 SHR DUP3 ADD SWAP2 POP JUMPDEST DUP2 DUP2 LT ISZERO PUSH2 0x1ABD JUMPI DUP3 DUP2 SSTORE PUSH1 0x1 ADD PUSH2 0x2618 JUMP JUMPDEST DUP2 MLOAD PUSH8 0xFFFFFFFFFFFFFFFF DUP2 GT ISZERO PUSH2 0x2645 JUMPI PUSH2 0x2645 PUSH2 0x22ED JUMP JUMPDEST PUSH2 0x2659 DUP2 PUSH2 0x2653 DUP5 SLOAD PUSH2 0x24AC JUMP JUMPDEST DUP5 PUSH2 0x25E5 JUMP JUMPDEST PUSH1 0x20 DUP1 PUSH1 0x1F DUP4 GT PUSH1 0x1 DUP2 EQ PUSH2 0x268E JUMPI PUSH1 0x0 DUP5 ISZERO PUSH2 0x2676 JUMPI POP DUP6 DUP4 ADD MLOAD JUMPDEST PUSH1 0x0 NOT PUSH1 0x3 DUP7 SWAP1 SHL SHR NOT AND PUSH1 0x1 DUP6 SWAP1 SHL OR DUP6 SSTORE PUSH2 0x1ABD JUMP JUMPDEST PUSH1 0x0 DUP6 DUP2 MSTORE PUSH1 0x20 DUP2 KECCAK256 PUSH1 0x1F NOT DUP7 AND SWAP2 JUMPDEST DUP3 DUP2 LT ISZERO PUSH2 0x26BD JUMPI DUP9 DUP7 ADD MLOAD DUP3 SSTORE SWAP5 DUP5 ADD SWAP5 PUSH1 0x1 SWAP1 SWAP2 ADD SWAP1 DUP5 ADD PUSH2 0x269E JUMP JUMPDEST POP DUP6 DUP3 LT ISZERO PUSH2 0x26DB JUMPI DUP8 DUP6 ADD MLOAD PUSH1 0x0 NOT PUSH1 0x3 DUP9 SWAP1 SHL PUSH1 0xF8 AND SHR NOT AND DUP2 SSTORE JUMPDEST POP POP POP POP POP PUSH1 0x1 SWAP1 DUP2 SHL ADD SWAP1 SSTORE POP JUMP JUMPDEST PUSH1 0x0 PUSH2 0xFFFF DUP1 DUP4 AND DUP2 DUP2 SUB PUSH2 0x2702 JUMPI PUSH2 0x2702 PUSH2 0x24E6 JUMP JUMPDEST PUSH1 0x1 ADD SWAP4 SWAP3 POP POP POP JUMP JUMPDEST PUSH1 0x0 DUP5 MLOAD PUSH1 0x20 PUSH2 0x271F DUP3 DUP6 DUP4 DUP11 ADD PUSH2 0x217F JUMP JUMPDEST DUP2 DUP5 ADD SWAP2 POP PUSH9 0x486F6F64696525323 PUSH1 0xBC SHL DUP3 MSTORE PUSH1 0x9 DUP7 MLOAD PUSH2 0x2746 DUP2 DUP4 DUP7 ADD DUP6 DUP12 ADD PUSH2 0x217F JUMP JUMPDEST DUP7 SLOAD SWAP4 ADD SWAP3 PUSH1 0x0 SWAP1 PUSH2 0x2757 DUP2 PUSH2 0x24AC JUMP JUMPDEST PUSH1 0x1 DUP3 DUP2 AND DUP1 ISZERO PUSH2 0x276F JUMPI PUSH1 0x1 DUP2 EQ PUSH2 0x2788 JUMPI PUSH2 0x27B8 JUMP JUMPDEST PUSH1 0xFF NOT DUP5 AND DUP9 DUP8 ADD MSTORE DUP3 ISZERO ISZERO DUP4 MUL DUP9 ADD DUP7 ADD SWAP5 POP PUSH2 0x27B8 JUMP JUMPDEST DUP11 PUSH1 0x0 MSTORE DUP7 PUSH1 0x0 KECCAK256 PUSH1 0x0 JUMPDEST DUP5 DUP2 LT ISZERO PUSH2 0x27AE JUMPI DUP2 SLOAD DUP11 DUP3 ADD DUP10 ADD MSTORE SWAP1 DUP4 ADD SWAP1 DUP9 ADD PUSH2 0x2793 JUMP JUMPDEST POP POP DUP6 DUP4 DUP10 ADD ADD SWAP5 POP JUMPDEST POP SWAP3 SWAP12 SWAP11 POP POP POP POP POP POP POP POP POP POP POP JUMP JUMPDEST PUSH1 0x0 DUP2 PUSH2 0x27D8 JUMPI PUSH2 0x27D8 PUSH2 0x24E6 JUMP JUMPDEST POP PUSH1 0x0 NOT ADD SWAP1 JUMP JUMPDEST PUSH4 0x4E487B71 PUSH1 0xE0 SHL PUSH1 0x0 MSTORE PUSH1 0x31 PUSH1 0x4 MSTORE PUSH1 0x24 PUSH1 0x0 REVERT JUMPDEST PUSH4 0xFFFFFFFF DUP2 DUP2 AND DUP4 DUP3 AND ADD SWAP1 DUP1 DUP3 GT ISZERO PUSH2 0x12B3 JUMPI PUSH2 0x12B3 PUSH2 0x24E6 JUMP INVALID PUSH9 0x747470733A2F2F6261 PUSH7 0x6B72656963626E CALLDATASIZE PUSH5 0x36356B3773 PUSH26 0x637A6A6A6A776D756F6F33367A667333773379326E6A667A6E32 PUSH20 0x3362656133763779376C75356C752E697066732E PUSH15 0x667473746F726167652E6C696E6B2F LOG2 PUSH5 0x6970667358 0x22 SLT KECCAK256 SLOAD 0xD4 MSTORE 0xB8 0xA6 JUMPDEST 0xC5 0xB3 POP DELEGATECALL CREATE 0xC8 PUSH27 0x582B30F010E304A36B4D7B367B90A61BD1990064736F6C63430008 SLT STOP CALLER "},"methodIdentifiers":{"approve(address,uint256)":"095ea7b3","balanceOf(address)":"70a08231","baseExtension()":"c6682862","baseURI()":"6c0360eb","burnNFT(uint256)":"2890e0d7","contractURI()":"e8a3d485","exists(uint256)":"4f558e79","fee()":"ddca3f43","getApproved(uint256)":"081812fc","getTokenPrice()":"4b94f50e","isApprovedForAll(address,address)":"e985e9c5","isReservedToken(uint256)":"73853f63","maxSupply()":"d5abeb01","mint(address,uint256)":"40c10f19","name()":"06fdde03","numberMinted(address)":"dc33e681","owner()":"8da5cb5b","ownerOf(uint256)":"6352211e","pause(bool)":"02329a29","paused()":"5c975abb","price()":"a035b1fe","remainingSupply()":"da0239a6","renounceOwnership()":"715018a6","royaltyInfo(uint256,uint256)":"2a55205a","royaltyReceiver()":"9fbc8713","safeTransferFrom(address,address,uint256)":"42842e0e","safeTransferFrom(address,address,uint256,bytes)":"b88d4fde","sendUpgradedToken(address,uint256)":"599ebacf","setApprovalForAll(address,bool)":"a22cb465","setBaseExtension(string)":"da3ef23f","setBaseURI(string)":"55f804b3","setTokenPrice(uint256)":"6a61e5fc","supportsInterface(bytes4)":"01ffc9a7","symbol()":"95d89b41","tokenByIndex(uint256)":"4f6ccce7","tokenOfOwnerByIndex(address,uint256)":"2f745c59","tokenURI(uint256)":"c87b56dd","totalSupply()":"18160ddd","transferFrom(address,address,uint256)":"23b872dd","transferOwnership(address)":"f2fde38b","upgradeDiamondBundle()":"34784a51","upgradePlatinumBundle()":"6237023e","walletOfOwner(address)":"438b6300","withdraw()":"3ccfd60b","withdrawAddress()":"1581b600"}}}}}