{
  "_format": "hh-sol-artifact-1",
  "contractName": "KRWN",
  "sourceName": "contracts/KRWN.sol",
  "abi": [
    {
      "inputs": [
        {
          "internalType": "string",
          "name": "_initBaseURI",
          "type": "string"
        }
      ],
      "stateMutability": "nonpayable",
      "type": "constructor"
    },
    {
      "inputs": [],
      "name": "AccountBalanceOverflow",
      "type": "error"
    },
    {
      "inputs": [],
      "name": "BalanceQueryForZeroAddress",
      "type": "error"
    },
    {
      "inputs": [],
      "name": "ContractsCannotMint",
      "type": "error"
    },
    {
      "inputs": [],
      "name": "MustMintAtLeastOneToken",
      "type": "error"
    },
    {
      "inputs": [],
      "name": "NotEnoughAvailableTokens",
      "type": "error"
    },
    {
      "inputs": [],
      "name": "NotOwnerNorApproved",
      "type": "error"
    },
    {
      "inputs": [],
      "name": "TokenAlreadyExists",
      "type": "error"
    },
    {
      "inputs": [],
      "name": "TokenDoesNotExist",
      "type": "error"
    },
    {
      "inputs": [],
      "name": "TransferFromIncorrectOwner",
      "type": "error"
    },
    {
      "inputs": [],
      "name": "TransferToNonERC721ReceiverImplementer",
      "type": "error"
    },
    {
      "inputs": [],
      "name": "TransferToZeroAddress",
      "type": "error"
    },
    {
      "anonymous": false,
      "inputs": [
        {
          "indexed": true,
          "internalType": "address",
          "name": "owner",
          "type": "address"
        },
        {
          "indexed": true,
          "internalType": "address",
          "name": "account",
          "type": "address"
        },
        {
          "indexed": true,
          "internalType": "uint256",
          "name": "id",
          "type": "uint256"
        }
      ],
      "name": "Approval",
      "type": "event"
    },
    {
      "anonymous": false,
      "inputs": [
        {
          "indexed": true,
          "internalType": "address",
          "name": "owner",
          "type": "address"
        },
        {
          "indexed": true,
          "internalType": "address",
          "name": "operator",
          "type": "address"
        },
        {
          "indexed": false,
          "internalType": "bool",
          "name": "isApproved",
          "type": "bool"
        }
      ],
      "name": "ApprovalForAll",
      "type": "event"
    },
    {
      "anonymous": false,
      "inputs": [
        {
          "indexed": true,
          "internalType": "address",
          "name": "previousOwner",
          "type": "address"
        },
        {
          "indexed": true,
          "internalType": "address",
          "name": "newOwner",
          "type": "address"
        }
      ],
      "name": "OwnershipTransferred",
      "type": "event"
    },
    {
      "anonymous": false,
      "inputs": [
        {
          "indexed": true,
          "internalType": "address",
          "name": "from",
          "type": "address"
        },
        {
          "indexed": true,
          "internalType": "address",
          "name": "to",
          "type": "address"
        },
        {
          "indexed": true,
          "internalType": "uint256",
          "name": "id",
          "type": "uint256"
        }
      ],
      "name": "Transfer",
      "type": "event"
    },
    {
      "inputs": [
        {
          "internalType": "address",
          "name": "account",
          "type": "address"
        },
        {
          "internalType": "uint256",
          "name": "id",
          "type": "uint256"
        }
      ],
      "name": "approve",
      "outputs": [],
      "stateMutability": "payable",
      "type": "function"
    },
    {
      "inputs": [
        {
          "internalType": "address",
          "name": "owner",
          "type": "address"
        }
      ],
      "name": "balanceOf",
      "outputs": [
        {
          "internalType": "uint256",
          "name": "result",
          "type": "uint256"
        }
      ],
      "stateMutability": "view",
      "type": "function"
    },
    {
      "inputs": [],
      "name": "baseExtension",
      "outputs": [
        {
          "internalType": "string",
          "name": "",
          "type": "string"
        }
      ],
      "stateMutability": "view",
      "type": "function"
    },
    {
      "inputs": [],
      "name": "baseURI",
      "outputs": [
        {
          "internalType": "string",
          "name": "",
          "type": "string"
        }
      ],
      "stateMutability": "view",
      "type": "function"
    },
    {
      "inputs": [
        {
          "internalType": "uint256",
          "name": "tokenId",
          "type": "uint256"
        }
      ],
      "name": "burnNFT",
      "outputs": [],
      "stateMutability": "nonpayable",
      "type": "function"
    },
    {
      "inputs": [],
      "name": "contractURI",
      "outputs": [
        {
          "internalType": "string",
          "name": "",
          "type": "string"
        }
      ],
      "stateMutability": "pure",
      "type": "function"
    },
    {
      "inputs": [
        {
          "internalType": "uint256",
          "name": "tokenId",
          "type": "uint256"
        }
      ],
      "name": "exists",
      "outputs": [
        {
          "internalType": "bool",
          "name": "",
          "type": "bool"
        }
      ],
      "stateMutability": "view",
      "type": "function"
    },
    {
      "inputs": [],
      "name": "fee",
      "outputs": [
        {
          "internalType": "uint96",
          "name": "",
          "type": "uint96"
        }
      ],
      "stateMutability": "view",
      "type": "function"
    },
    {
      "inputs": [
        {
          "internalType": "uint256",
          "name": "id",
          "type": "uint256"
        }
      ],
      "name": "getApproved",
      "outputs": [
        {
          "internalType": "address",
          "name": "result",
          "type": "address"
        }
      ],
      "stateMutability": "view",
      "type": "function"
    },
    {
      "inputs": [],
      "name": "getTokenPrice",
      "outputs": [
        {
          "internalType": "uint256",
          "name": "",
          "type": "uint256"
        }
      ],
      "stateMutability": "view",
      "type": "function"
    },
    {
      "inputs": [
        {
          "internalType": "address",
          "name": "owner",
          "type": "address"
        },
        {
          "internalType": "address",
          "name": "operator",
          "type": "address"
        }
      ],
      "name": "isApprovedForAll",
      "outputs": [
        {
          "internalType": "bool",
          "name": "result",
          "type": "bool"
        }
      ],
      "stateMutability": "view",
      "type": "function"
    },
    {
      "inputs": [
        {
          "internalType": "uint256",
          "name": "_tokenId",
          "type": "uint256"
        }
      ],
      "name": "isReservedToken",
      "outputs": [
        {
          "internalType": "bool",
          "name": "",
          "type": "bool"
        }
      ],
      "stateMutability": "view",
      "type": "function"
    },
    {
      "inputs": [],
      "name": "maxSupply",
      "outputs": [
        {
          "internalType": "uint256",
          "name": "",
          "type": "uint256"
        }
      ],
      "stateMutability": "view",
      "type": "function"
    },
    {
      "inputs": [
        {
          "internalType": "address",
          "name": "_to",
          "type": "address"
        },
        {
          "internalType": "uint256",
          "name": "tokenNum",
          "type": "uint256"
        }
      ],
      "name": "mint",
      "outputs": [],
      "stateMutability": "payable",
      "type": "function"
    },
    {
      "inputs": [],
      "name": "name",
      "outputs": [
        {
          "internalType": "string",
          "name": "",
          "type": "string"
        }
      ],
      "stateMutability": "view",
      "type": "function"
    },
    {
      "inputs": [
        {
          "internalType": "address",
          "name": "minter",
          "type": "address"
        }
      ],
      "name": "numberMinted",
      "outputs": [
        {
          "internalType": "uint32",
          "name": "",
          "type": "uint32"
        }
      ],
      "stateMutability": "view",
      "type": "function"
    },
    {
      "inputs": [],
      "name": "owner",
      "outputs": [
        {
          "internalType": "address",
          "name": "",
          "type": "address"
        }
      ],
      "stateMutability": "view",
      "type": "function"
    },
    {
      "inputs": [
        {
          "internalType": "uint256",
          "name": "id",
          "type": "uint256"
        }
      ],
      "name": "ownerOf",
      "outputs": [
        {
          "internalType": "address",
          "name": "result",
          "type": "address"
        }
      ],
      "stateMutability": "view",
      "type": "function"
    },
    {
      "inputs": [
        {
          "internalType": "bool",
          "name": "_state",
          "type": "bool"
        }
      ],
      "name": "pause",
      "outputs": [],
      "stateMutability": "nonpayable",
      "type": "function"
    },
    {
      "inputs": [],
      "name": "paused",
      "outputs": [
        {
          "internalType": "bool",
          "name": "",
          "type": "bool"
        }
      ],
      "stateMutability": "view",
      "type": "function"
    },
    {
      "inputs": [],
      "name": "price",
      "outputs": [
        {
          "internalType": "uint256",
          "name": "",
          "type": "uint256"
        }
      ],
      "stateMutability": "view",
      "type": "function"
    },
    {
      "inputs": [],
      "name": "remainingSupply",
      "outputs": [
        {
          "internalType": "uint256",
          "name": "",
          "type": "uint256"
        }
      ],
      "stateMutability": "view",
      "type": "function"
    },
    {
      "inputs": [],
      "name": "renounceOwnership",
      "outputs": [],
      "stateMutability": "nonpayable",
      "type": "function"
    },
    {
      "inputs": [
        {
          "internalType": "uint256",
          "name": "tokenId",
          "type": "uint256"
        },
        {
          "internalType": "uint256",
          "name": "salePrice",
          "type": "uint256"
        }
      ],
      "name": "royaltyInfo",
      "outputs": [
        {
          "internalType": "address",
          "name": "",
          "type": "address"
        },
        {
          "internalType": "uint256",
          "name": "",
          "type": "uint256"
        }
      ],
      "stateMutability": "view",
      "type": "function"
    },
    {
      "inputs": [],
      "name": "royaltyReceiver",
      "outputs": [
        {
          "internalType": "address",
          "name": "",
          "type": "address"
        }
      ],
      "stateMutability": "view",
      "type": "function"
    },
    {
      "inputs": [
        {
          "internalType": "address",
          "name": "from",
          "type": "address"
        },
        {
          "internalType": "address",
          "name": "to",
          "type": "address"
        },
        {
          "internalType": "uint256",
          "name": "id",
          "type": "uint256"
        }
      ],
      "name": "safeTransferFrom",
      "outputs": [],
      "stateMutability": "payable",
      "type": "function"
    },
    {
      "inputs": [
        {
          "internalType": "address",
          "name": "from",
          "type": "address"
        },
        {
          "internalType": "address",
          "name": "to",
          "type": "address"
        },
        {
          "internalType": "uint256",
          "name": "id",
          "type": "uint256"
        },
        {
          "internalType": "bytes",
          "name": "data",
          "type": "bytes"
        }
      ],
      "name": "safeTransferFrom",
      "outputs": [],
      "stateMutability": "payable",
      "type": "function"
    },
    {
      "inputs": [
        {
          "internalType": "address",
          "name": "_to",
          "type": "address"
        },
        {
          "internalType": "uint256",
          "name": "_tokenId",
          "type": "uint256"
        }
      ],
      "name": "sendUpgradedToken",
      "outputs": [],
      "stateMutability": "nonpayable",
      "type": "function"
    },
    {
      "inputs": [
        {
          "internalType": "address",
          "name": "operator",
          "type": "address"
        },
        {
          "internalType": "bool",
          "name": "isApproved",
          "type": "bool"
        }
      ],
      "name": "setApprovalForAll",
      "outputs": [],
      "stateMutability": "nonpayable",
      "type": "function"
    },
    {
      "inputs": [
        {
          "internalType": "string",
          "name": "_newBaseExtension",
          "type": "string"
        }
      ],
      "name": "setBaseExtension",
      "outputs": [],
      "stateMutability": "nonpayable",
      "type": "function"
    },
    {
      "inputs": [
        {
          "internalType": "string",
          "name": "_newBaseURI",
          "type": "string"
        }
      ],
      "name": "setBaseURI",
      "outputs": [],
      "stateMutability": "nonpayable",
      "type": "function"
    },
    {
      "inputs": [
        {
          "internalType": "uint256",
          "name": "_price",
          "type": "uint256"
        }
      ],
      "name": "setTokenPrice",
      "outputs": [],
      "stateMutability": "nonpayable",
      "type": "function"
    },
    {
      "inputs": [
        {
          "internalType": "bytes4",
          "name": "interfaceId",
          "type": "bytes4"
        }
      ],
      "name": "supportsInterface",
      "outputs": [
        {
          "internalType": "bool",
          "name": "",
          "type": "bool"
        }
      ],
      "stateMutability": "view",
      "type": "function"
    },
    {
      "inputs": [],
      "name": "symbol",
      "outputs": [
        {
          "internalType": "string",
          "name": "",
          "type": "string"
        }
      ],
      "stateMutability": "view",
      "type": "function"
    },
    {
      "inputs": [
        {
          "internalType": "uint256",
          "name": "index",
          "type": "uint256"
        }
      ],
      "name": "tokenByIndex",
      "outputs": [
        {
          "internalType": "uint256",
          "name": "",
          "type": "uint256"
        }
      ],
      "stateMutability": "view",
      "type": "function"
    },
    {
      "inputs": [
        {
          "internalType": "address",
          "name": "owner",
          "type": "address"
        },
        {
          "internalType": "uint256",
          "name": "index",
          "type": "uint256"
        }
      ],
      "name": "tokenOfOwnerByIndex",
      "outputs": [
        {
          "internalType": "uint256",
          "name": "",
          "type": "uint256"
        }
      ],
      "stateMutability": "view",
      "type": "function"
    },
    {
      "inputs": [
        {
          "internalType": "uint256",
          "name": "tokenId",
          "type": "uint256"
        }
      ],
      "name": "tokenURI",
      "outputs": [
        {
          "internalType": "string",
          "name": "",
          "type": "string"
        }
      ],
      "stateMutability": "view",
      "type": "function"
    },
    {
      "inputs": [],
      "name": "totalSupply",
      "outputs": [
        {
          "internalType": "uint256",
          "name": "",
          "type": "uint256"
        }
      ],
      "stateMutability": "view",
      "type": "function"
    },
    {
      "inputs": [
        {
          "internalType": "address",
          "name": "from",
          "type": "address"
        },
        {
          "internalType": "address",
          "name": "to",
          "type": "address"
        },
        {
          "internalType": "uint256",
          "name": "id",
          "type": "uint256"
        }
      ],
      "name": "transferFrom",
      "outputs": [],
      "stateMutability": "payable",
      "type": "function"
    },
    {
      "inputs": [
        {
          "internalType": "address",
          "name": "newOwner",
          "type": "address"
        }
      ],
      "name": "transferOwnership",
      "outputs": [],
      "stateMutability": "nonpayable",
      "type": "function"
    },
    {
      "inputs": [],
      "name": "upgradeDiamondBundle",
      "outputs": [],
      "stateMutability": "payable",
      "type": "function"
    },
    {
      "inputs": [],
      "name": "upgradePlatinumBundle",
      "outputs": [],
      "stateMutability": "payable",
      "type": "function"
    },
    {
      "inputs": [
        {
          "internalType": "address",
          "name": "_owner",
          "type": "address"
        }
      ],
      "name": "walletOfOwner",
      "outputs": [
        {
          "internalType": "uint256[]",
          "name": "",
          "type": "uint256[]"
        }
      ],
      "stateMutability": "view",
      "type": "function"
    },
    {
      "inputs": [],
      "name": "withdraw",
      "outputs": [],
      "stateMutability": "nonpayable",
      "type": "function"
    },
    {
      "inputs": [],
      "name": "withdrawAddress",
      "outputs": [
        {
          "internalType": "address",
          "name": "",
          "type": "address"
        }
      ],
      "stateMutability": "view",
      "type": "function"
    }
  ],
  "bytecode": "0x7501f48624523c8ae280ebdf7f720332cda62620fe1dad600855610320604052600160a0908152600460c052606d60e052606a61010052600b61012052600e61014052608761016052608a610180526101556101a05261015c6101c05261015f6101e0526101666102005261017a610220526101756102405261026d61026052610272610280526102ab6102a0526102ac6102c0526102e56102e05261031c61030052620000b290600990601462000302565b506040805161014081018252610144815261014660208201526101b9918101919091526101be606082015261025d608082015261026060a082015261028e60c082015261033560e082015261033c61010082015261028d6101208201526200011e90600a908162000302565b50604080518082019091526005815264173539b7b760d91b60208201526010906200014a908262000414565b5066470de4df82000060115560006012819055601355601480546001600160a81b031916743b715d4f5219510c7f77db4388ebc0a1436b8430001790553480156200019457600080fd5b5060405162002e8f38038062002e8f833981016040819052620001b791620004e0565b60408051808201825260048082526325a92ba760e11b6020808401829052845180860190955291845290830152906122bb6006620001f6848262000414565b50600762000205838262000414565b506080819052600c55506200021c90503362000233565b6001600e556200022c8162000285565b50620005b5565b600d80546001600160a01b038381166001600160a01b0319831681179093556040519116919082907f8be0079c531659141344cd1fd0a4f28419497f9722a3daafe3b4186f6b6457e090600090a35050565b6200028f620002a1565b600f6200029d828262000414565b5050565b600d546001600160a01b03163314620003005760405162461bcd60e51b815260206004820181905260248201527f4f776e61626c653a2063616c6c6572206973206e6f7420746865206f776e6572604482015260640160405180910390fd5b565b82805482825590600052602060002090810192821562000346579160200282015b8281111562000346578251829061ffff1690559160200191906001019062000323565b506200035492915062000358565b5090565b5b8082111562000354576000815560010162000359565b634e487b7160e01b600052604160045260246000fd5b600181811c908216806200039a57607f821691505b602082108103620003bb57634e487b7160e01b600052602260045260246000fd5b50919050565b601f8211156200040f57600081815260208120601f850160051c81016020861015620003ea5750805b601f850160051c820191505b818110156200040b57828155600101620003f6565b5050505b505050565b81516001600160401b038111156200043057620004306200036f565b620004488162000441845462000385565b84620003c1565b602080601f831160018114620004805760008415620004675750858301515b600019600386901b1c1916600185901b1785556200040b565b600085815260208120601f198616915b82811015620004b15788860151825594840194600190910190840162000490565b5085821015620004d05787850151600019600388901b60f8161c191681555b5050505050600190811b01905550565b60006020808385031215620004f457600080fd5b82516001600160401b03808211156200050c57600080fd5b818501915085601f8301126200052157600080fd5b8151818111156200053657620005366200036f565b604051601f8201601f19908116603f011681019083821181831017156200056157620005616200036f565b8160405282815288868487010111156200057a57600080fd5b600093505b828410156200059e57848401860151818501870152928501926200057f565b600086848301015280965050505050505092915050565b6080516128a2620005ed600039600081816106c90152818161091701528181610bd801528181610d860152610fd901526128a26000f3fe6080604052600436106102725760003560e01c80636237023e1161014f578063a22cb465116100c1578063da3ef23f1161007a578063da3ef23f14610701578063dc33e68114610721578063ddca3f4314610756578063e8a3d48514610795578063e985e9c5146107aa578063f2fde38b146107e057600080fd5b8063a22cb4651461064f578063b88d4fde1461066f578063c668286214610682578063c87b56dd14610697578063d5abeb01146106b7578063da0239a6146106eb57600080fd5b8063715018a611610113578063715018a6146105b157806373853f63146105c65780638da5cb5b146105e657806395d89b41146106045780639fbc871314610619578063a035b1fe1461063957600080fd5b80636237023e146105345780636352211e1461053c5780636a61e5fc1461055c5780636c0360eb1461057c57806370a082311461059157600080fd5b806334784a51116101e85780634b94f50e116101ac5780634b94f50e146104855780634f558e791461049a5780634f6ccce7146104ba57806355f804b3146104da578063599ebacf146104fa5780635c975abb1461051a57600080fd5b806334784a51146104155780633ccfd60b1461041d57806340c10f191461043257806342842e0e14610445578063438b63001461045857600080fd5b80631581b6001161023a5780631581b6001461033b57806318160ddd1461036057806323b872dd146103835780632890e0d7146103965780632a55205a146103b65780632f745c59146103f557600080fd5b806301ffc9a71461027757806302329a29146102ac57806306fdde03146102ce578063081812fc146102f0578063095ea7b314610328575b600080fd5b34801561028357600080fd5b5061029761029236600461212a565b610800565b60405190151581526020015b60405180910390f35b3480156102b857600080fd5b506102cc6102c7366004612164565b610811565b005b3480156102da57600080fd5b506102e361082c565b6040516102a391906121a3565b3480156102fc57600080fd5b5061031061030b3660046121d6565b6108be565b6040516001600160a01b0390911681526020016102a3565b6102cc610336366004612206565b610901565b34801561034757600080fd5b506014546103109061010090046001600160a01b031681565b34801561036c57600080fd5b50610375610910565b6040519081526020016102a3565b6102cc610391366004612230565b610945565b3480156103a257600080fd5b506102cc6103b13660046121d6565b610a69565b3480156103c257600080fd5b506103d66103d136600461226c565b610a7d565b604080516001600160a01b0390931683526020830191909152016102a3565b34801561040157600080fd5b50610375610410366004612206565b610b29565b6102cc610bc2565b34801561042957600080fd5b506102cc610cf2565b6102cc610440366004612206565b610d5f565b6102cc610453366004612230565b610e16565b34801561046457600080fd5b5061047861047336600461228e565b610e43565b6040516102a391906122a9565b34801561049157600080fd5b50601154610375565b3480156104a657600080fd5b506102976104b53660046121d6565b610ee5565b3480156104c657600080fd5b506103756104d53660046121d6565b610f0a565b3480156104e657600080fd5b506102cc6104f5366004612303565b610f9d565b34801561050657600080fd5b506102cc610515366004612206565b610fb1565b34801561052657600080fd5b506014546102979060ff1681565b6102cc610fc3565b34801561054857600080fd5b506103106105573660046121d6565b6110d1565b34801561056857600080fd5b506102cc6105773660046121d6565b61110f565b34801561058857600080fd5b506102e361111c565b34801561059d57600080fd5b506103756105ac36600461228e565b6111aa565b3480156105bd57600080fd5b506102cc6111e5565b3480156105d257600080fd5b506102976105e13660046121d6565b6111f7565b3480156105f257600080fd5b50600d546001600160a01b0316610310565b34801561061057600080fd5b506102e36112ba565b34801561062557600080fd5b50600854610310906001600160a01b031681565b34801561064557600080fd5b5061037560115481565b34801561065b57600080fd5b506102cc61066a3660046123b4565b6112c9565b6102cc61067d3660046123e7565b61131f565b34801561068e57600080fd5b506102e361137a565b3480156106a357600080fd5b506102e36106b23660046121d6565b611387565b3480156106c357600080fd5b506103757f000000000000000000000000000000000000000000000000000000000000000081565b3480156106f757600080fd5b50610375600c5481565b34801561070d57600080fd5b506102cc61071c366004612303565b611472565b34801561072d57600080fd5b5061074161073c36600461228e565b611486565b60405163ffffffff90911681526020016102a3565b34801561076257600080fd5b5060085461077d90600160a01b90046001600160601b031681565b6040516001600160601b0390911681526020016102a3565b3480156107a157600080fd5b506102e36114c0565b3480156107b657600080fd5b506102976107c5366004612482565b601c52670a5a2e7a000000006008526000526030600c205490565b3480156107ec57600080fd5b506102cc6107fb36600461228e565b6114e0565b600061080b82611556565b92915050565b61081961158b565b6014805460ff1916911515919091179055565b60606006805461083b906124ac565b80601f0160208091040260200160405190810160405280929190818152602001828054610867906124ac565b80156108b45780601f10610889576101008083540402835291602001916108b4565b820191906000526020600020905b81548152906001019060200180831161089757829003601f168201915b5050505050905090565b6000818152673ec412a9852d173d60c11b601c52602081208201820180546001600160a01b03166108f75763ceea21b66000526004601cfd5b6001015492915050565b61090c3383836115e5565b5050565b6000600c547f000000000000000000000000000000000000000000000000000000000000000061094091906124fc565b905090565b6109528383836001611686565b6000818152673ec412a9852d173d60c11b3317601c52602090208101810180546001600160a01b0394851694938416938116919082861483026109b057826109a25763ceea21b66000526004601cfd5b63a11481006000526004601cfd5b846109c35763ea553b346000526004601cfd5b8560005281600101549250823314863314176109f1576030600c20546109f157634b6e7f186000526004601cfd5b82156109ff57600082600101555b85851818905550601c600c8181208054600019019055600084905220805460010163ffffffff8116610a39576301336cea6000526004601cfd5b90558082847fddf252ad1be2c89b69c2b068fc378daa952ba7f163c4a11628f55a4df523b3ef600080a45b505050565b610a7161158b565b610a7a816117b3565b50565b60008281526005602090815260408083208151808301909252546001600160a01b038116808352600160a01b9091046001600160601b0316928201929092528291610af25750604080518082019091526004546001600160a01b0381168252600160a01b90046001600160601b031660208201525b602081015160009061271090610b11906001600160601b03168761250f565b610b1b9190612526565b915196919550909350505050565b6000610b34836111aa565b8210610b9b5760405162461bcd60e51b815260206004820152602b60248201527f455243373231456e756d657261626c653a206f776e657220696e646578206f7560448201526a74206f6620626f756e647360a81b60648201526084015b60405180910390fd5b506001600160a01b0391909116600090815260208181526040808320938352929052205490565b610bca6117cd565b6000610bd4610910565b90507f0000000000000000000000000000000000000000000000000000000000000000610c0282600a612548565b1115610c205760405162461bcd60e51b8152600401610b929061255b565b600a60135410610c675760405162461bcd60e51b815260206004820152601260248201527120b6361039b637ba399030b9329037bb32b960711b6044820152606401610b92565b34601154601e610c77919061250f565b14610c945760405162461bcd60e51b8152600401610b929061258a565b610c9f33601e611826565b610cc833600a60135481548110610cb857610cb86125b6565b9060005260206000200154611977565b610cd0610cfa565b60138054906000610ce0836125cc565b919050555050610cf06001600e55565b565b610cfa61158b565b60145460405160009161010090046001600160a01b03169047908381818185875af1925050503d8060008114610d4c576040519150601f19603f3d011682016040523d82523d6000602084013e610d51565b606091505b5050905080610a7a57600080fd5b610d676117cd565b6000610d71610910565b60145490915060ff1615610d8457600080fd5b7f0000000000000000000000000000000000000000000000000000000000000000610daf8383612548565b1115610dcd5760405162461bcd60e51b8152600401610b929061255b565b3482601154610ddc919061250f565b14610df95760405162461bcd60e51b8152600401610b929061258a565b610e038383611826565b610e0b610cfa565b5061090c6001600e55565b610e21838383610945565b813b15610a6457610a6483838360405180602001604052806000815250611a33565b60606000610e50836111aa565b905060008167ffffffffffffffff811115610e6d57610e6d6122ed565b604051908082528060200260200182016040528015610e96578160200160208202803683370190505b50905060005b82811015610edd57610eae8582610b29565b828281518110610ec057610ec06125b6565b602090810291909101015280610ed5816125cc565b915050610e9c565b509392505050565b6000818152673ec412a9852d173d60c11b601c5260208120820182015460601b61080b565b6000610f1560025490565b8210610f785760405162461bcd60e51b815260206004820152602c60248201527f455243373231456e756d657261626c653a20676c6f62616c20696e646578206f60448201526b7574206f6620626f756e647360a01b6064820152608401610b92565b60028281548110610f8b57610f8b6125b6565b90600052602060002001549050919050565b610fa561158b565b600f61090c828261262b565b610fb961158b565b61090c8282611977565b610fcb6117cd565b6000610fd5610910565b90507f000000000000000000000000000000000000000000000000000000000000000061100382600a612548565b11156110215760405162461bcd60e51b8152600401610b929061255b565b6014601254106110685760405162461bcd60e51b815260206004820152601260248201527120b6361039b637ba399030b9329037bb32b960711b6044820152606401610b92565b34601154600a611078919061250f565b146110955760405162461bcd60e51b8152600401610b929061258a565b6110a033600a611826565b6110b933600960125481548110610cb857610cb86125b6565b6110c1610cfa565b60128054906000610ce0836125cc565b6000818152673ec412a9852d173d60c11b601c526020902081018101546001600160a01b03168061110a5763ceea21b66000526004601cfd5b919050565b61111761158b565b601155565b600f8054611129906124ac565b80601f0160208091040260200160405190810160405280929190818152602001828054611155906124ac565b80156111a25780601f10611177576101008083540402835291602001916111a2565b820191906000526020600020905b81548152906001019060200180831161118557829003601f168201915b505050505081565b6000816111bf57638f4eb6046000526004601cfd5b673ec412a9852d173d60c11b601c528160005263ffffffff601c600c2054169050919050565b6111ed61158b565b610cf06000611ac5565b60008060005b60148161ffff1610156112515760098161ffff1681548110611221576112216125b6565b9060005260206000200154840361123b5760019150611251565b6000915080611249816126eb565b9150506111fd565b5080151560000361080b5760005b600a8161ffff1610156112b357600a8161ffff1681548110611283576112836125b6565b9060005260206000200154840361129d57600191506112b3565b60009150806112ab816126eb565b91505061125f565b5092915050565b60606007805461083b906124ac565b801515905081601c52670a5a2e7a0000000060085233600052806030600c2055806000528160601b60601c337f17307eab39ab6107e8899845ad3d59bd9653f200f220920489ca2b5937696c3160206000a35050565b61132a858585610945565b833b156113735761137385858585858080601f016020809104026020016040519081016040528093929190818152602001838380828437600092019190915250611a3392505050565b5050505050565b60108054611129906124ac565b60606113af826000818152673ec412a9852d173d60c11b601c52602090208101015460601b90565b6114135760405162461bcd60e51b815260206004820152602f60248201527f4552433732314d657461646174613a2055524920717565727920666f72206e6f60448201526e3732bc34b9ba32b73a103a37b5b2b760891b6064820152608401610b92565b600061141d611b17565b9050600081511161143d576040518060200160405280600081525061146b565b8061144784611b26565b601060405160200161145b9392919061270c565b6040516020818303038152906040525b9392505050565b61147a61158b565b601061090c828261262b565b600060c06114af83673ec412a9852d173d60c11b601c908152600091909152600c205460201c90565b6001600160e01b0316901c92915050565b606060405180608001604052806059815260200161281460599139905090565b6114e861158b565b6001600160a01b03811661154d5760405162461bcd60e51b815260206004820152602660248201527f4f776e61626c653a206e6577206f776e657220697320746865207a65726f206160448201526564647265737360d01b6064820152608401610b92565b610a7a81611ac5565b60006001600160e01b0319821663152a902d60e11b148061080b57506301ffc9a760e01b6001600160e01b031983161461080b565b600d546001600160a01b03163314610cf05760405162461bcd60e51b815260206004820181905260248201527f4f776e61626c653a2063616c6c6572206973206e6f7420746865206f776e65726044820152606401610b92565b60001960601c828116925083811693508160005283673ec412a9852d173d60c11b17601c526020600020820182018054821691508161162c5763ceea21b66000526004601cfd5b81851485151761165257816000526030600c205461165257634b6e7f186000526004601cfd5b6001018390558183827f8c5be1e5ebec7d5bd14f71427d1e84f3dd0314c0f7b2291e5b200ac8c7c3b925600080a450505050565b60018111156116f55760405162461bcd60e51b815260206004820152603560248201527f455243373231456e756d657261626c653a20636f6e7365637574697665207472604482015274185b9cd9995c9cc81b9bdd081cdd5c1c1bdc9d1959605a1b6064820152608401610b92565b816001600160a01b0385166117515761174c81600280546000838152600360205260408120829055600182018355919091527f405787fa12a823e0f2b7631cc41b3ba8828b3321ca811111fa75cd3aa3bb5ace0155565b611774565b836001600160a01b0316856001600160a01b031614611774576117748582611bb9565b6001600160a01b0384166117905761178b81611c53565b611373565b846001600160a01b0316846001600160a01b031614611373576113738482611d02565b6117bc81611d44565b600090815260056020526040812055565b6002600e540361181f5760405162461bcd60e51b815260206004820152601f60248201527f5265656e7472616e637947756172643a207265656e7472616e742063616c6c006044820152606401610b92565b6002600e55565b3332146118465760405163d9d552c960e01b815260040160405180910390fd5b8060000361186757604051634600cfe960e01b815260040160405180910390fd5b80600c54101561188a57604051637775abdd60e01b815260040160405180910390fd5b6040805160208082018352428284015244606080840191909152835180840390910181526080830190935282519201919091208152600c5460005b838110156119645760006118d98484611d4f565b905060006118e78285611d6d565b90505b6118f3816111f7565b1515600103611919576119068585611d4f565b91506119128285611d6d565b90506118ea565b6119238782611977565b60085461194c9084906001600160a01b03811690600160a01b90046001600160601b0316611dee565b611955846127c9565b935082600101925050506118c5565b5061196f8484611efc565b600c55505050565b611985600083836001611686565b6001600160a01b0390911690816119a45763ea553b346000526004601cfd5b80600052673ec412a9852d173d60c11b601c5260206000208101810180548060601b156119d95763c991cbb16000526004601cfd5b831790556000829052601c600c20805460010163ffffffff8116611a05576301336cea6000526004601cfd5b9055808260007fddf252ad1be2c89b69c2b068fc378daa952ba7f163c4a11628f55a4df523b3ef8180a45050565b60405163150b7a028082523360208301528560601b60601c604083015283606083015260808083015282518060a08401528015611a7a578060c08401826020870160045afa505b60208360a48301601c860160008a5af1611aa3573d15611a9e573d6000803e3d6000fd5b600083525b508060e01b825114611abd5763d1a57ed66000526004601cfd5b505050505050565b600d80546001600160a01b038381166001600160a01b0319831681179093556040519116919082907f8be0079c531659141344cd1fd0a4f28419497f9722a3daafe3b4186f6b6457e090600090a35050565b6060600f805461083b906124ac565b60606000611b3383611f76565b600101905060008167ffffffffffffffff811115611b5357611b536122ed565b6040519080825280601f01601f191660200182016040528015611b7d576020820181803683370190505b5090508181016020015b600019016f181899199a1a9b1b9c1cb0b131b232b360811b600a86061a8153600a8504945084611b8757509392505050565b60006001611bc6846111aa565b611bd091906124fc565b600083815260016020526040902054909150808214611c21576001600160a01b0384166000908152602081815260408083208584528252808320548484528184208190558352600190915290208190555b5060009182526001602090815260408084208490556001600160a01b0390941683528281528383209183525290812055565b600254600090611c65906001906124fc565b60008381526003602052604081205460028054939450909284908110611c8d57611c8d6125b6565b906000526020600020015490508060028381548110611cae57611cae6125b6565b6000918252602080832090910192909255828152600390915260408082208490558582528120556002805480611ce657611ce66127e0565b6001900381819060005260206000200160009055905550505050565b6000611d0d836111aa565b6001600160a01b03909316600090815260208181526040808320868452825280832085905593825260019052919091209190915550565b610a7a60008261204e565b60005b6020832090508083528182600003068110611d525706919050565b6000828152600b602052604081205481611d886001856124fc565b6000818152600b60205260409020549091508215611da65782611da8565b855b9350818614611dcf578015611dbd5780611dbf565b815b6000878152600b60205260409020555b8015611de5576000828152600b60205260408120555b50505092915050565b6127106001600160601b0382161115611e5c5760405162461bcd60e51b815260206004820152602a60248201527f455243323938313a20726f79616c7479206665652077696c6c206578636565646044820152692073616c65507269636560b01b6064820152608401610b92565b6001600160a01b038216611eb25760405162461bcd60e51b815260206004820152601b60248201527f455243323938313a20496e76616c696420706172616d657465727300000000006044820152606401610b92565b6040805180820182526001600160a01b0393841681526001600160601b0392831660208083019182526000968752600590529190942093519051909116600160a01b029116179055565b6000611f0783611486565b90506000611f1583836127f6565b90506000611f3e85673ec412a9852d173d60c11b601c908152600091909152600c205460201c90565b673ec412a9852d173d60c11b601c9081526000879052600c208054602081811c67ffffffffffffffff851618901b1890559050611373565b60008072184f03e93ff9f4daa797ed6e38ed64bf6a1f0160401b8310611fb55772184f03e93ff9f4daa797ed6e38ed64bf6a1f0160401b830492506040015b6d04ee2d6d415b85acef81000000008310611fe1576d04ee2d6d415b85acef8100000000830492506020015b662386f26fc100008310611fff57662386f26fc10000830492506010015b6305f5e1008310612017576305f5e100830492506008015b612710831061202b57612710830492506004015b6064831061203d576064830492506002015b600a831061080b5760010192915050565b6000612059826110d1565b9050612069816000846001611686565b5060008181526001600160a01b03928316673ec412a9852d173d60c11b8117601c5260209091208201820180549193821691826120ae5763ceea21b66000526004601cfd5b826000528160010154808614848714178615176120dd576030600c20546120dd57634b6e7f186000526004601cfd5b80156120eb57600083600101555b5082189055601c600c208054600019019055816000827fddf252ad1be2c89b69c2b068fc378daa952ba7f163c4a11628f55a4df523b3ef8280a4505050565b60006020828403121561213c57600080fd5b81356001600160e01b03198116811461146b57600080fd5b8035801515811461110a57600080fd5b60006020828403121561217657600080fd5b61146b82612154565b60005b8381101561219a578181015183820152602001612182565b50506000910152565b60208152600082518060208401526121c281604085016020870161217f565b601f01601f19169190910160400192915050565b6000602082840312156121e857600080fd5b5035919050565b80356001600160a01b038116811461110a57600080fd5b6000806040838503121561221957600080fd5b612222836121ef565b946020939093013593505050565b60008060006060848603121561224557600080fd5b61224e846121ef565b925061225c602085016121ef565b9150604084013590509250925092565b6000806040838503121561227f57600080fd5b50508035926020909101359150565b6000602082840312156122a057600080fd5b61146b826121ef565b6020808252825182820181905260009190848201906040850190845b818110156122e1578351835292840192918401916001016122c5565b50909695505050505050565b634e487b7160e01b600052604160045260246000fd5b60006020828403121561231557600080fd5b813567ffffffffffffffff8082111561232d57600080fd5b818401915084601f83011261234157600080fd5b813581811115612353576123536122ed565b604051601f8201601f19908116603f0116810190838211818310171561237b5761237b6122ed565b8160405282815287602084870101111561239457600080fd5b826020860160208301376000928101602001929092525095945050505050565b600080604083850312156123c757600080fd5b6123d0836121ef565b91506123de60208401612154565b90509250929050565b6000806000806000608086880312156123ff57600080fd5b612408866121ef565b9450612416602087016121ef565b935060408601359250606086013567ffffffffffffffff8082111561243a57600080fd5b818801915088601f83011261244e57600080fd5b81358181111561245d57600080fd5b89602082850101111561246f57600080fd5b9699959850939650602001949392505050565b6000806040838503121561249557600080fd5b61249e836121ef565b91506123de602084016121ef565b600181811c908216806124c057607f821691505b6020821081036124e057634e487b7160e01b600052602260045260246000fd5b50919050565b634e487b7160e01b600052601160045260246000fd5b8181038181111561080b5761080b6124e6565b808202811582820484141761080b5761080b6124e6565b60008261254357634e487b7160e01b600052601260045260246000fd5b500490565b8082018082111561080b5761080b6124e6565b602080825260159082015274105b1b081d1bdad95b9cc8185c99481b5a5b9d1959605a1b604082015260600190565b602080825260129082015271496e73756666696369656e742066756e647360701b604082015260600190565b634e487b7160e01b600052603260045260246000fd5b6000600182016125de576125de6124e6565b5060010190565b601f821115610a6457600081815260208120601f850160051c8101602086101561260c5750805b601f850160051c820191505b81811015611abd57828155600101612618565b815167ffffffffffffffff811115612645576126456122ed565b6126598161265384546124ac565b846125e5565b602080601f83116001811461268e57600084156126765750858301515b600019600386901b1c1916600185901b178555611abd565b600085815260208120601f198616915b828110156126bd5788860151825594840194600190910190840161269e565b50858210156126db5787850151600019600388901b60f8161c191681555b5050505050600190811b01905550565b600061ffff808316818103612702576127026124e6565b6001019392505050565b60008451602061271f8285838a0161217f565b8184019150680486f6f6469652532360bc1b82526009865161274681838601858b0161217f565b8654930192600090612757816124ac565b6001828116801561276f5760018114612788576127b8565b60ff1984168887015282151583028801860194506127b8565b8a6000528660002060005b848110156127ae5781548a8201890152908301908801612793565b5050858389010194505b50929b9a5050505050505050505050565b6000816127d8576127d86124e6565b506000190190565b634e487b7160e01b600052603160045260246000fd5b63ffffffff8181168382160190808211156112b3576112b36124e656fe68747470733a2f2f6261666b72656963626e366436356b377379637a6a6a6a776d756f6f33367a667333773379326e6a667a6e32733362656133763779376c75356c752e697066732e6e667473746f726167652e6c696e6b2fa264697066735822122054d452b8a65bc5b350f4f0c87a582b30f010e304a36b4d7b367b90a61bd1990064736f6c63430008120033",
  "linkReferences": {},
  "deployedLinkReferences": {}
}