{
  "contractName": "KRWN",
  "abi": [
    {
      "inputs": [
        {
          "internalType": "string",
          "name": "_initBaseURI",
          "type": "string"
        }
      ],
      "stateMutability": "nonpayable",
      "type": "constructor"
    },
    {
      "anonymous": false,
      "inputs": [
        {
          "indexed": true,
          "internalType": "address",
          "name": "owner",
          "type": "address"
        },
        {
          "indexed": true,
          "internalType": "address",
          "name": "approved",
          "type": "address"
        },
        {
          "indexed": true,
          "internalType": "uint256",
          "name": "tokenId",
          "type": "uint256"
        }
      ],
      "name": "Approval",
      "type": "event"
    },
    {
      "anonymous": false,
      "inputs": [
        {
          "indexed": true,
          "internalType": "address",
          "name": "owner",
          "type": "address"
        },
        {
          "indexed": true,
          "internalType": "address",
          "name": "operator",
          "type": "address"
        },
        {
          "indexed": false,
          "internalType": "bool",
          "name": "approved",
          "type": "bool"
        }
      ],
      "name": "ApprovalForAll",
      "type": "event"
    },
    {
      "anonymous": false,
      "inputs": [
        {
          "indexed": true,
          "internalType": "address",
          "name": "previousOwner",
          "type": "address"
        },
        {
          "indexed": true,
          "internalType": "address",
          "name": "newOwner",
          "type": "address"
        }
      ],
      "name": "OwnershipTransferred",
      "type": "event"
    },
    {
      "anonymous": false,
      "inputs": [
        {
          "indexed": true,
          "internalType": "address",
          "name": "from",
          "type": "address"
        },
        {
          "indexed": true,
          "internalType": "address",
          "name": "to",
          "type": "address"
        },
        {
          "indexed": true,
          "internalType": "uint256",
          "name": "tokenId",
          "type": "uint256"
        }
      ],
      "name": "Transfer",
      "type": "event"
    },
    {
      "inputs": [
        {
          "internalType": "address",
          "name": "to",
          "type": "address"
        },
        {
          "internalType": "uint256",
          "name": "tokenId",
          "type": "uint256"
        }
      ],
      "name": "approve",
      "outputs": [],
      "stateMutability": "nonpayable",
      "type": "function"
    },
    {
      "inputs": [
        {
          "internalType": "address",
          "name": "owner",
          "type": "address"
        }
      ],
      "name": "balanceOf",
      "outputs": [
        {
          "internalType": "uint256",
          "name": "",
          "type": "uint256"
        }
      ],
      "stateMutability": "view",
      "type": "function"
    },
    {
      "inputs": [],
      "name": "baseExtension",
      "outputs": [
        {
          "internalType": "string",
          "name": "",
          "type": "string"
        }
      ],
      "stateMutability": "view",
      "type": "function"
    },
    {
      "inputs": [],
      "name": "fee",
      "outputs": [
        {
          "internalType": "uint96",
          "name": "",
          "type": "uint96"
        }
      ],
      "stateMutability": "view",
      "type": "function"
    },
    {
      "inputs": [
        {
          "internalType": "uint256",
          "name": "tokenId",
          "type": "uint256"
        }
      ],
      "name": "getApproved",
      "outputs": [
        {
          "internalType": "address",
          "name": "",
          "type": "address"
        }
      ],
      "stateMutability": "view",
      "type": "function"
    },
    {
      "inputs": [
        {
          "internalType": "address",
          "name": "owner",
          "type": "address"
        },
        {
          "internalType": "address",
          "name": "operator",
          "type": "address"
        }
      ],
      "name": "isApprovedForAll",
      "outputs": [
        {
          "internalType": "bool",
          "name": "",
          "type": "bool"
        }
      ],
      "stateMutability": "view",
      "type": "function"
    },
    {
      "inputs": [],
      "name": "maxSupply",
      "outputs": [
        {
          "internalType": "uint256",
          "name": "",
          "type": "uint256"
        }
      ],
      "stateMutability": "view",
      "type": "function"
    },
    {
      "inputs": [],
      "name": "name",
      "outputs": [
        {
          "internalType": "string",
          "name": "",
          "type": "string"
        }
      ],
      "stateMutability": "view",
      "type": "function"
    },
    {
      "inputs": [],
      "name": "owner",
      "outputs": [
        {
          "internalType": "address",
          "name": "",
          "type": "address"
        }
      ],
      "stateMutability": "view",
      "type": "function"
    },
    {
      "inputs": [
        {
          "internalType": "uint256",
          "name": "tokenId",
          "type": "uint256"
        }
      ],
      "name": "ownerOf",
      "outputs": [
        {
          "internalType": "address",
          "name": "",
          "type": "address"
        }
      ],
      "stateMutability": "view",
      "type": "function"
    },
    {
      "inputs": [],
      "name": "paused",
      "outputs": [
        {
          "internalType": "bool",
          "name": "",
          "type": "bool"
        }
      ],
      "stateMutability": "view",
      "type": "function"
    },
    {
      "inputs": [],
      "name": "price",
      "outputs": [
        {
          "internalType": "uint256",
          "name": "",
          "type": "uint256"
        }
      ],
      "stateMutability": "view",
      "type": "function"
    },
    {
      "inputs": [],
      "name": "renounceOwnership",
      "outputs": [],
      "stateMutability": "nonpayable",
      "type": "function"
    },
    {
      "inputs": [
        {
          "internalType": "uint256",
          "name": "_tokenId",
          "type": "uint256"
        },
        {
          "internalType": "uint256",
          "name": "_salePrice",
          "type": "uint256"
        }
      ],
      "name": "royaltyInfo",
      "outputs": [
        {
          "internalType": "address",
          "name": "",
          "type": "address"
        },
        {
          "internalType": "uint256",
          "name": "",
          "type": "uint256"
        }
      ],
      "stateMutability": "view",
      "type": "function"
    },
    {
      "inputs": [],
      "name": "royaltyReceiver",
      "outputs": [
        {
          "internalType": "address",
          "name": "",
          "type": "address"
        }
      ],
      "stateMutability": "view",
      "type": "function"
    },
    {
      "inputs": [
        {
          "internalType": "address",
          "name": "from",
          "type": "address"
        },
        {
          "internalType": "address",
          "name": "to",
          "type": "address"
        },
        {
          "internalType": "uint256",
          "name": "tokenId",
          "type": "uint256"
        }
      ],
      "name": "safeTransferFrom",
      "outputs": [],
      "stateMutability": "nonpayable",
      "type": "function"
    },
    {
      "inputs": [
        {
          "internalType": "address",
          "name": "from",
          "type": "address"
        },
        {
          "internalType": "address",
          "name": "to",
          "type": "address"
        },
        {
          "internalType": "uint256",
          "name": "tokenId",
          "type": "uint256"
        },
        {
          "internalType": "bytes",
          "name": "data",
          "type": "bytes"
        }
      ],
      "name": "safeTransferFrom",
      "outputs": [],
      "stateMutability": "nonpayable",
      "type": "function"
    },
    {
      "inputs": [
        {
          "internalType": "address",
          "name": "operator",
          "type": "address"
        },
        {
          "internalType": "bool",
          "name": "approved",
          "type": "bool"
        }
      ],
      "name": "setApprovalForAll",
      "outputs": [],
      "stateMutability": "nonpayable",
      "type": "function"
    },
    {
      "inputs": [],
      "name": "symbol",
      "outputs": [
        {
          "internalType": "string",
          "name": "",
          "type": "string"
        }
      ],
      "stateMutability": "view",
      "type": "function"
    },
    {
      "inputs": [
        {
          "internalType": "uint256",
          "name": "index",
          "type": "uint256"
        }
      ],
      "name": "tokenByIndex",
      "outputs": [
        {
          "internalType": "uint256",
          "name": "",
          "type": "uint256"
        }
      ],
      "stateMutability": "view",
      "type": "function"
    },
    {
      "inputs": [
        {
          "internalType": "address",
          "name": "owner",
          "type": "address"
        },
        {
          "internalType": "uint256",
          "name": "index",
          "type": "uint256"
        }
      ],
      "name": "tokenOfOwnerByIndex",
      "outputs": [
        {
          "internalType": "uint256",
          "name": "",
          "type": "uint256"
        }
      ],
      "stateMutability": "view",
      "type": "function"
    },
    {
      "inputs": [],
      "name": "totalSupply",
      "outputs": [
        {
          "internalType": "uint256",
          "name": "",
          "type": "uint256"
        }
      ],
      "stateMutability": "view",
      "type": "function"
    },
    {
      "inputs": [
        {
          "internalType": "address",
          "name": "from",
          "type": "address"
        },
        {
          "internalType": "address",
          "name": "to",
          "type": "address"
        },
        {
          "internalType": "uint256",
          "name": "tokenId",
          "type": "uint256"
        }
      ],
      "name": "transferFrom",
      "outputs": [],
      "stateMutability": "nonpayable",
      "type": "function"
    },
    {
      "inputs": [
        {
          "internalType": "address",
          "name": "newOwner",
          "type": "address"
        }
      ],
      "name": "transferOwnership",
      "outputs": [],
      "stateMutability": "nonpayable",
      "type": "function"
    },
    {
      "inputs": [],
      "name": "withdrawAddress",
      "outputs": [
        {
          "internalType": "address",
          "name": "",
          "type": "address"
        }
      ],
      "stateMutability": "view",
      "type": "function"
    },
    {
      "inputs": [],
      "name": "contractURI",
      "outputs": [
        {
          "internalType": "string",
          "name": "",
          "type": "string"
        }
      ],
      "stateMutability": "pure",
      "type": "function"
    },
    {
      "inputs": [
        {
          "internalType": "uint256",
          "name": "tokenId",
          "type": "uint256"
        }
      ],
      "name": "mint",
      "outputs": [],
      "stateMutability": "payable",
      "type": "function"
    },
    {
      "inputs": [
        {
          "internalType": "address",
          "name": "_owner",
          "type": "address"
        }
      ],
      "name": "walletOfOwner",
      "outputs": [
        {
          "internalType": "uint256[]",
          "name": "",
          "type": "uint256[]"
        }
      ],
      "stateMutability": "view",
      "type": "function"
    },
    {
      "inputs": [
        {
          "internalType": "uint256",
          "name": "tokenId",
          "type": "uint256"
        }
      ],
      "name": "tokenURI",
      "outputs": [
        {
          "internalType": "string",
          "name": "",
          "type": "string"
        }
      ],
      "stateMutability": "view",
      "type": "function"
    },
    {
      "inputs": [],
      "name": "getTokenPrice",
      "outputs": [
        {
          "internalType": "uint256",
          "name": "",
          "type": "uint256"
        }
      ],
      "stateMutability": "view",
      "type": "function"
    },
    {
      "inputs": [
        {
          "internalType": "uint256",
          "name": "_price",
          "type": "uint256"
        }
      ],
      "name": "setTokenPrice",
      "outputs": [],
      "stateMutability": "nonpayable",
      "type": "function"
    },
    {
      "inputs": [
        {
          "internalType": "string",
          "name": "_newBaseURI",
          "type": "string"
        }
      ],
      "name": "setBaseURI",
      "outputs": [],
      "stateMutability": "nonpayable",
      "type": "function"
    },
    {
      "inputs": [
        {
          "internalType": "string",
          "name": "_newBaseExtension",
          "type": "string"
        }
      ],
      "name": "setBaseExtension",
      "outputs": [],
      "stateMutability": "nonpayable",
      "type": "function"
    },
    {
      "inputs": [
        {
          "internalType": "bool",
          "name": "_state",
          "type": "bool"
        }
      ],
      "name": "pause",
      "outputs": [],
      "stateMutability": "nonpayable",
      "type": "function"
    },
    {
      "inputs": [
        {
          "internalType": "uint256",
          "name": "tokenId",
          "type": "uint256"
        }
      ],
      "name": "exists",
      "outputs": [
        {
          "internalType": "bool",
          "name": "",
          "type": "bool"
        }
      ],
      "stateMutability": "view",
      "type": "function"
    },
    {
      "inputs": [],
      "name": "withdraw",
      "outputs": [],
      "stateMutability": "payable",
      "type": "function"
    },
    {
      "inputs": [
        {
          "internalType": "bytes4",
          "name": "interfaceId",
          "type": "bytes4"
        }
      ],
      "name": "supportsInterface",
      "outputs": [
        {
          "internalType": "bool",
          "name": "",
          "type": "bool"
        }
      ],
      "stateMutability": "view",
      "type": "function"
    },
    {
      "inputs": [
        {
          "internalType": "uint256",
          "name": "tokenId",
          "type": "uint256"
        }
      ],
      "name": "burnNFT",
      "outputs": [],
      "stateMutability": "nonpayable",
      "type": "function"
    }
  ],
  "bytecode": "0x60c06040526005608090815264173539b7b760d91b60a052600f90620000269082620002b6565b5061037b60105566470de4df820000601155601280546001600160a81b031916740c69b35efe05eceda747ddb404825e367fd79d22001790557501f42d558f2c83d509f3d1b857a36970bc0d0a80daec6013553480156200008657600080fd5b5060405162002c2e38038062002c2e833981016040819052620000a99162000382565b6040518060400160405280600b81526020016a4b52574e2053747564696f60a81b8152506040518060400160405280600481526020016325a92ba760e11b8152508160009081620000fb9190620002b6565b5060016200010a8282620002b6565b50505062000127620001216200013e60201b60201c565b62000142565b6001600b55620001378162000194565b5062000457565b3390565b600a80546001600160a01b038381166001600160a01b0319831681179093556040519116919082907f8be0079c531659141344cd1fd0a4f28419497f9722a3daafe3b4186f6b6457e090600090a35050565b6200019e620001b0565b600e620001ac8282620002b6565b5050565b600a546001600160a01b031633146200020f5760405162461bcd60e51b815260206004820181905260248201527f4f776e61626c653a2063616c6c6572206973206e6f7420746865206f776e6572604482015260640160405180910390fd5b565b634e487b7160e01b600052604160045260246000fd5b600181811c908216806200023c57607f821691505b6020821081036200025d57634e487b7160e01b600052602260045260246000fd5b50919050565b601f821115620002b157600081815260208120601f850160051c810160208610156200028c5750805b601f850160051c820191505b81811015620002ad5782815560010162000298565b5050505b505050565b81516001600160401b03811115620002d257620002d262000211565b620002ea81620002e3845462000227565b8462000263565b602080601f831160018114620003225760008415620003095750858301515b600019600386901b1c1916600185901b178555620002ad565b600085815260208120601f198616915b82811015620003535788860151825594840194600190910190840162000332565b5085821015620003725787850151600019600388901b60f8161c191681555b5050505050600190811b01905550565b600060208083850312156200039657600080fd5b82516001600160401b0380821115620003ae57600080fd5b818501915085601f830112620003c357600080fd5b815181811115620003d857620003d862000211565b604051601f8201601f19908116603f0116810190838211818310171562000403576200040362000211565b8160405282815288868487010111156200041c57600080fd5b600093505b8284101562000440578484018601518185018701529285019262000421565b600086848301015280965050505050505092915050565b6127c780620004676000396000f3fe6080604052600436106102255760003560e01c80636352211e11610123578063a22cb465116100ab578063da3ef23f1161006f578063da3ef23f1461063e578063ddca3f431461065e578063e8a3d4851461069d578063e985e9c5146106b2578063f2fde38b146106fb57600080fd5b8063a22cb465146105b3578063b88d4fde146105d3578063c6682862146105f3578063c87b56dd14610608578063d5abeb011461062857600080fd5b80638da5cb5b116100f25780638da5cb5b1461053257806395d89b41146105505780639fbc871314610565578063a035b1fe1461058a578063a0712d68146105a057600080fd5b80636352211e146104bd5780636a61e5fc146104dd57806370a08231146104fd578063715018a61461051d57600080fd5b80632a55205a116101b15780634b94f50e116101755780634b94f50e1461042e5780634f558e79146104435780634f6ccce71461046357806355f804b3146104835780635c975abb146104a357600080fd5b80632a55205a1461037a5780632f745c59146103b95780633ccfd60b146103d957806342842e0e146103e1578063438b63001461040157600080fd5b8063095ea7b3116101f8578063095ea7b3146102db5780631581b600146102fb57806318160ddd1461031b57806323b872dd1461033a5780632890e0d71461035a57600080fd5b806301ffc9a71461022a57806302329a291461025f57806306fdde0314610281578063081812fc146102a3575b600080fd5b34801561023657600080fd5b5061024a610245366004611fc6565b61071b565b60405190151581526020015b60405180910390f35b34801561026b57600080fd5b5061027f61027a366004611ff8565b61072c565b005b34801561028d57600080fd5b50610296610747565b6040516102569190612063565b3480156102af57600080fd5b506102c36102be366004612076565b6107d9565b6040516001600160a01b039091168152602001610256565b3480156102e757600080fd5b5061027f6102f63660046120a6565b610800565b34801561030757600080fd5b506013546102c3906001600160a01b031681565b34801561032757600080fd5b506008545b604051908152602001610256565b34801561034657600080fd5b5061027f6103553660046120d0565b61091a565b34801561036657600080fd5b5061027f610375366004612076565b61094b565b34801561038657600080fd5b5061039a61039536600461210c565b61095f565b604080516001600160a01b039093168352602083019190915201610256565b3480156103c557600080fd5b5061032c6103d43660046120a6565b610a0b565b61027f610aa1565b3480156103ed57600080fd5b5061027f6103fc3660046120d0565b610b09565b34801561040d57600080fd5b5061042161041c36600461212e565b610b24565b6040516102569190612149565b34801561043a57600080fd5b5060115461032c565b34801561044f57600080fd5b5061024a61045e366004612076565b610bc6565b34801561046f57600080fd5b5061032c61047e366004612076565b610be5565b34801561048f57600080fd5b5061027f61049e366004612219565b610c78565b3480156104af57600080fd5b5060125461024a9060ff1681565b3480156104c957600080fd5b506102c36104d8366004612076565b610c90565b3480156104e957600080fd5b5061027f6104f8366004612076565b610cf0565b34801561050957600080fd5b5061032c61051836600461212e565b610cfd565b34801561052957600080fd5b5061027f610d83565b34801561053e57600080fd5b50600a546001600160a01b03166102c3565b34801561055c57600080fd5b50610296610d97565b34801561057157600080fd5b506012546102c39061010090046001600160a01b031681565b34801561059657600080fd5b5061032c60115481565b61027f6105ae366004612076565b610da6565b3480156105bf57600080fd5b5061027f6105ce366004612262565b610e76565b3480156105df57600080fd5b5061027f6105ee366004612295565b610e81565b3480156105ff57600080fd5b50610296610eb9565b34801561061457600080fd5b50610296610623366004612076565b610f47565b34801561063457600080fd5b5061032c60105481565b34801561064a57600080fd5b5061027f610659366004612219565b611025565b34801561066a57600080fd5b5060135461068590600160a01b90046001600160601b031681565b6040516001600160601b039091168152602001610256565b3480156106a957600080fd5b50610296611039565b3480156106be57600080fd5b5061024a6106cd366004612311565b6001600160a01b03918216600090815260056020908152604080832093909416825291909152205460ff1690565b34801561070757600080fd5b5061027f61071636600461212e565b611059565b6000610726826110cf565b92915050565b6107346110f4565b6012805460ff1916911515919091179055565b6060600080546107569061233b565b80601f01602080910402602001604051908101604052809291908181526020018280546107829061233b565b80156107cf5780601f106107a4576101008083540402835291602001916107cf565b820191906000526020600020905b8154815290600101906020018083116107b257829003601f168201915b5050505050905090565b60006107e48261114e565b506000908152600460205260409020546001600160a01b031690565b600061080b82610c90565b9050806001600160a01b0316836001600160a01b03160361087d5760405162461bcd60e51b815260206004820152602160248201527f4552433732313a20617070726f76616c20746f2063757272656e74206f776e656044820152603960f91b60648201526084015b60405180910390fd5b336001600160a01b0382161480610899575061089981336106cd565b61090b5760405162461bcd60e51b815260206004820152603d60248201527f4552433732313a20617070726f76652063616c6c6572206973206e6f7420746f60448201527f6b656e206f776e6572206f7220617070726f76656420666f7220616c6c0000006064820152608401610874565b61091583836111ad565b505050565b610924338261121b565b6109405760405162461bcd60e51b815260040161087490612375565b61091583838361129a565b6109536110f4565b61095c8161140b565b50565b6000828152600d602090815260408083208151808301909252546001600160a01b038116808352600160a01b9091046001600160601b03169282019290925282916109d4575060408051808201909152600c546001600160a01b0381168252600160a01b90046001600160601b031660208201525b6020810151600090612710906109f3906001600160601b0316876123d8565b6109fd91906123ef565b915196919550909350505050565b6000610a1683610cfd565b8210610a785760405162461bcd60e51b815260206004820152602b60248201527f455243373231456e756d657261626c653a206f776e657220696e646578206f7560448201526a74206f6620626f756e647360a81b6064820152608401610874565b506001600160a01b03919091166000908152600660209081526040808320938352929052205490565b610aa96110f4565b6013546040516000916001600160a01b03169047908381818185875af1925050503d8060008114610af6576040519150601f19603f3d011682016040523d82523d6000602084013e610afb565b606091505b505090508061095c57600080fd5b61091583838360405180602001604052806000815250610e81565b60606000610b3183610cfd565b905060008167ffffffffffffffff811115610b4e57610b4e61218d565b604051908082528060200260200182016040528015610b77578160200160208202803683370190505b50905060005b82811015610bbe57610b8f8582610a0b565b828281518110610ba157610ba1612411565b602090810291909101015280610bb681612427565b915050610b7d565b509392505050565b6000818152600260205260408120546001600160a01b03161515610726565b6000610bf060085490565b8210610c535760405162461bcd60e51b815260206004820152602c60248201527f455243373231456e756d657261626c653a20676c6f62616c20696e646578206f60448201526b7574206f6620626f756e647360a01b6064820152608401610874565b60088281548110610c6657610c66612411565b90600052602060002001549050919050565b610c806110f4565b600e610c8c828261248e565b5050565b6000818152600260205260408120546001600160a01b0316806107265760405162461bcd60e51b8152602060048201526018602482015277115490cdcc8c4e881a5b9d985b1a59081d1bdad95b88125160421b6044820152606401610874565b610cf86110f4565b601155565b60006001600160a01b038216610d675760405162461bcd60e51b815260206004820152602960248201527f4552433732313a2061646472657373207a65726f206973206e6f7420612076616044820152683634b21037bbb732b960b91b6064820152608401610874565b506001600160a01b031660009081526003602052604090205490565b610d8b6110f4565b610d956000611425565b565b6060600180546107569061233b565b610dae611477565b6000610db960085490565b60125490915060ff1615610dcc57600080fd5b601054610dda82600161254e565b1115610de557600080fd5b346011541115610e2c5760405162461bcd60e51b8152602060048201526012602482015271496e73756666696369656e742066756e647360701b6044820152606401610874565b610e3633836114d0565b610e6b82601260019054906101000a90046001600160a01b0316601360149054906101000a90046001600160601b03166114ea565b5061095c6001600b55565b610c8c3383836115f8565b610e8b338361121b565b610ea75760405162461bcd60e51b815260040161087490612375565b610eb3848484846116c6565b50505050565b600f8054610ec69061233b565b80601f0160208091040260200160405190810160405280929190818152602001828054610ef29061233b565b8015610f3f5780601f10610f1457610100808354040283529160200191610f3f565b820191906000526020600020905b815481529060010190602001808311610f2257829003601f168201915b505050505081565b6000818152600260205260409020546060906001600160a01b0316610fc65760405162461bcd60e51b815260206004820152602f60248201527f4552433732314d657461646174613a2055524920717565727920666f72206e6f60448201526e3732bc34b9ba32b73a103a37b5b2b760891b6064820152608401610874565b6000610fd06116f9565b90506000815111610ff0576040518060200160405280600081525061101e565b80610ffa84611708565b600f60405160200161100e93929190612561565b6040516020818303038152906040525b9392505050565b61102d6110f4565b600f610c8c828261248e565b606060405180608001604052806059815260200161273960599139905090565b6110616110f4565b6001600160a01b0381166110c65760405162461bcd60e51b815260206004820152602660248201527f4f776e61626c653a206e6577206f776e657220697320746865207a65726f206160448201526564647265737360d01b6064820152608401610874565b61095c81611425565b60006001600160e01b0319821663152a902d60e11b148061072657506107268261179b565b600a546001600160a01b03163314610d955760405162461bcd60e51b815260206004820181905260248201527f4f776e61626c653a2063616c6c6572206973206e6f7420746865206f776e65726044820152606401610874565b6000818152600260205260409020546001600160a01b031661095c5760405162461bcd60e51b8152602060048201526018602482015277115490cdcc8c4e881a5b9d985b1a59081d1bdad95b88125160421b6044820152606401610874565b600081815260046020526040902080546001600160a01b0319166001600160a01b03841690811790915581906111e282610c90565b6001600160a01b03167f8c5be1e5ebec7d5bd14f71427d1e84f3dd0314c0f7b2291e5b200ac8c7c3b92560405160405180910390a45050565b60008061122783610c90565b9050806001600160a01b0316846001600160a01b0316148061126e57506001600160a01b0380821660009081526005602090815260408083209388168352929052205460ff165b806112925750836001600160a01b0316611287846107d9565b6001600160a01b0316145b949350505050565b826001600160a01b03166112ad82610c90565b6001600160a01b0316146112d35760405162461bcd60e51b81526004016108749061261e565b6001600160a01b0382166113355760405162461bcd60e51b8152602060048201526024808201527f4552433732313a207472616e7366657220746f20746865207a65726f206164646044820152637265737360e01b6064820152608401610874565b61134283838360016117c0565b826001600160a01b031661135582610c90565b6001600160a01b03161461137b5760405162461bcd60e51b81526004016108749061261e565b600081815260046020908152604080832080546001600160a01b03199081169091556001600160a01b0387811680865260038552838620805460001901905590871680865283862080546001019055868652600290945282852080549092168417909155905184937fddf252ad1be2c89b69c2b068fc378daa952ba7f163c4a11628f55a4df523b3ef91a4505050565b61141481611900565b6000908152600d6020526040812055565b600a80546001600160a01b038381166001600160a01b0319831681179093556040519116919082907f8be0079c531659141344cd1fd0a4f28419497f9722a3daafe3b4186f6b6457e090600090a35050565b6002600b54036114c95760405162461bcd60e51b815260206004820152601f60248201527f5265656e7472616e637947756172643a207265656e7472616e742063616c6c006044820152606401610874565b6002600b55565b610c8c8282604051806020016040528060008152506119a3565b6127106001600160601b03821611156115585760405162461bcd60e51b815260206004820152602a60248201527f455243323938313a20726f79616c7479206665652077696c6c206578636565646044820152692073616c65507269636560b01b6064820152608401610874565b6001600160a01b0382166115ae5760405162461bcd60e51b815260206004820152601b60248201527f455243323938313a20496e76616c696420706172616d657465727300000000006044820152606401610874565b6040805180820182526001600160a01b0393841681526001600160601b0392831660208083019182526000968752600d90529190942093519051909116600160a01b029116179055565b816001600160a01b0316836001600160a01b0316036116595760405162461bcd60e51b815260206004820152601960248201527f4552433732313a20617070726f766520746f2063616c6c6572000000000000006044820152606401610874565b6001600160a01b03838116600081815260056020908152604080832094871680845294825291829020805460ff191686151590811790915591519182527f17307eab39ab6107e8899845ad3d59bd9653f200f220920489ca2b5937696c31910160405180910390a3505050565b6116d184848461129a565b6116dd848484846119d6565b610eb35760405162461bcd60e51b815260040161087490612663565b6060600e80546107569061233b565b6060600061171583611ad7565b600101905060008167ffffffffffffffff8111156117355761173561218d565b6040519080825280601f01601f19166020018201604052801561175f576020820181803683370190505b5090508181016020015b600019016f181899199a1a9b1b9c1cb0b131b232b360811b600a86061a8153600a850494508461176957509392505050565b60006001600160e01b0319821663780e9d6360e01b1480610726575061072682611baf565b6117cc84848484611bff565b600181111561183b5760405162461bcd60e51b815260206004820152603560248201527f455243373231456e756d657261626c653a20636f6e7365637574697665207472604482015274185b9cd9995c9cc81b9bdd081cdd5c1c1bdc9d1959605a1b6064820152608401610874565b816001600160a01b0385166118975761189281600880546000838152600960205260408120829055600182018355919091527ff3f7a9fe364faab93b216da50a3214154f22a0a2b415b23a84c8169e8b636ee30155565b6118ba565b836001600160a01b0316856001600160a01b0316146118ba576118ba8582611c87565b6001600160a01b0384166118d6576118d181611d24565b6118f9565b846001600160a01b0316846001600160a01b0316146118f9576118f98482611dd3565b5050505050565b600061190b82610c90565b905061191b8160008460016117c0565b61192482610c90565b600083815260046020908152604080832080546001600160a01b03199081169091556001600160a01b0385168085526003845282852080546000190190558785526002909352818420805490911690555192935084927fddf252ad1be2c89b69c2b068fc378daa952ba7f163c4a11628f55a4df523b3ef908390a45050565b6119ad8383611e17565b6119ba60008484846119d6565b6109155760405162461bcd60e51b815260040161087490612663565b60006001600160a01b0384163b15611acc57604051630a85bd0160e11b81526001600160a01b0385169063150b7a0290611a1a9033908990889088906004016126b5565b6020604051808303816000875af1925050508015611a55575060408051601f3d908101601f19168201909252611a52918101906126f2565b60015b611ab2573d808015611a83576040519150601f19603f3d011682016040523d82523d6000602084013e611a88565b606091505b508051600003611aaa5760405162461bcd60e51b815260040161087490612663565b805181602001fd5b6001600160e01b031916630a85bd0160e11b149050611292565b506001949350505050565b60008072184f03e93ff9f4daa797ed6e38ed64bf6a1f0160401b8310611b165772184f03e93ff9f4daa797ed6e38ed64bf6a1f0160401b830492506040015b6d04ee2d6d415b85acef81000000008310611b42576d04ee2d6d415b85acef8100000000830492506020015b662386f26fc100008310611b6057662386f26fc10000830492506010015b6305f5e1008310611b78576305f5e100830492506008015b6127108310611b8c57612710830492506004015b60648310611b9e576064830492506002015b600a83106107265760010192915050565b60006001600160e01b031982166380ac58cd60e01b1480611be057506001600160e01b03198216635b5e139f60e01b145b8061072657506301ffc9a760e01b6001600160e01b0319831614610726565b6001811115610eb3576001600160a01b03841615611c45576001600160a01b03841660009081526003602052604081208054839290611c3f90849061270f565b90915550505b6001600160a01b03831615610eb3576001600160a01b03831660009081526003602052604081208054839290611c7c90849061254e565b909155505050505050565b60006001611c9484610cfd565b611c9e919061270f565b600083815260076020526040902054909150808214611cf1576001600160a01b03841660009081526006602090815260408083208584528252808320548484528184208190558352600790915290208190555b5060009182526007602090815260408084208490556001600160a01b039094168352600681528383209183525290812055565b600854600090611d369060019061270f565b60008381526009602052604081205460088054939450909284908110611d5e57611d5e612411565b906000526020600020015490508060088381548110611d7f57611d7f612411565b6000918252602080832090910192909255828152600990915260408082208490558582528120556008805480611db757611db7612722565b6001900381819060005260206000200160009055905550505050565b6000611dde83610cfd565b6001600160a01b039093166000908152600660209081526040808320868452825280832085905593825260079052919091209190915550565b6001600160a01b038216611e6d5760405162461bcd60e51b815260206004820181905260248201527f4552433732313a206d696e7420746f20746865207a65726f20616464726573736044820152606401610874565b6000818152600260205260409020546001600160a01b031615611ed25760405162461bcd60e51b815260206004820152601c60248201527f4552433732313a20746f6b656e20616c7265616479206d696e746564000000006044820152606401610874565b611ee06000838360016117c0565b6000818152600260205260409020546001600160a01b031615611f455760405162461bcd60e51b815260206004820152601c60248201527f4552433732313a20746f6b656e20616c7265616479206d696e746564000000006044820152606401610874565b6001600160a01b038216600081815260036020908152604080832080546001019055848352600290915280822080546001600160a01b0319168417905551839291907fddf252ad1be2c89b69c2b068fc378daa952ba7f163c4a11628f55a4df523b3ef908290a45050565b6001600160e01b03198116811461095c57600080fd5b600060208284031215611fd857600080fd5b813561101e81611fb0565b80358015158114611ff357600080fd5b919050565b60006020828403121561200a57600080fd5b61101e82611fe3565b60005b8381101561202e578181015183820152602001612016565b50506000910152565b6000815180845261204f816020860160208601612013565b601f01601f19169290920160200192915050565b60208152600061101e6020830184612037565b60006020828403121561208857600080fd5b5035919050565b80356001600160a01b0381168114611ff357600080fd5b600080604083850312156120b957600080fd5b6120c28361208f565b946020939093013593505050565b6000806000606084860312156120e557600080fd5b6120ee8461208f565b92506120fc6020850161208f565b9150604084013590509250925092565b6000806040838503121561211f57600080fd5b50508035926020909101359150565b60006020828403121561214057600080fd5b61101e8261208f565b6020808252825182820181905260009190848201906040850190845b8181101561218157835183529284019291840191600101612165565b50909695505050505050565b634e487b7160e01b600052604160045260246000fd5b600067ffffffffffffffff808411156121be576121be61218d565b604051601f8501601f19908116603f011681019082821181831017156121e6576121e661218d565b816040528093508581528686860111156121ff57600080fd5b858560208301376000602087830101525050509392505050565b60006020828403121561222b57600080fd5b813567ffffffffffffffff81111561224257600080fd5b8201601f8101841361225357600080fd5b611292848235602084016121a3565b6000806040838503121561227557600080fd5b61227e8361208f565b915061228c60208401611fe3565b90509250929050565b600080600080608085870312156122ab57600080fd5b6122b48561208f565b93506122c26020860161208f565b925060408501359150606085013567ffffffffffffffff8111156122e557600080fd5b8501601f810187136122f657600080fd5b612305878235602084016121a3565b91505092959194509250565b6000806040838503121561232457600080fd5b61232d8361208f565b915061228c6020840161208f565b600181811c9082168061234f57607f821691505b60208210810361236f57634e487b7160e01b600052602260045260246000fd5b50919050565b6020808252602d908201527f4552433732313a2063616c6c6572206973206e6f7420746f6b656e206f776e6560408201526c1c881bdc88185c1c1c9bdd9959609a1b606082015260800190565b634e487b7160e01b600052601160045260246000fd5b8082028115828204841417610726576107266123c2565b60008261240c57634e487b7160e01b600052601260045260246000fd5b500490565b634e487b7160e01b600052603260045260246000fd5b600060018201612439576124396123c2565b5060010190565b601f82111561091557600081815260208120601f850160051c810160208610156124675750805b601f850160051c820191505b8181101561248657828155600101612473565b505050505050565b815167ffffffffffffffff8111156124a8576124a861218d565b6124bc816124b6845461233b565b84612440565b602080601f8311600181146124f157600084156124d95750858301515b600019600386901b1c1916600185901b178555612486565b600085815260208120601f198616915b8281101561252057888601518255948401946001909101908401612501565b508582101561253e5787850151600019600388901b60f8161c191681555b5050505050600190811b01905550565b80820180821115610726576107266123c2565b6000845160206125748285838a01612013565b8184019150680486f6f6469652532360bc1b82526009865161259b81838601858b01612013565b86549301926000906125ac8161233b565b600182811680156125c457600181146125dd5761260d565b60ff19841688870152821515830288018601945061260d565b8a6000528660002060005b848110156126035781548a82018901529083019088016125e8565b5050858389010194505b50929b9a5050505050505050505050565b60208082526025908201527f4552433732313a207472616e736665722066726f6d20696e636f72726563742060408201526437bbb732b960d91b606082015260800190565b60208082526032908201527f4552433732313a207472616e7366657220746f206e6f6e20455243373231526560408201527131b2b4bb32b91034b6b83632b6b2b73a32b960711b606082015260800190565b6001600160a01b03858116825284166020820152604081018390526080606082018190526000906126e890830184612037565b9695505050505050565b60006020828403121561270457600080fd5b815161101e81611fb0565b81810381811115610726576107266123c2565b634e487b7160e01b600052603160045260246000fdfe68747470733a2f2f6261666b726569676864716374676f626f7434776468726e72767164767633617868766669736c6c63357235356d32616a7777677667766e3773712e697066732e6e667473746f726167652e6c696e6b2fa26469706673582212206d82a580d833f08b2e7e9df413844fb4a8efaf75e4cc0276af412b15afc4713264736f6c63430008130033",
  "immutableReferences": {},
  "source": "// SPDX-License-Identifier: MIT\r\npragma solidity >=0.7.0 <0.9.0;\r\n\r\nimport \"@openzeppelin/contracts/token/ERC721/extensions/ERC721Enumerable.sol\";\r\nimport \"@openzeppelin/contracts/access/Ownable.sol\";\r\nimport \"@openzeppelin/contracts/security/ReentrancyGuard.sol\";\r\nimport \"@openzeppelin/contracts/token/common/ERC2981.sol\";\r\n\r\ncontract KRWN is ERC721Enumerable, Ownable, ReentrancyGuard, ERC2981 {\r\n  using Strings for uint256;\r\n\r\n  string baseURI;\r\n  string public baseExtension = \".json\";\r\n  uint256 public maxSupply = 891;\r\n  uint256 public price = 20000000000000000;\r\n  bool public paused = false;\r\n\r\n  // Royalty and withdraw receiver adresses\r\n  address public royaltyReceiver = 0x0c69B35eFe05ecEdA747dDb404825E367fD79D22;\r\n  address public withdrawAddress = 0x2d558f2C83D509F3D1B857a36970BC0D0a80dAEC;\r\n  // Royalty fee 5%\r\n  uint96 public fee = 500;\r\n\r\n  constructor(\r\n    string memory _initBaseURI\r\n  ) ERC721(\"KRWN Studio\", \"KRWN\") {\r\n    setBaseURI(_initBaseURI);\r\n  }\r\n\r\n  // Returns a link to IPFS storage\r\n  function _baseURI() internal view virtual override returns (string memory) {\r\n    return baseURI;\r\n  }\r\n\r\n  // Returns a link to contract metadata\r\n  function contractURI() public pure returns (string memory) {\r\n        return \"https://bafkreighdqctgobot4wdhrnrvqdvv3axhvfisllc5r55m2ajwwgvgvn7sq.ipfs.nftstorage.link/\";\r\n    }\r\n\r\n  // Public mint\r\n  function mint(uint256 tokenId) public payable nonReentrant{\r\n    uint256 supply = totalSupply();\r\n    require(!paused);\r\n    require(supply+1 <= maxSupply);\r\n    require(price <= msg.value, \"Insufficient funds\");\r\n    \r\n    _safeMint(msg.sender, tokenId);\r\n    _setTokenRoyalty(tokenId, royaltyReceiver, fee);\r\n\r\n  }\r\n\r\n  // Returns the number of owner tokens\r\n  function walletOfOwner(address _owner)\r\n    public\r\n    view\r\n    returns (uint256[] memory)\r\n  {\r\n    uint256 ownerTokenCount = balanceOf(_owner);\r\n    uint256[] memory tokenIds = new uint256[](ownerTokenCount);\r\n    for (uint256 i; i < ownerTokenCount; i++) {\r\n      tokenIds[i] = tokenOfOwnerByIndex(_owner, i);\r\n    }\r\n    return tokenIds;\r\n  }\r\n\r\n  // Token metadata\r\n  function tokenURI(uint256 tokenId)\r\n    public\r\n    view\r\n    virtual\r\n    override\r\n    returns (string memory)\r\n  {\r\n    require(\r\n      _exists(tokenId),\r\n      \"ERC721Metadata: URI query for nonexistent token\"\r\n    );\r\n    \r\n\r\n    string memory currentBaseURI = _baseURI();\r\n    return bytes(currentBaseURI).length > 0\r\n        ? string(abi.encodePacked(currentBaseURI,\"Hoodie%20\", tokenId.toString(), baseExtension))\r\n        : \"\";\r\n  }\r\n\r\n  // Returns current token price\r\n  function getTokenPrice() public view returns(uint256) {\r\n    return price;\r\n  }\r\n\r\n  // Sets token price\r\n  function setTokenPrice(uint256 _price) public onlyOwner {\r\n    price = _price;\r\n  }\r\n\r\n  // Sets IPFS link\r\n  function setBaseURI(string memory _newBaseURI) public onlyOwner {\r\n    baseURI = _newBaseURI;\r\n  }\r\n\r\n  // Sets Base Extension\r\n  function setBaseExtension(string memory _newBaseExtension) public onlyOwner {\r\n    baseExtension = _newBaseExtension;\r\n  }\r\n\r\n  // Pause contract\r\n  function pause(bool _state) public onlyOwner {\r\n    paused = _state;\r\n  }\r\n  \r\n  // Returns \"True\" if the token exists, and \"False\" otherwise\r\n  function exists(uint256 tokenId) public view returns(bool){\r\n    return _exists(tokenId);\r\n  }\r\n\r\n  // Withdrawing contract balance to withdrawAddress\r\n  function withdraw() public payable onlyOwner {\r\n    (bool os, ) = payable(withdrawAddress).call{value: address(this).balance}(\"\");\r\n    require(os);\r\n  }\r\n\r\n  function supportsInterface(bytes4 interfaceId) public view virtual override (ERC721Enumerable, ERC2981) returns(bool){\r\n      return super.supportsInterface(interfaceId);\r\n  }\r\n\r\n  // Burns token\r\n  function _burn(uint256 tokenId) internal virtual override {\r\n      super._burn(tokenId);\r\n      _resetTokenRoyalty(tokenId);\r\n    }\r\n\r\n  function burnNFT(uint256 tokenId) public onlyOwner{\r\n    _burn(tokenId);\r\n  }\r\n}",
  "sourcePath": "D:\\work\\eth\\Krwn\\contracts\\KRWN.sol",
  "compiler": {
    "name": "solc",
    "version": "0.8.19+commit.7dd6d404.Emscripten.clang"
  },
  "schemaVersion": "3.4.4",
  "updatedAt": "2023-04-25T12:02:58.683Z",
  "devdoc": {
    "events": {
      "Approval(address,address,uint256)": {
        "details": "Emitted when `owner` enables `approved` to manage the `tokenId` token."
      },
      "ApprovalForAll(address,address,bool)": {
        "details": "Emitted when `owner` enables or disables (`approved`) `operator` to manage all of its assets."
      },
      "Transfer(address,address,uint256)": {
        "details": "Emitted when `tokenId` token is transferred from `from` to `to`."
      }
    },
    "kind": "dev",
    "methods": {
      "approve(address,uint256)": {
        "details": "See {IERC721-approve}."
      },
      "balanceOf(address)": {
        "details": "See {IERC721-balanceOf}."
      },
      "getApproved(uint256)": {
        "details": "See {IERC721-getApproved}."
      },
      "isApprovedForAll(address,address)": {
        "details": "See {IERC721-isApprovedForAll}."
      },
      "name()": {
        "details": "See {IERC721Metadata-name}."
      },
      "owner()": {
        "details": "Returns the address of the current owner."
      },
      "ownerOf(uint256)": {
        "details": "See {IERC721-ownerOf}."
      },
      "renounceOwnership()": {
        "details": "Leaves the contract without owner. It will not be possible to call `onlyOwner` functions anymore. Can only be called by the current owner. NOTE: Renouncing ownership will leave the contract without an owner, thereby removing any functionality that is only available to the owner."
      },
      "royaltyInfo(uint256,uint256)": {
        "details": "Returns how much royalty is owed and to whom, based on a sale price that may be denominated in any unit of exchange. The royalty amount is denominated and should be paid in that same unit of exchange."
      },
      "safeTransferFrom(address,address,uint256)": {
        "details": "See {IERC721-safeTransferFrom}."
      },
      "safeTransferFrom(address,address,uint256,bytes)": {
        "details": "See {IERC721-safeTransferFrom}."
      },
      "setApprovalForAll(address,bool)": {
        "details": "See {IERC721-setApprovalForAll}."
      },
      "symbol()": {
        "details": "See {IERC721Metadata-symbol}."
      },
      "tokenByIndex(uint256)": {
        "details": "See {IERC721Enumerable-tokenByIndex}."
      },
      "tokenOfOwnerByIndex(address,uint256)": {
        "details": "See {IERC721Enumerable-tokenOfOwnerByIndex}."
      },
      "tokenURI(uint256)": {
        "details": "See {IERC721Metadata-tokenURI}."
      },
      "totalSupply()": {
        "details": "See {IERC721Enumerable-totalSupply}."
      },
      "transferFrom(address,address,uint256)": {
        "details": "See {IERC721-transferFrom}."
      },
      "transferOwnership(address)": {
        "details": "Transfers ownership of the contract to a new account (`newOwner`). Can only be called by the current owner."
      }
    },
    "version": 1
  },
  "userdoc": {
    "kind": "user",
    "methods": {},
    "version": 1
  }
}